:040FF80000800F0066
:040FFC0000E00F0002
:02000002F0000C
:10800000000004205D830F0045830F0047830F00AD
:1080100049830F004B830F004D830F0000000000C9
:10802000000000000000000000000000B1AF0F00E1
:1080300051830F000000000053830F0055830F0091
:1080400057830F0057830F0057830F0057830F008C
:1080500057830F0057830F0057830F0057830F007C
:1080600057830F0057830F0057830F0057830F006C
:1080700057830F0057830F0057830F0057830F005C
:1080800065B70F0057830F0057830F0057830F000A
:1080900057830F0057830F00CD980F0057830F00B1
:1080A00057830F0057830F0057830F0057830F002C
:1080B00057830F0057830F000000000000000000EE
:1080C00057830F0057830F0057830F0057830F000C
:1080D00025B40F0057830F0057830F0057830F00FD
:1080E00057830F0057830F0057830F0000000000D5
:1080F0000000000057830F000000000057830F00AE
:10810000000000000000000000000000000000006F
:10811000000000000000000000000000000000005F
:10812000000000000000000000000000000000004F
:10813000000000000000000000000000000000003F
:10814000000000000000000000000000000000002F
:10815000000000000000000000000000000000001F
:10816000000000000000000000000000000000000F
:1081700000000000000000000000000000000000FF
:1081800000000000000000000000000000000000EF
:1081900000000000000000000000000000000000DF
:1081A00000000000000000000000000000000000CF
:1081B00000000000000000000000000000000000BF
:1081C00000000000000000000000000000000000AF
:1081D000000000000000000000000000000000009F
:1081E000000000000000000000000000000000008F
:1081F000000000000000000000000000000000007F
:10820000314932480A1A02D0072291438D4630493B
:1082100030480A1A06D00722914381F309880222C6
:1082200082F314882C482D492D4A00F03CF82D4843
:108230002D492E4A00F037F82D482E492E4A00F0DD
:1082400032F82E482E492F4A00F02DF82E482F499B
:108250002F4A00F028F82F482F49304A00F023F821
:108260002F483049304A00F01EF83048304900228B
:1082700000F024F82F483049002200F01FF82F4A60
:1082800090471F481F49884205D00268043003B454
:10829000904703BCF7E700208646EC46002000210B
:1082A000274A9047FEE7884207D0521A05D0037844
:1082B00001300B700131013AF9D17047884202D088
:1082C00002700130FAE770470000042000F8032034
:1082D000000004200000042068D90F00CC570020C3
:1082E00004580020BC830F00BC830F000AD40F0089
:1082F00068D90F00CC570020CC57002078D40F004D
:1083000078D40F0078D40F0078D40F0078D40F0001
:1083100078D40F0078D40F0078D40F0068D90F00FC
:10832000A0D90F0004580020045800200458002051
:10833000B87D0020B87D0020B87D002085830F0027
:10834000F99D0F00FEE7FEE7FEE7FEE7FEE7FEE72A
:10835000FEE7FEE7FEE7FEE7704700BF10488047F4
:1083600010484FF00701884385460F4880470F4863
:10837000016841F470010160BFF34F8FBFF36F8F4D
:10838000FFF73EBF0A480B490B4A884207D0521AF2
:1083900005D0037801300B700131013AF9D17047F3
:1083A00059830F0000000420FDB70F0088ED00E0A6
:0C83B00064D40F00B8570020CC57002008
:1083BC004B1C30B5DB00044612F003009BB20DD110
:1083CC00074D2A601A44074B1A60074B1870074B6D
:1083DC001870074B1C80074B198030BD0720FCE739
:1083EC000C58002008580020045800201458002075
:1083FC0010580020125800202DE9F3472B4F3B88D2
:10840C008B4206460D4690464BD300240DF10700D7
:10841C008DF8074000F086F8254B26481A78264B35
:10842C00008893F800C084455FFA8CF138BF4C1C6F
:10843C00D2B238BFE4B2A2422DD01C781A78D1B295
:10844C00904286BF0131C9B2002119709DF8070016
:10845C0000F08CF84FF6FF739C4224D0DFF860904C
:10846C00D9F800204FEAC40A42F8348002EBC40366
:10847C00A6B19DB1114B38881B682A4604FB00300D
:10848C00314604F030FFD9F80030534400209D8071
:10849C0002B0BDE8F0874FF6FF74D7E70020988054
:1084AC00F6E70920F4E70420F2E700BF105800209B
:1084BC00145800201258002004580020085800209E
:1084CC000C580020F8B5114C114D264622782B780B
:1084DC009A4200D1F8BD0F480F4A237812680788DA
:1084EC000E4802EBC301006852F83320898803FB65
:1084FC00070090470A4922780988D3B2914286BF77
:10850C000133DBB200233370E0E700BF14580020C6
:10851C0004580020105800200C5800200858002047
:10852C001258002070B5EFF3108672B60C4A94689E
:10853C0001239CB993600B4B0B4DD3F88010294051
:10854C001160C3F88050D3F8841051604FF0FF32A3
:10855C00C3F88420047006B962B670BD0370FAE7E4
:10856C001858002000E100E0FC06FFBD084B9A689B
:10857C0010B55AB150B9EFF3108172B6054A1C68A8
:10858C0014605C685460986001B962B610BD00BF9D
:10859C001858002000E100E030B53AB11368DB4315
:1085AC000A4D0144814204D1D84330BD4FF0FF3312
:1085BC00F6E710F8012B5340082213F0010418BF02
:1085CC002C46013A84EA5303F7D1EBE72083B8ED4C
:1085DC0010B561B1B2FBF3F403FB1424A4B244B99B
:1085EC00C0E9001484608281C381204610BD0E2036
:1085FC00FCE70920FAE782B050E8022FC188B2EB01
:10860C00324F4FF0000317BF92B241EA014142EAE8
:10861C00014104E04268B2EB324F08BF012340E84D
:10862C000212002AE8D18DF807309DF80730002B94
:10863C000CBF1120002002B0704737B550E8013F45
:10864C009DB2C48925448489A54228BF2D1B048969
:10865C00A54202BFBFF32F8F002207E0C5EA030536
:10866C0040E80154002CE9D14FF001028DF80320B1
:10867C000193019B9DF803200B6002F0FF0322B1D4
:10868C000B880068184403B030BD1846FBE70A8815
:10869C004B889A4209D150E8012FC2EA024240E8C5
:1086AC000123002BF7D1012070470020704737B50C
:1086BC0050E8023F1FFAA3F5C488A54202BFBFF3DE
:1086CC002F8F00220DE0C48925448489A54228BF40
:1086DC002D1BC3EA054540E80254002CE8D14FF0AD
:1086EC0001028DF803200193019B9DF803200B6080
:1086FC0002F0FF0322B14B880068184403B030BD70
:10870C001846FBE70A884B889A4209D150E8022F99
:10871C00C2EA224240E80223002BF7D10120704725
:10872C000020704710B5034653E8000F40EA0102E1
:10873C0043E8002494F0000FF6D110BD10B50346A9
:10874C0053E8002F02EA010043E8000494F0000F04
:10875C00F6D110BD0121FFF7E5BF0021FFF7EEBFF9
:10876C0010B590B1D0E9012301689B1ADBB20A6005
:10877C00013BDBB2FF2B026802D10020107110BD4F
:10878C0011684C1C14600B70F2E70E20F7E737B53C
:10879C00054600240DF107008DF80740FFF7C2FED7
:1087AC002A686B68116899420ED9481E106011F83E
:1087BC00014CEB68298A01FB0434AB6811791B1A54
:1087CC00DBB2994238BF13719DF80700FFF7CEFE5C
:1087DC00204603B030BD37B5054600230DF1070028
:1087EC000C468DF80730FFF79DFE2A681368591C5C
:1087FC001160E968641A298AB4FBF1F41C709DF8C5
:10880C000700FFF7B3FE03B030BD0B6801601146E3
:10881C00184710B40468E468A4465DF8044B60473C
:10882C0010B404682469A4465DF8044B604700004A
:10883C0070B550B90E4D0F4C0026641B1423B4FBBD
:10884C00F3F4B44208D1002010E00368002BF1D0FF
:10885C00BDE87040DB6918472B6813B90136143535
:10886C00EFE7DB69284698470028F7D070BD00BFBA
:10887C00B8570020CC570020014B436000207047B4
:10888C0078D40F000846704700207047024B1868D8
:10889C00003818BF012070472458002008B5024842
:1088AC00FFF75BFF002008BD2458002008B51046D8
:1088BC001A4604F018FD002008BD00002DE9F04315
:1088CC00814687B014480E4615469846FFF742FF7E
:1088DC000446F0B90746BD4215D10F48FFF73DFFDE
:1088EC00D9F808305BB102228DF800200022CDE9C6
:1088FC000126CDE90325CDF814806846984720461B
:10890C0007B0BDE8F08306EB073001F0B3F8013790
:10891C00E1E71124F3E700BF245800202DE9F041D2
:10892C00804686B011480F4616461D46FFF712FFCB
:10893C000446C8B9AA083146384601F0B3F80B48CA
:10894C00FFF70BFFD8F8083053B101228DF8002047
:10895C000C9A0592CDE90147CDE903656846984725
:10896C00204606B0BDE8F0811124F9E72458002018
:10897C0029DF704728DF704770B503689E6886B0A2
:10898C0004460D466EB114220021684604F0D4FC56
:10899C00A3680593237901952BB1012B0DD0684663
:1089AC00B04706B070BD01238DF8003023690293E7
:1089BC00E368039363690493F1E702238DF80030B5
:1089CC00E3681B030293F5E70846704700207047E5
:1089DC00024B187A003818BF01207047145A002037
:1089EC00034B187A0122B0FA80F05A744009704790
:1089FC00145A002008B510461A4604F074FC0020E6
:108A0C0008BD000008B514220021044804F094FCB1
:108A1C000348FFF7F0FD002008BD00BF145A0020EA
:108A2C00045A002010B5094C094B43602046FFF74F
:108A3C0091FE48B900F02AFF064920741C23064811
:108A4C004FF4EE72FFF7C4FD002010BD145A002045
:108A5C00A4D40F0028580020045A002070B5234CD1
:108A6C00234E237A25463BB922492348FFF71FFEA4
:108A7C00306008B9606070BD022334682B722379B2
:108A8C0073B1012B22D020460321FFF775FF002381
:108A9C002B726B6017491848BDE87040FFF732BE67
:108AAC00D4E90523D21A142AD4E9031028BF1422BE
:108ABC009208012A38BF012219441844FFF758FFC5
:108ACC0050B11128DFD101232B72D4E7D4E9030371
:108ADC001844FFF74FFFF3E72B7C002BCBD101465B
:108AEC00BDE87040022000F009B800BF145A002005
:108AFC002C5A0020285A0020045A002038B5831E16
:108B0C00012B43D8224C237A002B3FD0022B09D1C6
:108B1C0003282ED01F4B00221B68E2601A793AB151
:108B2C00012A20D0637C6BBBBDE83840FFF796BFB1
:108B3C00D3E905128D1A142D94BF521914329A616F
:108B4C009142EFD102284FF0000308BF194623725F
:108B5C00104B18BF0D211868FFF70EFF0E490F4878
:108B6C00FFF7D0FDDEE71A6901321A615B699A42A0
:108B7C00E7E7E3680133082B01D8E360D2E7002371
:108B8C00E360DFE7BDE8384000F070BE38BD00BFE1
:108B9C00145A00202C5A0020285A0020045A002075
:108BAC0000F0FD03012B08D1044B00225A74421E25
:108BBC00504250411874FFF751BF7047145A0020AF
:108BCC0010B5064C201DFFF7C5FD28B9637C1BB9F9
:108BDC00BDE81040FFF742BF10BD00BF145A002083
:108BEC002DE9F34180460D460F4801A916461F4654
:108BFC00FFF723FD0446A8B11C22002104F09CFBC6
:108C0C002D0B0123237101A90748C4F80080A7602C
:108C1C00E5606661FFF73BFDFFF7D2FF002002B075
:108C2C00BDE8F0810420FAE7045A00202DE9F7434F
:108C3C0081468846104801A917461E46FFF7FDFCE1
:108C4C000446B0B11C22002104F076FB00250A9BDF
:108C5C00A36001A9C4E9037807482571C4F8009002
:108C6C006661FFF714FDFFF7ABFF284603B0BDE8C4
:108C7C00F0830420FAE700BF045A00200B684A680E
:108C8C004360934208BF0023016008BF43607047F4
:108C9C00436843B10268916852680B449342436045
:108CAC0004BF0023436070470023C0E902328B8865
:108CBC001A44B1F9063002611A44C0E9001142614C
:108CCC000888003818BF012070474268118838B5F1
:108CDC000346002937D0148A02F1100141602CB9E7
:108CEC00C2680168FFF7E0FF204638BD9078118913
:108CFC0000F03005302D14D1947C04F03004302C6D
:108D0C001BD190881969091A19610021908AB2F94E
:108D1C001620084419690144196111445961012054
:108D2C00E3E700F0F004202C07D150894143002DDB
:108D3C00ECD1986801309860E8E700F0C00080281A
:108D4C0008BF0421F3E70846CFE770B54668044630
:108D5C000D4663681A88AA4204D19B7803F00F036E
:108D6C00082B07D12046FFF7B0FF6368B342F0D160
:108D7C00002070BD0120FCE743681A44426011B129
:108D8C0001399A4201D10120704713F8010B01F807
:108D9C00010FF6E783682DE9F3410446884623B9B1
:108DAC000026304602B0BDE8F081036801220DF1C7
:108DBC000701984706460028F2D0A3689DF8075093
:108DCC00013BA3609DF90730002B1ADA05F07F05F3
:108DDC000727A368002BE3D0236801220DF10701BC
:108DEC00204698470028DBD0A3689DF80720013B5C
:108DFC00A36002F07F03BB401D43130607F1070776
:108E0C0002D4C8F80050CCE7232FE2D1C8E770B5E4
:108E1C004568AA7802F00F06082E86B003461FD1CB
:108E2C0003691C6800260CB906B070BD2368626823
:108E3C009D68267329466846FFF736FF63680493DE
:108E4C0004F10C030593AB7803F0C003802B08BF2F
:108E5C00231D684608BF0493FFF7D9FFA468E2E717
:108E6C0012F0C0011CD102F0300010280AD15A694E
:108E7C001170072EEC68186909D10146204600F0E4
:108E8C0017F8D1E79006F4D55B691980CCE72A89ED
:108E9C00214614B104F027FAC6E704F04DFAC3E7F3
:108EAC008029C1D10069002192060160BCD5EBE795
:108EBC007FB50A4601466846FFF7F6FE30B16846B4
:108ECC00FFF7A5FF6846FFF700FFF7E707B05DF86F
:108EDC0004FB000030B5044685B01546A9B90268FC
:108EEC00114B9A4211D0102D06D82A4669462046BD
:108EFC00FFF7F0FF05B030BD102269462046FFF7A2
:108F0C00E9FF0028F6D0103DEDE7A368AB4201D293
:108F1C000020EFE723682A46204698470028F7D020
:108F2C00A268521BA260E5E7858D0F00F7B50E46CF
:108F3C0001A907461546FFF72DFFA8B1019A012399
:108F4C00D3184FF0000404D2B17801F0C00180298D
:108F5C0001D1204608E031899942FAD32946384696
:108F6C00FFF7B8FF019BEC5403B0F0BD73B50D4691
:108F7C0001A906461446FFF70DFF98B1019AB2F508
:108F8C00803F11D2AB7803F0C003802B02F10201B9
:108F9C000AD02B898B4207D32146304621F8022B6D
:108FAC00FFF798FF02B070BD0020FBE710B5034C33
:108FBC0082600022C0E90041C26010BD858D0F00A7
:108FCC002DE9F341002604460F46B0463546A3680A
:108FDC002BB3236801220DF1070120469847F0B10D
:108FEC00A3689DF807C0013B0CF07F02C5F120017E
:108FFC00A360A5F1200302FA03F322FA01F10B435B
:10900C00AA401CF0800F46EA020643EA080805F164
:10901C00070502D1C7E9006802E0462DD7D1002030
:10902C0002B0BDE8F08173B50C4669461646FFF7F1
:10903C00C7FF68B12389082B0CD1DDE90045C6E9CF
:10904C000045DDE90023AB4206BFA242012000200F
:10905C0002B070BD042B04D1009B33601C4600256C
:10906C00EFE7022B4FF0000004D1009B33809CB241
:10907C000546E6E7012BEBD1009B337003F0FF04B0
:10908C00F6E737B50D4669461446FFF799FF30B140
:10909C002A89082ADDE9003103D1C4E9003103B083
:1090AC0030BD042A18464FEAE37108D123601A46F2
:1090BC000B468B4206BF824201200020EFE7022ABA
:1090CC0004D11BB223801AB2D317F2E7012A03D1C1
:1090DC005BB223705AB2F7E70020E0E7F7B51F4602
:1090EC0000233B700D460B70136001A90446164615
:1090FC00FFF750FE30B9A36813B901233B70002071
:10910C0003B0F0BD019C002CF7D0E30804F0070479
:10911C0033602C70F4E713B5044605291FD8DFE83B
:10912C0001F0030F151E1E1C012201A92046FFF79A
:10913C00D1FE18B19DF90430002BF5DB02B010BD47
:10914C00082200212046FFF7C5FEF7E701A9FFF72B
:10915C0021FE0028F2D0019AF3E70422F1E7002067
:10916C00ECE773B50D4601A90446FFF713FE06465E
:10917C0018B90026304602B070BD94E80F0085E89F
:10918C000F0001998A42F4D3A960A3685B1AA3600B
:10919C00F0E700002DE9F0435668B37813F0C004F3
:1091AC0089B007468C46154603D0402C67D0002466
:1091BC000CE003F00F025D4903F03003202B51F853
:1091CC00228023D006D8E3B1102B17D0204609B04B
:1091DC00BDE8F083302BF9D16B6931881980072AEF
:1091EC0009D121463289286904F0A6F86B682969EF
:1091FC00D868FFF75DFE2A6969683EE06B69012259
:10920C001A702A693146C0470446DFE7BCF1020FE9
:10921C00D5F8149024D1042A22D804A9FFF7A1FF71
:10922C0004460028C3D0069B2BB16968B9F80030FE
:10923C004A899A4205D8059B7B60069B002BC5D0BA
:10924C00B5E708892A6903FB002204A8C04728B1A6
:10925C00B9F800300133A9F80030E4E70446EAE736
:10926C00B9F8003072899A42A1D931892A69581CFF
:10927C0003FB0122A9F8000031463846C3E7D2F8B7
:10928C001080464656F8043B13B9FFF744FFBBE782
:10929C00022914D104A9FFF764FF002887D0D8F85D
:1092AC0000306968324604A89847044600283FF409
:1092BC007EAF069B002BF2D1059B7B6086E70129D4
:1092CC0025D005292BD000297FF471AF0C460DF168
:1092DC00040901340B2C3FF46AAF0122494638468D
:1092EC00FFF7F8FD00283FF462AF19F9013B002BA2
:1092FC00EFDB0F4B049301ABCDE90534002307934F
:10930C006968D8F80030324604A898477CE70822F0
:10931C0001A9FFF7DFFD08240028EAD147E7042262
:10932C000DEB0201FFF7D6FD0424F5E7D0D40F00B6
:10933C00858D0F002DE9F04F91B00446002604A84E
:10934C00CDE90266FFF7B0FCA3683BBBDDE9053451
:10935C0004A89D78FFF7B9FC0028F7D115F0300F61
:10936C0003D1059B1B8803B10134002C00F0A980AC
:10937C006309002202A9934240F09C8010AA02EBE0
:10938C00830304F01F0453F8383CC4F120044FF05D
:10939C00FF30E040C31A584258410DE00DF1030371
:1093AC0001AA0DF102012046FFF798FE38B99DF88D
:1093BC000330002BCAD1002011B0BDE8F08F019909
:1093CC0004A8FFF7C2FC002850D1019BB3427DD307
:1093DC00059D059A937803F00F03082B7FD004A802
:1093EC00FFF773FC059B9D42F3D14FF0FF36019FB5
:1093FC00B7426BD3089B9DF802A0D4F808801D6877
:10940C004FF00109A368002D5DD098459CD12B68C5
:10941C00D3F800B0BBF1000F08D053463A462946AA
:10942C002046D8470028C6D0AD68EBE7D3F808B083
:10943C00BBF800309F42F7D16A6859460AA8FFF77B
:10944C0033FC6B680E9305F10C030F939BF8023001
:10945C0003F0C003802B04BF2B1D0E930AAA85F8C2
:10946C000C9051462046FFF795FEDBE7059B9B7859
:10947C0013F0300F0FD1069A3F2A0CD8510910ABBC
:10948C0003EB810102F01F020123934051F8382CA9
:10949C00134341F8383CE5682DB19DF80220019941
:1094AC0004AB2046A8479DF8021004AA2046FFF7FB
:1094BC0071FE10E051F8225001357FF47DAF01327E
:1094CC0059E7012078E798457FF43EAF9DF80210EC
:1094DC002046FFF720FE00287FF436AF6BE7168896
:1094EC0085E737B50C460546114620460192FFF735
:1094FC00DFFC019A2146284603B0BDE83040FFF757
:10950C0019BF70B586B0CE6801920C4602A905460B
:10951C00FFF727FE68B1E06858B1A378019A03F011
:10952C003003202B314602A805D1FFF7DAFF039B4D
:10953C006B6006B070BDFFF7FDFEF8E7D3B50C46C7
:10954C006946FFF73DFD80B1DDE9001300274A08AD
:10955C0001F0010642EAC37256EA07014FEA5303CF
:10956C001CBFD243DB43C4E9002302B0D0BD37B5E6
:10957C000D4669461446FFF7E1FF68B12B89082BAD
:10958C000CD1DDE90001C4E90001DDE900238B42C7
:10959C0006BF82420120002003B030BD042B03D152
:1095AC0000982060C117F0E7022B04D1BDF9000030
:1095BC00208000B2F6E7012B04D19DF90000207049
:1095CC0040B2EFE70020E7E713B504220C460DEBA1
:1095DC000201FFF77FFC08B1019B236002B010BDB4
:1095EC001146FFF7F1BF13B508220C466946FFF789
:1095FC0071FC18B1DDE90023C4E9002302B010BDF1
:10960C001146FFF7F0BF43689B68184708B54368DD
:10961C0008309A7903F067FE002008BD1FB5084694
:10962C000C4603920293FFF7EEFFDDE90221009056
:10963C00069B04F1080001F059F9002848F2425049
:10964C0018BF002004B010BD074B1B5C1F2B86BF3E
:10965C00064903F01F034FF0A041012202FA03F365
:10966C00C1F80C35704700BF00D50F000003005047
:10967C00074B1B5C1F2B86BF064903F01F034FF0E3
:10968C00A041012202FA03F3C1F80835704700BF6C
:10969C0000D50F000003005008B50020FFF7E8FFCD
:1096AC000120FFF7E5FFBDE808400220FFF7E0BF0F
:1096BC00C3070BD54FF0A04205490323C2F854371A
:1096CC00C1F82437C2F83437FFF7E6BF704700BF44
:1096DC000003005010DF704711DF704713B50446CC
:1096EC0009496846FFF7CAFA019808B902B010BDDB
:1096FC00D0E900212046904718B16846FFF7C8FA18
:10970C00F2E71120F2E700BF08D50F0013B50446AD
:10971C0007496846FFF7B2FA019B0BB902B010BDBE
:10972C002046D3E9002190476846FFF7B1FAF3E7EA
:10973C0020D50F00064B9A6822B11A6822F48002D9
:10974C001A607047034B4FF48002C3F880207047B7
:10975C001858002000E100E00B4991F816335A0923
:10976C00EC231341DB0706D5084B9A683AB94FF442
:10977C0080030B60704742F2020000F00ABB1A68CB
:10978C0042F480021A60704700E100E01858002093
:10979C00F7B5194F3C7864BB184E0125204635703F
:1097AC00FFF79CFF112821D02046FFF7AFFF144B89
:1097BC008DF80340186801900DF10300FEF7B2FE1E
:1097CC00104901A8FFF786FF0446B0FA80F0400963
:1097DC0038709DF80300FEF7C9FE3CB90A4B347093
:1097EC001C70FFF7B9FF2846FFF790FF204603B027
:1097FC00F0BD0824FAE700BF315A0020305A00208F
:10980C0003D50F00999D0F00325A0020F7B5154F64
:10981C003B781BB3144E01203070FFF75FFF11280B
:10982C004FF000051CD00220FFF770FF0DF1070070
:10983C008DF80750FEF776FEFFF74EFF04469DF8B5
:10984C0007003D70FEF792FE2CB93470FFF772FFE3
:10985C000320FFF75BFF204603B0F0BD0824FAE7B6
:10986C002C46F8E7315A0020305A0020054B1B7863
:10987C0033B1054B1B780BB1FFF7C8BFFFF788BF9F
:10988C0008207047305A0020315A0020014B1878BC
:10989C00704700BF315A002007B508496846FFF7EA
:1098AC00EDF9019B13B903B05DF804FBD3E900207B
:1098BC0090476846FFF7ECF9F3E700BF14D50F00AB
:1098CC00FFF7EABF60DF704769DF704761DF704701
:1098DC0030B5114DADF5017D4FF4FA740DF1020167
:1098EC0003A8ADF80240FFF7F1FF70B9294601A8B3
:1098FC00FFF7C4F9029B002BF0D003A8D3E9002199
:10990C00904701A8FFF7C4F9F4E7052801D000F04F
:10991C0040FA0DF5017D30BD2CD50F00024B1B78A4
:10992C000BB1FFF7D5BF7047335A002018B1034B6A
:10993C000360002070470E20704700BFB85700200E
:10994C00F0B5074685B00D4600295DD02F4B0B6056
:10995C000C22002101A803F0EFFC012606232A6843
:10996C00ADF8083001A920208DF804708DF8066040
:10997C00FFF7AAFF0C22002101A803F0DDFC002454
:10998C002A688DF8056001A94020ADF80640FFF764
:10999C009BFF0C22214601A803F0CEFCF7232A687A
:1099AC00ADF8063001A923208DF80470FFF78CFF69
:1099BC000C22214601A803F0BFFC2A688DF8046034
:1099CC0001A93046FFF780FF0C22214601A803F0C5
:1099DC00B3FC4FF4B0632A68019301A9A120FFF7EF
:1099EC0073FF0C22214601A803F0A6FC9DF804305D
:1099FC002A6864F3000301A9A0208DF80430FFF756
:109A0C0063FF204605B0F0BD0E20FBE7B8570020E1
:109A1C0008B5FFF757FF10B9014B01221A7008BDAA
:109A2C00335A00204BDF70471FB50D4C01A8FFF7D0
:109A3C00F9FF70B9214602A8FFF720F9039B002B10
:109A4C00F4D00198D3E90021904702A8FFF720F940
:109A5C00F4E7052801D000F09CF904B010BD00BF5C
:109A6C0038D50F00024AD2F80034002BFBD07047D7
:109A7C0000E001400A4908B50223C1F80435BFF3E0
:109A8C006F8FBFF34F8FC1F80805FFF7EBFF002373
:109A9C00C1F80435BFF36F8FBFF34F8F08BD00BF04
:109AAC0000E001400E4B10B50124C3F80445BFF390
:109ABC006F8FBFF34F8F01EB8204401AA14208D184
:109ACC00074B0022C3F80425BFF36F8FBFF34F8FF2
:109ADC0010BD431851F8042B1A60FFF7C3FFEDE7D4
:109AEC0000E0014028B139B10023C1E9003018462B
:109AFC00704748F21050704748F21350704738B115
:109B0C00006848F24053884214BF18460020704742
:109B1C0048F21050704730B148F21153914214BFC3
:109B2C0018460020704748F21050704770B5064632
:109B3C000C461D46FFF7D6FF50B9B3794AB1AB427C
:109B4C000AD111462046FFF761FD08B9044B23608A
:109B5C0070BD48F21050FBE748F21150F8E700BF17
:109B6C007052464D2DE9F0470C4606460F492046EB
:109B7C00DDE9088915461F46FFF7C1FFA0B96368E8
:109B8C005A79494652004046FFF7C5FF60B94DB1BE
:109B9C00CDF820803B462A4621463046BDE8F047AA
:109BAC00FFF73CBD48F21050BDE8F0877052464DAF
:109BBC0010B5044638B149B10B684160984708B9F3
:109BCC00044B236010BD48F20150FBE748F21050E3
:109BDC00F8E700BF6E524648F0B4134648B1076828
:109BEC00094EB7420AD161B12AB14368F0BC5B6837
:109BFC00184748F201531846F0BC704748F202531C
:109C0C00F9E748F21053F6E76E524648F0B460B1EB
:109C1C0007680C4EB7420CD171B143681568DC680B
:109C2C00A5420CD3F0BC9B68184748F20150F0BC1D
:109C3C00704748F20250FAE748F21350F7E748F23F
:109C4C001450F4E76E524648F7B50446DDE9086750
:109C5C0015460193FFF7ACFF68B9019A29462046D7
:109C6C00FFF7BAFF38B93A463146204603B0BDE893
:109C7C00F040FFF7CBBF03B0F0BD0000F8B50A4FC2
:109C8C000A4C0B4DE41B0121E40829700026A64266
:109C9C0003D102232B700020F8BD57F836309847BB
:109CAC000028F9D10136F2E70CD40F000CD40F00C8
:109CBC00345A002001390144814200D270470378A4
:109CCC000A7800F8012B01F80139F5E7013A024452
:109CDC000139824200D2704711F8013F02F8013974
:109CEC00F7E770B516460D46FFF7F0FF3246A91997
:109CFC003044BDE87040FFF7E9BF38B50D46044667
:109D0C00FFF7D8FF29466019BDE83840FFF7D2BFEE
:109D1C0008B507281BD8DFE800F004121A1A1A0439
:109D2C001A040120FFF7C4FC0020FFF78DFC012072
:109D3C00FFF78AFCBDE808400220FFF799BC012020
:109D4C00FFF796FCBDE808400220FFF77DBC08BD7C
:109D5C0008B50B4D642445F001054FF47A40A84733
:109D6C00013CFAD1BFF34F8F0649074BCA6802F486
:109D7C00E0621343CB60BFF34F8F00BFFDE700BF22
:109D8C0090D50F0000ED00E00400FA0508B5FFF7D0
:109D9C00DFFF08B5FFF7DCFF40F6F873114A1B68CC
:109DAC0093421CD040F6FC734FF47E2119600E4B8D
:109DBC000121C3F80415D3F800140029FBD040F698
:109DCC00F8710A6040F6FC724FF47E21116000229B
:109DDC00C3F80425044AD2F80034002BFBD0002031
:109DEC00704700BF00800F0000E0014010B5FFF786
:109DFC00D3FF002210464FF4805101F013FA0246B3
:109E0C0008B1FFF7A5FF0848C0F57E2101F00AFA5A
:109E1C000028F6D1054801F02BF904460028F0D1B2
:109E2C0001F0EEF9204610BD00800F001D9D0F00C3
:109E3C0000000000C3F10803DB0070B501330446D9
:109E4C00002003A55B1920C940CAAD1920C41847CE
:109E5C0020C940CA754120C420C940CA754120C4DC
:109E6C0020C940CA754120C420C940CA754120C4CC
:109E7C0020C940CA754120C420C940CA754120C4BC
:109E8C0020C940CA754120C4404170BD000000008B
:109E9C0000000000C3F10803DB0070B5013300249F
:109EAC0003A500BF5B1920C940CAAD1B20C01847D1
:109EBC0020C940CAB54120C020C940CAB54120C004
:109ECC0020C940CAB54120C020C940CAB54120C0F4
:109EDC0020C940CAB54120C020C940CAB54120C0E4
:109EEC0020C940CAB54120C06441B4FA84F040098D
:109EFC0070BD00BF2DE9F041013B00249B00A4463E
:109F0C00A646A046002502E05FEA0805ED1AB8EB6C
:109F1C00050697594E59A6FB0767A4195CEB070C6D
:109F2C005EF1000E04359D4201DC4545EFDD40F845
:109F3C0008406446F4465FF0000E18F1040898459A
:109F4C00E0DDB8EB430FDFDD40F80840BDE8F08101
:109F5C00002310B51C465AB2914200DC10BD40F8EB
:109F6C0023400133F7E710B500231A465CB2A14237
:109F7C0003DCB2FA82F0400910BD50F823400133E3
:109F8C002243F3E74A11012350F8220001F01F018C
:109F9C0003FA01F108407047013910B549B2041DAC
:109FAC000A06CBB204D4013954F82120002AF7D088
:109FBC0001335BB273B103F18042013A50F82220B5
:109FCC00002022B9013B00EB431318B210BD52081C
:109FDC000130F6E71846F9E710B500235CB2A2424F
:109FEC0000DC10BD51F8234040F823400133F5E765
:109FFC0010B5013A52B2130601D5002010BD50F82D
:10A00C00224051F822309C4205D802F1FF32F2D2A4
:10A01C004FF0FF30F2E70120F0E700EB8101002365
:10A02C00884200D3704751F8042D43EA52030B6069
:10A03C00D307F5E737B51D469DF918300193044653
:10A04C00FFF7F8FE019B38B91A4621462846FFF760
:10A05C00CFFF0128019B07D02A462146204603B09A
:10A06C00BDE83040FFF716BF03B030BD37B51D4615
:10A07C009DF9183001930446FFF70CFF019B38B192
:10A08C002A462146204603B0BDE83040FFF7D2BE39
:10A09C0003B030BD2DE9F04FB5B01E469DF9F85018
:10A0AC0080462B4604A8FFF725FF24ABCDE90230F0
:10A0BC0029463046FFF770FFC0EB851004B2002C28
:10A0CC002146B8BF04F11F01634241F3471103F06D
:10A0DC001F0314A804F01F0758BF5F42FFF738FF97
:10A0EC00002F08B22BDD14AB002203EB8001C7F16B
:10A0FC00200E1346AB4217D36B00019314AB03EB4A
:10A10C0085096F1E34AB012603EB8707002C54DA4C
:10A11C0034AB03EB86062A4656F8C81C4046FFF7BC
:10A12C005BFF35B0BDE8F08F56F823C00CFA07F092
:10A13C00024341F8042B01332CFA0EF2DAE714AB8C
:10A14C002A46314603EB8000FFF746FFD4E70FFAAF
:10A15C0082FE5AF8C83C53F82EB034AB03EB8202A3
:10A16C00013052F8803C0B44BBEB030334BF01229B
:10A17C0000229B4518BF11465CF8C82C42F82E30C3
:10A18C00019B42B29A42E2DB731A5E42294614A842
:10A19C005E41FFF742FF34AB03EB8503294653F8CE
:10A1AC00802C57F8803C484643EAC273013C47F880
:10A1BC00803C24B2FFF731FFA8E734AB0020C6F196
:10A1CC00010C014603EB860A03EB8C0CD8E730B587
:10A1DC001C4691B0054693F900306846FFF78AFE9D
:10A1EC00D4F8B03069462846984711B030BD1346B4
:10A1FC000A46FFF7ECBF2DE9F04793F9006092B0E7
:10A20C00044689461046314615461F46FFF7ABFEFD
:10A21C00002840F091803A46494602A8FFF7E7FF34
:10A22C003B4602AA21460AA8FFF7D1FF02A908461D
:10A23C003A46FFF7DCFF3B462A4649464846FFF7BD
:10A24C00C6FF07F104083A4629462846FFF7CFFF18
:10A25C0043462A46214620460096FFF7EBFE43462E
:10A26C002A46294628460096FFF7E4FE43462A462E
:10A27C00214628460096FFF7F9FE3B462A46214622
:10A28C002046FFF7A4FF4346224621462846009667
:10A29C00FFF7D0FE434600962A4621462046FFF79C
:10A2AC00C9FE2368DB074AD5334642462146204681
:10A2BC00FFF7C0FD314682462046FFF7AEFE06F1A1
:10A2CC008043013B54F8232042EACA7244F823200D
:10A2DC003A4621462846FFF78AFF43460AAA2946F2
:10A2EC0028460096FFF7C2FE43460AAA294628468E
:10A2FC000096FFF7BBFE0AA9084643462A4600967D
:10A30C00FFF7B4FE3B460AAA21462046FFF75FFF43
:10A31C0002AA4346104621460096FFF7A7FE324696
:10A32C0029462046FFF758FE49462846FFF754FEBB
:10A33C0002A94846FFF750FE12B0BDE8F08731463F
:10A34C002046FFF76AFEC3E72DE9F04115468AB0B7
:10A35C0004460E461C22002103A802F0EDFF2F1D1F
:10A36C0095F9008003232A46314620460293FFF7D5
:10A37C003EFF3B4602AA21462046CDF80080FFF75F
:10A38C0075FE2B46324621462046FFF720FFCDF8BE
:10A39C0000803B4605F1840221462046FFF74AFE29
:10A3AC000AB0BDE8F081F0B591B00D461C22002139
:10A3BC00064601A802F0C0FF01241C22002109A8B6
:10A3CC00009402F0B9FF29466A4611F9047B0894FF
:10A3DC003B466846FFF72EFD39466846FFF7DCFD25
:10A3EC00441E24B2012C06DC3A4608A93046FFF77D
:10A3FC00F3FD11B0F0BD08A908462A46FFF7F7FE99
:10A40C0021466846FFF7BEFD28B108A92B46324607
:10A41C000846FFF7DCFE013CE3E700002DE9F042C3
:10A42C00082288B00C468146FFF7D6FDCB6A039311
:10A43C000B6B04934B6B05938B6B0693CB6B079356
:10A44C00002708236A4669466846CDE901770097DC
:10A45C00FFF7F0FC082305466A4649464846FFF7D5
:10A46C00E9FC236B0393636B0493A36B0593E36B7E
:10A47C000544CDE906376A46082369466846FFF766
:10A48C00D9FC082305446A4649464846FFF7D2FCE6
:10A49C00236A0093636A0193A36A0293A36B0693E6
:10A4AC00E36B0793054408236A4649464846CDE9C1
:10A4BC0004770397FFF7BEFC636A0093A36AA26B51
:10A4CC000193E36A02930492636BE26B0393CDE90D
:10A4DC000523236A07932E1808236A4649464846E3
:10A4EC00FFF7A8FCE36A0093236B0193636B029361
:10A4FC00236A0693A36A0793351808236A464946CC
:10A50C004846CDE904770397FFF7C4FC236B00930F
:10A51C00636B0193A36B0293E36B0393636A0693E0
:10A52C00E36A07932E1A08236A4649464846CDE942
:10A53C000477FFF7AFFC636B0093A36B0193E36BA2
:10A54C000293236A0393636A0493A36ACDE90537E4
:10A55C00236B0793361A08236A4649464846FFF789
:10A56C0099FCA36B0093E36BCDE90137636A03930A
:10A57C00A36A0493E36ACDE90537636B0793361A34
:10A58C0008236A4649464846FFF784FC361A0E4CA7
:10A59C000FD436B9082249462046FFF729FD012879
:10A5AC000FD00823224649464846FFF773FC361A5B
:10A5BC00EFE70823224649464846FFF73BFC36188E
:10A5CC00F7D408B0BDE8F0829CD50F0070B51446E6
:10A5DC008AB006460D461A46214602A80193FFF79B
:10A5EC0006FE019B02AA31463046FFF7F0FD02A998
:10A5FC00019B22460846FFF7EAFD019B02AA294669
:10A60C002846FFF7E4FD0AB070BD2DE9F0478AB08B
:10A61C001446DDF848A055461F4615F9046B009604
:10A62C00804689462B460246214602A8FFF71EFDAE
:10A63C0002A952460846FFF7DAFD534602AA4146E4
:10A64C004046FFF7C4FD534602AA21462046FFF7B9
:10A65C00BEFD2B464A46394638460096FFF706FDA6
:10A66C005246394602A8FFF7C2FD02A92B464246C4
:10A67C0008460096FFF7FAFC02A92B46224608462C
:10A68C000096FFF7F3FC2B464246214620460096E7
:10A69C00FFF7ECFC5346224649464846FFF797FD28
:10A6AC002B4602AA414620460096FFF7DFFC534694
:10A6BC00224639463846FFF78AFD2B464A4639462C
:10A6CC0038460096FFF7D2FC324602A92046FFF727
:10A6DC0083FC0AB0BDE8F087F8B50E46D11C48BF24
:10A6EC00911D41F387011446FFF732FC0025671ECC
:10A6FC006AB2A24205F1010500DBF8BDBB1A23F0DA
:10A70C000301B25C03F00303DB0002FA03F34258CB
:10A71C001A434250ECE72DE9F0479846B3F9023062
:10A72C00894613F11F0148BF03F13E01DD1D48BFEF
:10A73C0003F10E05EC104E11944275B228BF14466D
:10A74C0029460746FFF704FC22464946FFF7C4FF9B
:10A75C00B8F90230B3EBC40F4FEAC40220D2D21ABC
:10A76C0000EB86010020C2F120068F420FD308F1C6
:10A77C0024082A4639464046FFF73AFC01280FD0F8
:10A78C002B4642463846BDE8F047FFF783BB51F8ED
:10A79C00044D24FA02F303430B6004FA06F0E4E7D9
:10A7AC00BDE8F087036870B513F001060546144642
:10A7BC0005D013460A460146FFF73CFB06462146E8
:10A7CC002846FFF72AFC46B104F18042013A55F8BD
:10A7DC00223043F0004345F8223070BDF0B50F46EF
:10A7EC00A1B006461946384615461C46FFF7BBFB7A
:10A7FC0020B13046FFF7ACFB21B0F0BD2246394604
:10A80C006846FFF7E9FB294608A8FFF7E5FB10A807
:10A81C002146FFF79DFB012318A81093FFF798FB27
:10A82C00224608A96846FFF7E3FB28B9224610A97F
:10A83C003046FFF7D1FBDFE7009BDA0709D421464E
:10A84C006846FFF7EAFB2246294610A8FFF7AAFF45
:10A85C00E6E7089BDB0707D4214608A8FFF7DDFBDA
:10A86C002246294618A8F1E7002823461CDD08AA31
:10A87C0069466846FFF70EFB21466846FFF7CDFB9D
:10A88C00224618A910A8FFF7B3FB002805DA10A977
:10A89C0023462A460846FFF7CDFA10A9234618AAE4
:10A8AC000846FFF7F7FACEE708A96A460846FFF70D
:10A8BC00F1FA214608A8FFF7B0FB224610A918A808
:10A8CC00FFF796FB002805DA18A923462A46084606
:10A8DC00FFF7B0FA18A9234610AA0846FFF7DAFAD0
:10A8EC00BEE700000048704798D50F002DE9F04FE7
:10A8FC002DED028BFBB01E46869DB5F9023095F905
:10A90C000040914613F11F0248BF03F13E0242F38F
:10A91C00471B0BF1FF3A22AA002342F82A307AAAED
:10A92C0002EB8A0207EE101A42F8C03C42F8A03C37
:10A93C00014695F9012007466AA8FFF7CDFEA30052
:10A94C0095F9012005936AAB03EB84031846B918FB
:10A95C0007EE903AFFF7C0FE314695F901204AA860
:10A96C00FFF7BAFE95F9012052A8B118FFF7B4FE13
:10A97C0021464AA8FFF7F7FA00230646002840F0C4
:10A98C00318152A8FFF7EFFA0290002840F02C8199
:10A99C0005F124085A464AA94046FFF729FB01282D
:10A9AC0040F024815A4652A94046FFF721FB01286A
:10A9BC00049040F01B811AAF5B46424652A93846C0
:10A9CC00FFF70CFF0AAE029B46F82A3017EE101A5E
:10A9DC004A4630462B46FFF79EFE314630464346EC
:10A9EC003A46CDF800B0FFF755FB0DF5B47A434667
:10A9FC003A464AA912A8CDF800B0FFF74BFB224605
:10AA0C0050466AA9FFF7E8FAA3000AEB030917EE10
:10AA1C00901A4846FFF7E0FA05F14403194632A8AC
:10AA2C000393FFF7D9FA039BA10059183AA8FFF733
:10AA3C00D3FA2B1D08EE103A514632AA3846009430
:10AA4C00FFF714FB4B4652463AA932A80095FFF784
:10AA5C00DCFD18EE102A234639463846FFF7BEFEB9
:10AA6C002B46494650463A46FFF7B0FD029A0692ED
:10AA7C00039A079259466AAA3046CDE9082AFFF78D
:10AA8C008BFA5946824612A8FFF786FA5045B8BF92
:10AA9C0050461FFA80F909F1FF3109B23046039193
:10AAAC00FFF770FA0399061E12A818BF0126FFF7CC
:10AABC0069FA002814BF0220002006AB0643224688
:10AACC0053F8261022A8FFF787FA0DF1A80AA30065
:10AADC0019445046FFF780FA21463846FFF738FAFA
:10AAEC00049B3B60A9F1020922AB0FFA89F903938D
:10AAFC00B9F1000F27DA18EE102A234639463846EA
:10AB0C00FFF76CFE03982B463A465146FFF75EFD65
:10AB1C0003995A464046FFF76BFA012805D0039972
:10AB2C005B4642460846FFF7B5F9013C64B24AAAB7
:10AB3C0023064CD5029BB3FA83F040097BB0BDECE5
:10AB4C00028BBDE8F08F2B463A46D5F8A4600398EB
:10AB5C005146B04749460AA8FFF714FA4946061E63
:10AB6C0012A818BF0126FFF70DFA002814BF022007
:10AB7C000020064306AB53F8261019B3224632A820
:10AB8C00FFF72AFA059B3AA81944FFF725FA2B463A
:10AB9C003A463AA932A8FFF719FD18EE103A039974
:10ABAC00009432AA42A8FFF761FA039A0095534623
:10ABBC003AA932A8FFF729FD2B4642AA3946384656
:10ABCC00FFF705FB09F1FF390FFA89F990E7039BB1
:10ABDC0052F8241053F824304B4002991943029137
:10ABEC00013CA5E71846A9E73046A7E70298A5E778
:10ABFC002DE9F04FC9B008AA01F1400514464B7875
:10AC0C000E781B0443EA0663CE7833438E78043106
:10AC1C0043EA06238D4244F8043BF0D11024916B97
:10AC2C0016464FEAF14383EA714383EA9123716A32
:10AC3C00366852F8045F31440B444FEAB54181EA5F
:10AC4C00F51181EAD50101340B44402CD363E6D1D4
:10AC5C00D0E914E30093836D0193C36D0293036EEB
:10AC6C000393436E0493836E0593C36E0693DDE9E1
:10AC7C00057BDDE9031CDDE901592B4B009E079395
:10AC8C0074464FF00008079B53F8042B07934FEAC8
:10AC9C00F12383EAB11383EA716A08AB53F82830C5
:10ACAC001A440AEB020327EA010A01EA0C028AEAB7
:10ACBC0002021A444FEA743A86EA05035A448AEAB5
:10ACCC00B40A06EA050B234083EA0B038AEAB45A5A
:10ACDC0008F101089A44B8F1400F02EB0903BB4696
:10ACEC005244A94619D172440265009A2244426525
:10ACFC00019A32448265029A2A44C265039A1A4424
:10AD0C00049B02660B444366059B63448366069B67
:10AD1C003B44C36649B0BDE8F08F674635468C4668
:10AD2C00264619461446AEE74CD60F0030B5E0B1B6
:10AD3C000F4A104900240025C0E91245C0E914123D
:10AD4C000D4C0E4A0E4DC0E916420E4AC0E918527F
:10AD5C000D4A826602F17452A2F523020023A2F678
:10AD6C0092420364C266184630BD0E20FCE700BF59
:10AD7C0085AE67BB67E6096A72F36E3C3AF54FA580
:10AD8C007F520E518C68059BABD9831F70B5F0B107
:10AD9C00DAB900201CE00C468D180026AC42F8D025
:10ADAC00036C14F8012BC2540133402B0364F5D10E
:10ADBC000146FFF71DFFD0E9123213F5007342F183
:10ADCC000002C0E912320664E8E70029E3D10E2044
:10ADDC0070BD70B50D4616460446002875D0002986
:10ADEC0073D0026C8021372A815402F101034FF099
:10ADFC00000240D8382B39D1D4E91201226C082337
:10AE0C00E3FB020103BAE3630B0A84F83A300B0C40
:10AE1C0084F839300B0EC4E9120184F83B1084F825
:10AE2C00383021462046FFF7E3FE691E76B3002337
:10AE3C00E26EDA4001F8012FA26EDA400A71626EFE
:10AE4C00DA400A72226EDA400A73E26DDA400A7452
:10AE5C00A26DDA400A75626DDA400A76226DDA402C
:10AE6C000833202B0A77E3D1002070BDE254013364
:10AE7C00C0E7E25401333F2BFBD921462046FFF7B4
:10AE8C00B7FE3822002102F057FAB5E71823226DDD
:10AE9C00DA4001F8012F626DDA400A71A26DDA40D6
:10AEAC000A72E26DDA400A73226EDA400A74626E3C
:10AEBC00DA400A75A26EDA400A76E26EDA40083B96
:10AECC0013F1080F0A77E2D1CEE70E20CDE7000090
:10AEDC0038B1054B0360054B43600123037200201E
:10AEEC0070470E20704700BF23AF0F00FDAE0F0060
:10AEFC0069B10B78022B0CD1022804D0032814BFA3
:10AF0C0008201120704703230B70002070470E207F
:10AF1C0070470820704710B50C4681B10B78012B97
:10AF2C0006D00ED9033B012B94BF0820112010BD75
:10AF3C0001F06AFC0028FAD102232370F7E70E20F7
:10AF4C00F5E70820F3E7000070B5144B144A0C2108
:10AF5C00D21AB2FBF1F2816911F8025C044635B9E0
:10AF6C0000690021914205D1012323600EE04FF0CE
:10AF7C00FF30F6E71E68AE420CD1461C07D19D6827
:10AF8C00D4E90001D4E90223A847206070BD5E68B3
:10AF9C008642F4D001310C33E4E700BF14D40F0027
:10AFAC0020D40F001EF0040F0CBFEFF30880EFF35A
:10AFBC000980FFF7C9BF00BF007800F0010070479F
:10AFCC0041DF7047014B01221A707047585E002018
:10AFDC0008B50B4D642445F001054FF47A40A847A1
:10AFEC00013CFAD1BFF34F8F0649074BCA6802F4F4
:10AFFC00E0621343CB60BFF34F8F00BFFDE700BF90
:10B00C0050D70F0000ED00E00400FA05024B034896
:10B01C0000221A7001F04EBB585E0020DDAF0F000D
:10B02C00042810B5044607D8022808D90B494FF458
:10B03C00701000F04FFA02E0831F012B06D9084B69
:10B04C001B6853B12046BDE810401847054B064815
:10B05C0000221A7001F02EFBF1E710BD19B00F00A1
:10B06C005C5E0020585E0020DDAF0F0000207047B2
:10B07C0038B5574B1860002001F032FB044600280D
:10B08C0040F0A08000F0F6FA012800F0968002282B
:10B09C0000F09A80002840F095804FF08043D3F860
:10B0AC00004414F4803440D04FF48032C3F80024B0
:10B0BC000446484D2B6A012B4AD04FF4701400F013
:10B0CC0057FB454A20211820FDF772F908B1FEF70D
:10B0DC0060FE424B1A6802F0F802B02A06D11A68D8
:10B0EC00D20742BF1A6802F04E021A60394B9A6DB1
:10B0FC00012A06D10020986501F0B2FA08B1FEF7DA
:10B10C0048FEFFF7B3FF00285CD12046344900F01D
:10B11C00E1F9344800F05AFC002853D100F04EFB02
:10B12C00FDF7D0F9FFF74CFFF8E7D3F8202502F034
:10B13C00F802A82A0AD1D3F82025D10706D5D3F8CE
:10B14C00202502F05602C3F82025B2E70124B0E70F
:10B15C0043F204031A68244B9A4209D001F0E0FB35
:10B16C00AA69014694B1214801F0CAFE90B9A4E73E
:10B17C006A6B1CB995F86032012BEFD01C484FF468
:10B18C00805101F0BDFE0028E8D196E795F8A13278
:10B19C00012BE8D1114B1B6813F0B10F8DD1AB6DA6
:10B1AC00012B8AD001F068FB60B9124B1870124861
:10B1BC0001F080FA00F024F804E00E4B0F481C70EC
:10B1CC0001F078FA032038BD4FF4A02477E700BFD4
:10B1DC005C5E00202C760020385A00201C050040B4
:10B1EC0019B00F002DB00F00DBE5B151CD78002068
:10B1FC008C780020585E0020D1AF0F00DDAF0F001F
:10B20C0008B5074B4FF0FF32C3F88020C3F88021FC
:10B21C0001F04AF8BDE808404FF4805000F03EB809
:10B22C0000E100E0F0B50646C1F30B0078BBB6F5C3
:10B23C007F2F2CD8174CDFF860C02368002A14BF6E
:10B24C00062702270246072B05D902B123600420EA
:10B25C00F0BD0122F7E71D0105F1804202F5F03245
:10B26C006544C2F80068C2F80418C5F80878D2F82A
:10B27C0000E8764503F10103EBD1D2F804289142A2
:10B28C00E7D1D5F808289742E3D12360E0E70720FF
:10B29C00DEE700BF605E002000E0014030B50546EF
:10B2AC00204889B00022C0F57F21FFF7BBFF01F0D9
:10B2BC0037FB1D4B9969002201441046FFF7B2FF82
:10B2CC00EFF305820023D5E9004183F3148883F35F
:10B2DC00108883F3118883F31388C2F308023AB9F8
:10B2EC0084F308884FF0FF339E46084709B030BD01
:10B2FC004FF0FF35203CCDE90033CDE90233CDE9E9
:10B30C000551049320224FF0807369462046079321
:10B31C0001F0E9FF84F30888AE466FF00603184786
:10B32C00E4E700BF00800F002C76002037B56FF0EB
:10B33C007F42154C057BD4F804358A4228BF0A4657
:10B34C00891A13444A1E942A23F07F4305F5A872E8
:10B35C009BBF963B96314160416044F822300B4BC9
:10B36C004FF4F86043F001039847094BAA001344CB
:10B37C0000221A601B680193019B4FF48033AB4091
:10B38C00C4F8043303B030BD0040024060D70F0056
:10B39C004041024018490A7884B0002A29D14FF064
:10B3AC008043A020D3F81834DB035EBF134B01227B
:10B3BC001A60134A0023136012680392039A114A0D
:10B3CC00136012680292029A0F4A1360126801927B
:10B3DC00019A0E4A82F82403102050600C4A0D4842
:10B3EC00C2F808350123036002201360C2F804037D
:10B3FC000B7004B0704700BF685E0020080000406E
:10B40C0000410240404102404441024000E100E062
:10B41C000040024008400240284B1A6813B542B164
:10B42C0027490A6801320A6000221A601B680093DF
:10B43C00009B244B1A68A2B100221A6022481B6898
:10B44C00027B0193019B4FF4803393401F4AC2F857
:10B45C0008334168044601BB8168D9B9236803B13C
:10B46C0098471B4B1A6832B300221A6016481B68A7
:10B47C00027F0193019B4FF480339340134AC2F82F
:10B48C0008334169044659B1103002B0BDE8104090
:10B49C00FFF74CBFFFF74AFFE0E7FFF747FFE0E796
:10B4AC00816911B11030FFF741FF23691BB102B064
:10B4BC00BDE81040184702B010BD00BF0441024067
:10B4CC00645E002040410240CC5700200040024006
:10B4DC004441024070B50B4B1D682A7B4FF48033FE
:10B4EC009340094A0E46C2F80833044640B1FFF7B0
:10B4FC0051FF2E6021462846BDE87040FFF716BF6D
:10B50C0070BD00BFEC5700200040024070B5074BE7
:10B51C001D6804460E46A860FFF73CFF2E602146CE
:10B52C002846BDE87040FFF701BF00BFF057002070
:10B53C00014B01221A707047695E002038B50F4B21
:10B54C00DA6A5D6A9C6CAC2A10D15B6B1C44ED1AF8
:10B55C000B482A46214601F093FE68B100F02EF903
:10B56C0029462046BDE8384000F080BE002CEFD1C3
:10B57C0001F0ECF90446EBE738BD00BF2C76002057
:10B58C0000800F002DE9F74F06468846A8EB06050C
:10B59C002D0B02F6FF77144600F0EAF8082D28BFB1
:10B5AC0008252B03DFF868B001933F0B0CB9234639
:10B5BC0029E0BD422CBFBA46AA464FF000025146C4
:10B5CC00304634BFDDF80490A14600F037FE034648
:10B5DC00C8B909F1030222F003024146304600F0DB
:10B5EC001FFE034678B9DBF830304B44CBF83030D3
:10B5FC0001F066F8A7EB0A07A4EB09044E44C84413
:10B60C0003460028D2D0184603B0BDE8F08F00BF27
:10B61C002C76002010B501F0A9F9154A42F204036A
:10B62C00916CCC5803F1A34303F5471303F2D753A2
:10B63C009C4218D1D2E90C32934216D0884204D1E4
:10B64C00BDE81040002001F03BB8D21A02F6FF72A0
:10B65C0022F47F6222F00F0219441844FFF792FF84
:10B66C000028EDD010BD0320FCE70020FAE700BF56
:10B67C002C76002070B5264CE36AAA2B37D005D85F
:10B68C00012B0BD0A52B2ED0002070BDAC2BFBD1E9
:10B69C00FFF7C0FF48BBFFF751FF26E0A66C656AB9
:10B6AC0001F03EF9864229D101F03AF900222946EF
:10B6BC00FCF772FFA36A984202BF0123C4E9070397
:10B6CC00A5610025134801F01FF9134B1348002204
:10B6DC001A7000F0F5FF68B975B1236A012B14BF1D
:10B6EC0001200220D1E7FFF795FF0125EAE7FFF7DC
:10B6FC0025FFE6E70320C8E70120C6E7236BEA1A1B
:10B70C00F1181844FFF73EFF0028DAD1CCE700BF50
:10B71C002C76002050760020695E00203DB50F008D
:10B72C000A4AD2F800347BB109480023D2F8081534
:10B73C00D940C90748BF03F5C07103F1010348BFE5
:10B74C0042F82100072BF1D1704700BF00000140E7
:10B75C003546526EFFF7E4BF044B002282B01A60EC
:10B76C001B680193019B02B0704700BF00010140B0
:10B77C0038B50E4C2278BAB90D4BD3F800248AB1E7
:10B78C00D3F80455FFF7CCFF40F61650A842B8BFCB
:10B79C0028460849A0F54860FFF7B8FE064B4FF461
:10B7AC0080321A600123237038BD00BF6A5E00200E
:10B7BC000000014061B70F0000E100E0034BD3F83B
:10B7CC0000340BB1FFF7ACBF704700BF0000014065
:10B7DC00054B1B68082B01BF044B1868B0FA80F0AE
:10B7EC00400918BF002070473001001034010010D0
:10B7FC0008B54FF080430022C3F80C21C3F8102188
:10B80C00C3F838254FF0805203F54043D2F80414A6
:10B81C00C3F82015D2F80814C3F82415D2F80C1468
:10B82C00C3F82815D2F81014C3F82C15D2F8141438
:10B83C00C3F83015D2F81814C3F83415D2F81C1408
:10B84C00C3F84015D2F82014C3F84415D2F82414C8
:10B85C00C3F84815D2F82814C3F84C15D2F82C1498
:10B86C00C3F85015D2F83014C3F85415D2F8341468
:10B87C00C3F86015D2F83814C3F86415D2F83C1428
:10B88C00C3F86815D2F84014C3F86C15D2F84424E8
:10B89C00C3F87025FFF79CFF10B1384B384A1A607B
:10B8AC00FFF796FF18B1374BFB22C3F81825FFF7AB
:10B8BC008FFF48B13449354B0A681B6822F00F02E0
:10B8CC0003F00F0313430B60FFF782FF18B1304BEB
:10B8DC004FF400721A604FF08043D3F80024D20763
:10B8EC0044BF6FF00102C3F800242A4AD2F8883012
:10B8FC0043F47003C2F88830BFF34F8FBFF36F8FE0
:10B90C004FF01023D3F80022002A03DBD3F80432C3
:10B91C00002B2FDA204B0122C3F80425D3F8002486
:10B92C00002AFBD04FF010221221C2F80012D3F8DB
:10B93C000024002AFBD04FF010231222C3F804225B
:10B94C00154B1A46D3F800140029FBD00021C3F87C
:10B95C000415D2F80034002BFBD0BFF34F8F0D49E8
:10B96C000E4BCA6802F4E0621343CB60BFF34F8FF7
:10B97C0000BFFDE70A4B0B4A1A6008BD8C5600400D
:10B98C004881030000F00040E40E00405802001013
:10B99C004096024000ED00E000E001400400FA0592
:10B9AC00F45700200090D003062810B5044602D1AD
:10B9BC00002000F091FF044B1B681BB12046BDE832
:10B9CC001040184710BD00BF6C5E002008B5074B37
:10B9DC0018600020FFF7E8FF054800F065FF20B96C
:10B9EC00BDE80840024800F0EFBD08BD6C5E0020C9
:10B9FC00B5B90F006CDF70476DDF704772DF7047B1
:10BA0C0073DF704774DF704775DF704776DF704700
:10BA1C007ADF70477CDF70477DDF70477FDF7047D0
:10BA2C0086DF70478FDF704790DF7047A8DF704765
:10BA3C00AADF7047ADDF7047AEDF7047B0DF7047ED
:10BA4C00B1DF7047B5DF704762DF704766DF704764
:10BA5C0013DF70477FB50023CDF80B308DF80F3016
:10BA6C000A4BADF806109B89ADF8083001238DF810
:10BA7C000A300DF10603CDE90430054B02A91888F4
:10BA8C00FFF7DAFF07B05DF804FB00BFDA6E0020A9
:10BA9C00FA57002001460148FCF79DBE20D40F0048
:10BAAC0070B518228CB000210DEB020001F044FCA3
:10BABC002823089316231E4CADF806300023CDE93D
:10BACC00033305930223092606222370237159237D
:10BADC000125A27063710322FE230DF10601A0194A
:10BAEC008DF818508DF82D500294ADF80C606570DF
:10BAFC00E270A371FFF790FFB8B9BDF8063026725B
:10BB0C005A19E271BDF80C200A4C134402A906AA7A
:10BB1C002046ADF80C30FFF771FF30B92078FFF7F5
:10BB2C0071FF20782946FFF76BFF0CB070BD00BF8A
:10BB3C00EE6E0020F85700202DE9F0410388232BEE
:10BB4C008AB0044636D80F2B05D8012B00F0F280B2
:10BB5C000AB0BDE8F081103B132BF9D801A252F8C2
:10BB6C0023F000BFF1BB0F000DBC0F005DBB0F003D
:10BB7C00DDBC0F003DBE0F005DBB0F005DBB0F00B9
:10BB8C005DBB0F005DBB0F005DBB0F004BBE0F001C
:10BB9C005DBB0F005DBB0F005DBB0F005DBB0F00FD
:10BBAC000FBD0F005DBB0F001DBD0F005DBB0F0077
:10BBBC00CDBC0F00503B9AB2062AC9D8062BC7D869
:10BBCC0001A252F823F000BF35BC0F004DBD0F0091
:10BBDC004BBE0F005DBB0F005DBB0F008DBC0F009B
:10BBEC002DBD0F00994B82881A80994A12681C4609
:10BBFC000AB10120904797492088FFF705FFA7E776
:10BC0C00924B4FF6FF721A80934B1B685A0704D461
:10BC1C00FFF746FF08B1FEF7BCF88D4B1B68002BF5
:10BC2C0096D00220984793E78C4EE288B3889A42CC
:10BC3C008ED18B48FCF7ABFD0546002888D0228AB4
:10BC4C0004F1120101F04FFB1822002104A801F0AD
:10BC5C0073FB08238DF81030824B0693824B0596AC
:10BC6C00CDE9073504A8238AADF8243000F0A2FCF6
:10BC7C0000283FF46DAF7A482946FCF7ACFD67E726
:10BC8C00E188F6291AD8CB1E9B070DD0CB1F9BB28F
:10BC9C00013B5A4202F0030203F0030301F1FF31AE
:10BCAC0058BF5342C91A89B2684B1888FFF7CAFEAD
:10BCBC0000283FF44DAFFEF76CF849E7F721F3E7A6
:10BCCC00002204A98088CDE90422FFF7ADFEEFE73E
:10BCDC0000235E4CADF812300223ADF810302088F2
:10BCEC0002AB04AA42F605210593FFF7A3FE08B1A7
:10BCFC00FEF74FF8002320881A468521FFF78EFEA9
:10BD0C00D6E7524B00F108011888FFF77DFECFE70C
:10BD1C00002304A98088ADF81030FFF783FEC7E735
:10BD2C00A379002B7FF414AF484B13211888FFF72D
:10BD3C006DFEBDE7454B00211888FFF787FEB7E77E
:10BD4C00A379002B3FF404AF022B7FF401AF4349DE
:10BD5C0020898A8990420E467FF4FAAEA27B012A92
:10BD6C007FF4F6AE00220120CDE904228DF81600F6
:10BD7C00208A364DADF81800608AADF81A0004F12F
:10BD8C0014000790ADF80A20098A28888DF8103025
:10BD9C0001AF02AAADF808300397FFF74BFEA84697
:10BDAC0060B93846FFF708F940B940F2FD1328880E
:10BDBC00ADF8143004A9FFF741FEC9E6002304A92D
:10BDCC00B8F80000ADF81430FFF738FE0146002833
:10BDDC007FF4BEAE182204A801F0AEFA237D214AEE
:10BDEC008DF81030022B0596069218D0062B10D029
:10BDFC00012B10D11D4B1A881D4B1A80637DD4F872
:10BE0C0016200893012B099205D11A4800F064FD05
:10BE1C0001E0637D089304A800F0CCFB98E6A27DBA
:10BE2C00637D43EA0223114A1380114A1380F2E71F
:10BE3C0000231A4619468088FFF7F2FD38E70023E5
:10BE4C00A0881A461946FFF7FBFD31E7FA57002088
:10BE5C00146F002046D90F00106F0020DA6E0020FE
:10BE6C0020D40F00F1BE0F00A1BA0F00186F0020F4
:10BE7C001A6F00200CD40F00154938B50B68024618
:10BE8C0013F0010022D0134882421ED0124A1088AF
:10BE9C004FF6FF72904213D043F004030B60132152
:10BEAC00FFF7B4FD90B90D4DC82445F001054FF4D2
:10BEBC007A40A847013CFAD1BDE83840FDF7A6BC52
:10BECC00074B1878FFF79EFDF6E7002038BD00BF42
:10BEDC00106F00200CD40F00FA57002040D90F002F
:10BEEC00F857002010B5044686B000210D2202A898
:10BEFC00019101F021FA2378082B0BD1364A3749EE
:10BF0C0013880988013B9BB21380D9B1D3B90323A1
:10BF1C0011802370627823788DF805306021012A16
:10BF2C008DF804108DF806200ED00B2A12D100F0DB
:10BF3C0093F98DF80700002000F088F9042101A87E
:10BF4C00FFF788FD06B010BD062B05D0082B29D0B5
:10BF5C00032B27D00321F2E7E1688DF80710D4E911
:10BF6C000123080A8DF80800080C090E8DF80A1038
:10BF7C00110A8DF80B208DF80C10110C120E8DF887
:10BF8C000E201A0A8DF80F308DF810201A0C1B0E8B
:10BF9C008DF80D108DF809008DF811208DF81230E8
:10BFAC000F21CCE7D4E90123110A8DF807208DF875
:10BFBC000810110C120E8DF80A201A0A8DF80B308D
:10BFCC008DF80C201A0C1B0E8DF809108DF80D2015
:10BFDC008DF80E300B21B2E71A6F0020186F00207D
:10BFEC002DE9F043444B95B005464FF6FF721A808D
:10BFFC0001204FF659632A4602A98DF80A00ADF8C4
:10C00C000830FFF713FD0446002871D13B4B04AAFE
:10C01C0003F11007164618685968144603C4083310
:10C02C00BB422246F7D1A91C3046FFF70DFD044652
:10C03C0000285DD101461C220DA801F07DF99DF868
:10C04C003430ADF8044043F004038DF8343002234F
:10C05C00ADF80C30AB788DF80E3004F0F80343F0EB
:10C06C0003038DF80630F423CDE90A44ADF82C30E7
:10C07C002B4601AE33F8040B0C944FF0110903AFAF
:10C08C0008AA0DA9CDE908768DF80590FFF7D0FC2C
:10C09C00A046044660BB01461C220DA801F04CF9D9
:10C0AC009DF83430ADF8044023F0180343F0180326
:10C0BC008DF834300123ADF80C30AB788DF80E30A0
:10C0CC001723CDE90A44ADF82C302B4608F0E808CC
:10C0DC0033F80C0B0C9448F0130808AA0DA9CDE901
:10C0EC0008768DF805908DF80680FFF7A1FC0446C4
:10C0FC00204615B0BDE8F083FA57002024D90F0074
:10C10C0030B5334C236813F0010585B05DD1314B4C
:10C11C0018603148FCF724FB029500F0B8F80028B1
:10C12C004CD12E48FFF794FC002847D1FDF730FB8B
:10C13C00002843D102A8FDF7F9FB00283ED102A943
:10C14C000120FDF7FDFB002838D102A8FDF760FCAB
:10C15C00002833D100F080FB30B1214800F070FB97
:10C16C00236843F002032360112302A88DF80430E6
:10C17C00FFF742FC10BB9DF8093002A801338DF883
:10C18C000930FFF737FCC8B923689B0718D5144949
:10C19C008869043182B201A8FFF73CFC70B91148E0
:10C1AC00FFF736FC50B91048FFF71AFF30B9FFF70C
:10C1BC0077FC18B9236843F00103236005B030BD48
:10C1CC000A4801F0ECF80949E4E70020F6E700BF63
:10C1DC00106F0020146F002020D40F0000800F007F
:10C1EC00705E002046D90F00DA6E00201CD90F00BB
:10C1FC0043690BB1C06818477047000010B405497B
:10C20C00054C0022904218BF214604485DF8044BAF
:10C21C00FCF7FBBA84D40F00B0D40F00B857002041
:10C22C0007B5009313460A4601460348FCF7F1FA9A
:10C23C0003B05DF804FB00BFB857002013460A4654
:10C24C0001460148FCF7ECBAB8570020014B1870B6
:10C25C000B2070471C6F0020024B002218781A70BC
:10C26C00704700BF1C6F002018DF704730B585B0D9
:10C27C00054610220C466846002101F05DF8A40822
:10C28C00684601950294FFF7EFFF05B030BD1FB56E
:10C29C000023CDE901330393684602230093FFF793
:10C2AC00E3FF05B05DF804FB4FF000534FF48052F0
:10C2BC001A60002070470000014B06201B681847CD
:10C2CC00286F00200A2803D90B38C0B2FFF7BEBF75
:10C2DC007047000010B5044686B00020FCF7A8FAA1
:10C2EC00014630B1164A18212046FCF785F806B0F5
:10C2FC0010BD1822684601F01FF80423114A8DF86E
:10C30C000030114B116D1B68994211D10F4B1868FD
:10C31C0000F03CFF8DF80100FFF7D4FFD4E90113C6
:10C32C008DF8010068469847094800F0C9F9DEE726
:10C33C0001238DF801306846D4E901139847D6E7FC
:10C34C00E1C20F002C760020206F0020246F00200B
:10C35C00C5C20F00F0B5044687B01822002168460C
:10C36C0000F0EAFF22788DF8002001238DF80130CF
:10C37C00531E0B2B00F21281DFE813F01D0010008E
:10C38C001D001D0010011D0010011D0010011001E9
:10C39C0010010C00824B07201B689847D4E901134D
:10C3AC00684698479DF80130012B00F0EC807C4BDF
:10C3BC0005201B68E6E0062A7A4901D0012A01D142
:10C3CC0022690A700A78012A04D0022A53D0002369
:10C3DC000B7093E0072BE1D801A252F823F000BFB9
:10C3EC000DC40F00A9C30F0077C40F004BC40F007E
:10C3FC00A9C30F0071C40F00A9C30F0025C40F00FF
:10C40C00674B03201B689847606900F0C7FCFFF777
:10C41C0059FF8DF80100C1E7A18A206900F0D6FC14
:10C42C00FFF750FF604B8DF80100DA6B1B6C029329
:10C43C00E3680192002BB1D020699847AEE75B49C5
:10C44C005B4800F011FDFFF73DFF01288DF801005E
:10C45C00A4D1002000F034F900289FD00A238DF8D5
:10C46C0001309BE74FF4007303934F4BDA6B1B6C5B
:10C47C000192029392E7072B90D801A252F823F075
:10C48C00ADC40F00A9C30F0063C50F006DC50F002D
:10C49C00A9C30F0097C50F00A9C30F000DC50F004E
:10C4AC0000F0B4FC08B90823D9E762690AB9032380
:10C4BC00D5E7C2F30B0333B13B4B3C495B6D0968C9
:10C4CC0013448B42F3D1B2F5805F01D90423C6E744
:10C4DC00354B3649586D096815188D42E3D85A64A6
:10C4EC00DA6C9A6418651863314B1B6800220121C1
:10C4FC001844FFF7A3FE00283FF450AF0523AEE726
:10C50C0000F084FC0028CED0274DA18AD5E9143246
:10C51C009B1A6A6C0B449342C9D8254B2F6B1B6832
:10C52C00206905F148021F44FCF736F8E368A28A3B
:10C53C00216906463846FFF773FE08B1E3687BE7CE
:10C54C00A38A2A6BAE641A442A632A6D029613449A
:10C55C002B65019322E7144B9A6C02921B6DF8E742
:10C56C00114BD3E91402596C821A8A429BD19A6CF2
:10C57C005865002120465964DA64FFF7ABFE084B7E
:10C58C001B680420984707B0F0BD074B9A6C1B6DD5
:10C59C0001934FF4805302920393FFE602235EE76C
:10C5AC00286F0020FC5700202C760020206F0020E4
:10C5BC00246F002083681BB1024A1821FBF71CBFB3
:10C5CC000720704761C30F0038B50546C0B1012084
:10C5DC00FFF714FE044648B900F0D2FB00F016FC3D
:10C5EC0030B9084B00201D60FFF730FE204638BDE7
:10C5FC000549064800F038FC0128F2D00324F5E781
:10C60C000724F3E7286F0020206F0020246F002000
:10C61C002DE9F04115464FF46072064688461F46D8
:10C62C0000F02EFE28B915B90020BDE8F081A8470E
:10C63C00FAE7002201213046FFF700FE70B94FF4F3
:10C64C0060724146384600F04EFE2B464FF4607245
:10C65C0039463046FFF7E4FD0028E5D00320E4E737
:10C66C0070B50C4C054600225821201DFBF794FF99
:10C67C0000222060C32104F51870FBF78DFF2A46B9
:10C68C00C4F85C022146044B0448BDE87040FFF737
:10C69C00BFBF00BF2C7600202C6F002000F00F00D5
:10C6AC0002460248024B0068FFF7B2BF0058002058
:10C6BC00AC7200200149FFF7F3BF00BF00F00F0080
:10C6CC0038B505460020FFF7CBFF044618B90349DF
:10C6DC002846FFF7E5FF204638BD00BF2C7600202A
:10C6EC002DE9F041FFF78AFD0246002872D13D4D3D
:10C6FC002B68013357D05821281DFBF74DFF2C68B0
:10C70C00221A54425441384FDFF8E0803E683368B7
:10C71C00013362D000225821301DFBF73DFF3368F6
:10C72C00834242D17568012D0AD00022C32106F53F
:10C73C001870FBF731FFD6F85C522B1A5D425D4145
:10C74C00ACB3284929484FF4607200F0CCFD65B1B8
:10C75C00396827485422043100F0C5FD3968254852
:10C76C004FF432725C3100F0BEFDD8F80440012C5D
:10C77C002CD12149402201F5E47000F0B4FD1F4991
:10C78C001C2201F5E47000F0AEFD1D4988F8A142B1
:10C79C000023042201F2862088F8603288F8E23205
:10C7AC0000F0A1FD0FE00446ADE70025C8E725B178
:10C7BC0039680E484FF46072D5E70C484FF460723C
:10C7CC00002100F0B9FD0223C8F804300020FFF767
:10C7DC0077FF00B10320BDE8F081002CEDD00025DF
:10C7EC00AFE700BF00F00F00005800202C760020AF
:10C7FC00307600208876002088770020C8770020CB
:10C80C004876002029DF704738B50C4D0446D5F822
:10C81C00643378B101330FD1002218210430FBF7B7
:10C82C00BBFE21462060072205F55970BDE8384053
:10C83C00FFF7E8BF0E2038BD0820FCE700F00F0022
:10C84C0008B528B103491C2200F04DFD002008BD9D
:10C85C000E20FCE764F30F0010B5064C00221821E3
:10C86C002046FBF799FE54F8043C1B1A58425841D9
:10C87C0010BD00BF68F30F0010B50A4CD4F8243378
:10C88C00D4F864231340013309D04FF47F20FDF713
:10C89C00F1F8C92221464FF47F20FDF703F900205F
:10C8AC0010BD00BF2C760020F8B5094E094CA41B16
:10C8BC000746E4080025A54201D10020F8BD56F832
:10C8CC003530384698470028F8D10135F3E700BFDA
:10C8DC000CD40F0014D40F00F8B5094E094CA41B4E
:10C8EC000746E40800250436A54201D10020F8BD16
:10C8FC0056F83530384698470028F8D10135F3E71B
:10C90C000CD40F0014D40F0008B50C22002100F039
:10C91C0013FD024B00221A6308BD00BF2C760020C9
:10C92C0043F204031A68084B9A4201BF43F208030E
:10C93C00186800F6FF7020F47F600CBF20F00F0029
:10C94C004FF48050704700BFDBE5B15108B5FFF7DD
:10C95C00E7FF054B9B69184400F6FF7020F47F60DD
:10C96C0020F00F0008BD00BF2C7600204FF4805043
:10C97C00704700002DE9F74F0193244BDFF894B07A
:10C98C001B6ADFF894900093054616464FF000089A
:10C99C0043F2040AB8F1010F5FFA88F714D0022FA2
:10C9AC001FD0FFF7D3FF6EB1009B013B5C425C4193
:10C9BC00A9EB0000A84200D3F9B1B4B1A8421CD233
:10C9CC0004201FE03446F3E7FFF7AAFF019B33B9BD
:10C9DC00DAF80040B4EB0B0418BF0124E8E7444636
:10C9EC00E6E701244FF48050E2E708F10108B8F1C2
:10C9FC00030FCFD1A842E3D300E017B10448FFF7EF
:10CA0C0083FF002003B0BDE8F08F00BF2C76002020
:10CA1C0044760020DBE5B15100500F0090F8552012
:10CA2C0012F0FB0F07D190F8643023B1836ECBB1B9
:10CA3C000B600120704712F0010303D090F85630C0
:10CA4C0003B1836D9207F2D590F85C20002AEED0EA
:10CA5C00054A006EC2F57E22904201D80344E6E7F7
:10CA6C00042070470F20704700800F0010B5084C51
:10CA7C004FF40072FF21204600F05EFC20220021C2
:10CA8C00A4F1240000F058FC002344F82C3C10BD09
:10CA9C00887600205B68DA680D4B9A4230B508D175
:10CAAC000C490A6812B90C4A14681CB10B4B0022D1
:10CABC001A7030BDD0E90134181913F9015B002D3F
:10CACC00A0EB0304F9DB0B601460044B0122EFE7CD
:10CADC00F8D70F00D4790020D0790020D879002025
:10CAEC0043F2040310B519491C688C4202462BD042
:10CAFC0042F20403C358581A434243418C4218462D
:10CB0C0021D142F20403D358A3421CD14FF4405319
:10CB1C0002F500511B780978142B81BF43F21403E2
:10CB2C000B481B68B3FBF0F398BF0023142989BF93
:10CB3C0042F2140100205058054A88BFB0FBF2F0B5
:10CB4C00181A18BF012010BD0023D7E7DBE5B1513F
:10CB5C0040420F002DE9FF472F49304D8A6B304C76
:10CB6C00304FDFF8D490DFF8D4A06E465C313046FD
:10CB7C00FCF71CFA96E80F0085E80F0000212A4B01
:10CB8C0039704FF447722046C9F80010CAF80010EB
:10CB9C00EB6000F0D1FB254922462846FCF7A1FCAE
:10CBAC0020B90027384604B0BDE8F0873F78002F45
:10CBBC00F7D094F86C3194F800801BB3B8F1000FE7
:10CBCC00EFD194F87231002BEBD0DAF80020D9F8C1
:10CBDC0000103046FCF7EAF996E80F0085E80F00E4
:10CBEC004FF4B272414604F5BA7000F0A5FB10493F
:10CBFC0004F5BA722846FCF774FC0028D1D004F571
:10CC0C00BA7406E0B8F1000FCBD0A379002BC8D0D2
:10CC1C000834084B1C60C5E72C760020F87C0020FB
:10CC2C00DC790020D8790020A1CA0F00ACD80F0005
:10CC3C00F8D70F00B47D0020D4790020D0790020E3
:10CC4C0000B591B0FDF71AF8684608492022FDF7A7
:10CC5C0048F86A46064907484023FCF767FF064B2D
:10CC6C0001221A7011B05DF804FB00BF44D50F000F
:10CC7C00087D0020F4D40F00AC790020F0B5A3B0EF
:10CC8C0007460D4614461E4678222023002104A890
:10CC9C00029300F051FB00230393194B1B780BB943
:10CCAC00FFF7CEFF2DB337BB02AB164F01931649DE
:10CCBC00289B0097324604A8FCF7C6FFE8B9402C25
:10CCCC001BD1124E22462946304600F00CFB202187
:10CCDC003046FDF712F8CDE90064029B0C493A4648
:10CCEC0003A8FCF73FFF00280CBF0120052023B050
:10CCFC00F0BD1320FBE71620F9E70A20F7E700BF89
:10CD0C00AC790020507D002050D90F00707D0020A0
:10CD1C00087D0020F0B5ABB004460D4616461F4604
:10CD2C007822202300210CA8039300F005FB114B63
:10CD3C001B780BB9FFF784FF2FB12146202204A8E2
:10CD4C00FCF7C4FF04AC03AB0B4F01930B490097EA
:10CD5C0033462A460CA8FCF777FF48B92022214617
:10CD6C00384600F08DFAB0FA80F040092BB0F0BDD7
:10CD7C000020FBE7AC790020AD79002050D90F00E2
:10CD8C0008B5044B986B08B1FFF7E4FE024B187022
:10CD9C0008BD00BF2C760020B07D002010B50446E5
:10CDAC0058B1B0F5007F0AD8064B00221A70FFF775
:10CDBC005DFE054B01209C6310BD0320FCE70420A5
:10CDCC00FAE700BFB07D00202C76002070B50E4C29
:10CDDC000646E06BA36B42189A420D4611D85C30A4
:10CDEC000A462044314600F07EFAE36B04F140021F
:10CDFC002B4429463046E363FBF7CEFB206401202D
:10CE0C0070BD0320FCE700BF2C760020014B187886
:10CE1C00704700BFB07D002013B5104C94F86C2106
:10CE2C00B2B194F8D802B4F8DA2204F5377104F5EB
:10CE3C00B8740B4B1B6800930A4B1B68FFF71EFF63
:10CE4C00012809D1201D02B0BDE8104000F0A2B9A4
:10CE5C00114610460434ECE702B010BDDC7900201A
:10CE6C00D0790020D4790020204BD3E90E329A429D
:10CE7C002DE9F04106460D4633D1DFF8788098F85D
:10CE8C0000704FB1FFF762FD194B306029461868EE
:10CE9C00BDE8F041FFF7C2BDFFF75CFE18B3FFF72A
:10CEAC00BBFF0128376004462F6017D1104B294671
:10CEBC001868FFF7B3FD012804460FD103463A4624
:10CECC0028683946FFF756FD38B9FFF73FFD88F85B
:10CEDC00004030602046BDE8F0810424FFF7C6FD19
:10CEEC00F8E70824F6E70524F4E700BF2C760020C9
:10CEFC00B47D0020B07D002001237230FFF70ABF03
:10CF0C0013B50446084623781146032B03D8DFE8F3
:10CF1C0003F021050F18002002B010BD0022D4F838
:10CF2C000140FBF739FB844214BF00200120F3E7DA
:10CF3C000A4600230146601C02B0BDE81040FFF712
:10CF4C00E9BE009103464022611C0020FFF796FECB
:10CF5C000128E9E70120DFE72DE9F041A2B0044602
:10CF6C000D461646002178221F4604A82023039361
:10CF7C009DF8A08000F0E0F941220021204600F04D
:10CF8C00DBF9B5F894300BB195F8968084F80080F5
:10CF9C00B8F1030F1ED8DFE808F00902111F0022B8
:10CFAC0039463046FBF7F8FAC4F801003A463146E8
:10CFBC002046FFF7A5FF22B0BDE8F08103AB01933B
:10CFCC00631C009308493B46324604A8FCF73CFE20
:10CFDC000028EBD00020EEE7B5F8982005F19A0177
:10CFEC00601C00F080F9E1E750D90F002DE9F04703
:10CFFC00604B1D68A4B004460F4690460A46014695
:10D00C002846FFF779FF002800F0AA8095F85560B4
:10D01C001EBB4FF00109CDF800903B462246294635
:10D02C0013A8FFF799FF002866D0B8F1000F54D071
:10D03C004122514813A900F056F9504B6A68C3F8C5
:10D04C002C901E629A60002239462046FBF7A4FA07
:10D05C004A4B0125C3E909707DE04122002102A859
:10D06C0000F06AF906F001094122002113A806F02C
:10D07C00020600F061F9B9F1000F32D042F204035C
:10D08C00E25803F1A34303F5471303F2D7539A4233
:10D09C0032D1D5F858A00AF5FF520AF6FF73C3F344
:10D0AC000B031F32D21A42F20803E358934223D3E4
:10D0BC002046FFF715FD00B1F6B10123009322467F
:10D0CC005346294602A8FFF747FFA8B1AB6DE218FB
:10D0DC00FB1A4EB9B8F1000F10D1284B01255D6138
:10D0EC0044E03B462246F4E70021009113A8294670
:10D0FC00FFF732FF0028EDD1052532E0DFF87C8008
:10D10C00B9F1000F20D02046FFF7EAFC18B108F166
:10D11C001800FFF7F9FB1A48412202A900F0E3F8C6
:10D12C00002E14BFAC23A523C8F82C30AB6DC8F867
:10D13C003430002E87D01348412213A900F0D3F8C5
:10D14C006B68C8F80C307EE7AA23C8F82C30F0E7DF
:10D15C000D48FFF7D9FBFFF789FC084B9C6405E0F1
:10D16C001725B8F1000FF3D1FFF780FC284624B047
:10D17C00BDE8F087B47D0020CD7800202C7600200F
:10D18C008C7800200E790020507600200122FFF7C9
:10D19C002DBF000090F85420F0B50346002A51D062
:10D1AC0090F8550003284DD893F86E20032A47D1E8
:10D1BC001A7A002A46D0DA68342A45D143F204019F
:10D1CC001A8A0C6821498C422AD152B15969E9B1A9
:10D1DC00D2B2002103F1140543F20C06CCB2A242E8
:10D1EC0001D8122011E055F821703488A74201F1C2
:10D1FC000101F3D11A78FAB101285B68144A15D8E9
:10D20C009068834234BF10200120F0BD10B9012A70
:10D21C00E7D8EFE7421E18BF0122002AEAD1E0E767
:10D22C0012B15A69002ADCD11A78F6E7D068834229
:10D23C008CBF01201020E8E7012818BF0F20E4E77D
:10D24C001420E2E70F20E0E71120DEE7DBE5B15127
:10D25C002C76002013681F2B10B5144607D900221A
:10D26C000830FDF7B6FD08B92023236010BD48F245
:10D27C001450FBE70830FDF789BD0830FDF756BDAB
:10D28C007AB370B414460F2A15D902460B4640EAFD
:10D29C00010515F0030F01D0013C0EE019461046B4
:10D2AC000432043306680D68AE4204D110461946A8
:10D2BC00043C042CF2D8013C0ED00A46034604442C
:10D2CC00114618460133013206780D78AE4203D16F
:10D2DC0018461146A342F3D100780B78C01A70BCE3
:10D2EC00704700207047844640EA010313F0030F97
:10D2FC0018D18446202A0BD32DE9F007B1E8F807A2
:10D30C00A0E8F807A2F12002202AF7D2BDE8F00726
:10D31C00042A07D351F8043B40F8043BA2F1040261
:10D32C00042AF7D2002A05D011F8013B00F8013B82
:10D33C00013AF9D1604670478446002A2DD010F08E
:10D34C00030F04D000F8011B013A26D0F7E7C9B24D
:10D35C0041EA012141EA0141202A12D3A2F1200223
:10D36C002DE9F0030B460C460D460E460F4688463B
:10D37C008946A0E8FA03203AFBD2BDE8F00320323C
:10D38C000BD0042A05D340F8041B043A05D0042A18
:10D39C00F9D200F8011B013AFBD16046704700F14D
:10D3AC00010110F0030F11D010F8012B002A23D02B
:10D3BC0010F0030F0AD010F8012B002A1CD010F02B
:10D3CC00030F03D010F8012B002A15D02DE97000A3
:10D3DC004FF001324FF0803350F8044BA4EB0205B0
:10D3EC0025EA04051D4000D1F6E7A0F1040070BC4D
:0ED3FC0010F8012B002AFBD1A0EB01007047B6
:08D40C000DC10F0085BE0F00E9
:0CD414000000000003000000DDAE0F006F
:10D420008C5E0020C86E0020D96E0020945E002023
:04D43000F400000004
:08D4340045BB0F0000000000E1
:08D43C00ED890F000000000063
:08D44400AD8B0F000000000099
:10D44C0029990F0000000000359A0F000000000021
:08D45C00098B0F000000000025
:10D464000000000000000000FDC10F0000100000DB
:04D4740000001000A4
:10D4780000100000040000000100000085880F0073
:10D48800A9880F00B9880F0029890F00C9880F00E3
:10D4980091880F0095880F0099880F0000100000F0
:10D4A8000400000001000000318A0F00118A0F00FB
:10D4B800018A0F00398C0F00ED8B0F00D5890F0002
:10D4C800D9890F00DD890F008F900F0033900F006E
:10D4D8007B950F00ED950F000D960F00798F0F00CB
:10D4E800398F0F000F950F0000000000480028003A
:10D4F80000204000F1A80F0015290D0100000700C9
:10D508003CD40F0044D40F00080000004CD40F0096
:10D518005CD40F000800000044D40F004CD40F0066
:10D528000800000034D40F003CD40F0008000000AD
:10D538005CD40F0064D40F000800000059A6CF6C1B
:10D54800EE403B5EC31A178947060DA19E6F51CC6A
:10D55800DED86A26220DC24E81BECFED51C5452BBD
:10D568009AD5D6E73302BA874A47745ABFB62DCF41
:10D57800FD87EA73E03AC8B70832C6CB000000005E
:10D5880000000000000000000338FDD870470000CC
:10D5980008200001FFFFFFFFFFFFFFFFFFFFFFFF66
:10D5A8000000000000000000000000000100000072
:10D5B800FFFFFFFF512563FCC2CAB9F3849E17A77A
:10D5C800ADFAE6BCFFFFFFFFFFFFFFFF0000000012
:10D5D800FFFFFFFF96C298D84539A1F4A033EB2D81
:10D5E800817D0377F240A463E5E6BCF847422CE16D
:10D5F800F2D1176BF551BF376840B6CBCE5E316BB1
:10D608005733CE2B169E0F7C4AEBE78E9B7F1AFE74
:10D61800E242E34F4B60D2273E3CCE3BF6B053CCC0
:10D62800B0061D65BC86987655BDEBB3E7933AAA5C
:10D63800D835C65A03A20F00B3A30F0055A30F0095
:10D6480029A40F00982F8A4291443771CFFBC0B5A7
:10D65800A5DBB5E95BC25639F111F159A4823F92B5
:10D66800D55E1CAB98AA07D8015B8312BE8531240E
:10D67800C37D0C55745DBE72FEB1DE80A706DC9BCF
:10D6880074F19BC1C1699BE48647BEEFC69DC10F7B
:10D69800CCA10C246F2CE92DAA84744ADCA9B05CB7
:10D6A800DA88F97652513E986DC631A8C82703B07A
:10D6B800C77F59BFF30BE0C64791A7D55163CA0688
:10D6C80067292914850AB72738211B2EFC6D2C4D94
:10D6D800130D385354730A65BB0A6A762EC9C28182
:10D6E800852C7292A1E8BFA24B661AA8708B4BC218
:10D6F800A3516CC719E892D1240699D685350EF442
:10D7080070A06A1016C1A419086C371E4C774827F8
:10D71800B5BCB034B30C1C394AAAD84E4FCA9C5B6E
:10D72800F36F2E68EE828F746F63A5781478C884BF
:10D738000802C78CFAFFBE90EB6C50A4F7A3F9BEA1
:10D74800F27871C6000000000338FDD87047000069
:10D7580000000000000000000338FDD870470000FA
:10D7680001000100000000000100000000000000AE
:10D778000200050001000000420000000000000057
:10D788000000000000000000000000000000000091
:10D79800010011000100FFFF01000000000000006F
:10D7A800020017000200FEFF64010000F8D70F0016
:10D7B8000000000000000000000000000000000061
:10D7C800010001000000000001000000000000004E
:10D7D8000200050001000000220000000000000017
:10D7E8000000000000000000000000000000000031
:10D7F800010011000400FCFF04000000000000000C
:10D80800020011000400FCFF0400000000000000FA
:10D81800030021000400FCFF0400100000000000C9
:10D82800040011000100FFFF0100000000000000DB
:10D83800050011000200FEFF0400000000000000C7
:10D84800060011000400FCFF0400000000000000B6
:10D85800070011000400FCFF0400000000000000A5
:10D86800080017000200FEFF24000000C8D70F00C0
:10D87800090010000100FFFF01000000A8D80F00F8
:10D888000A0027000200FEFF4400030068D70F00CB
:10D898000000000000000000000000000000000080
:10D8A80000000000010017000400FCFF68010000F0
:10D8B80098D70F00020017000400FCFFAC0100001D
:10D8C800DCD80F000000000000000000000000008D
:10D8D80000000000010007000000000068010000CF
:10D8E80098D70F00020001000000000001000000AE
:10D8F80000000000030005000100000042000000D5
:10D90800000000000000000000000000000000000F
:10D9180000000000446675546172670050EADA300E
:10D928008883B89F604F15F30000C98E000000007F
:10D9380000000000000000000338FDD870470C000C
:10D948000C0000005802000087D20F0081D20F009F
:10D9580061D20F00200000007800000000000000E5
:10D9680000000000000000000000000000000000AF
:10D97800000000000000000000000000010000009E
:10D98800CC570020DC5700200090D003FF00FFFF99
:08D998000100000000E00F0097
:04000003F000835D29
:00000001FF
