:020000022000DC
:106000000000042059630200B9630200BB63020070
:10601000BD630200BF630200C16302000000000014
:10602000000000000000000000000000C363020048
:10603000C563020000000000C7630200C9630200DC
:10604000B5CB0200CB630200C1D80200BDF802004C
:1060500001E90200CB630200D9D50200D1FC0200A5
:10606000CB630200CB630200CB630200CB63020070
:10607000CB630200CB630200CB630200CB63020060
:10608000690D03000D6F0200CB630200CB630200B9
:106090004D6F0200CB6302002DB40300CB630200FE
:1060A000CB630200CB630200CB630200CB63020030
:1060B000CB6302001907030000000000000000008D
:1060C000CB630200CB630200CB630200D5F8020071
:1060D000C9ED0200CB630200CB630200CB63020078
:1060E000CB630200CB630200CB6302000000000020
:1060F00000000000CB63020000000000CB63020040
:10610000000000000000000000000000000000008F
:10611000000000000000000000000000000000007F
:10612000000000000000000000000000000000006F
:10613000000000000000000000000000000000005F
:10614000000000000000000000000000000000004F
:10615000000000000000000000000000000000003F
:10616000000000000000000000000000000000002F
:10617000000000000000000000000000000000001F
:10618000000000000000000000000000000000000F
:1061900000000000000000000000000000000000FF
:1061A00000000000000000000000000000000000EF
:1061B00000000000000000000000000000000000DF
:1061C00000000000000000000000000000000000CF
:1061D00000000000000000000000000000000000BF
:1061E00000000000000000000000000000000000AF
:1061F000000000000000000000000000000000009F
:10620000344935480A1A02D0072291438D46334952
:1062100033480A1A06D00722914381F309880222E3
:1062200082F314882F483049304A00F041F8304852
:106230003049314A00F03CF830483149314A00F0E9
:1062400037F831483149324A00F032F831483249A2
:10625000324A00F02DF832483249334A00F028F82B
:1062600032483349334A00F023F833483349002297
:1062700000F029F832483349002200F024F832486F
:106280003249091A21F08AF8314A90471F482049BB
:10629000884205D00268043003B4904703BCF7E796
:1062A00000208646EC46002000212A4A9047FEE75F
:1062B000884207D0521A05D0037801300B700131A3
:1062C000013AF9D17047884202D002700130FAE7F2
:1062D000704700000000042000E0032000000420BC
:1062E00000000420407C050014580020A85800201D
:1062F000D0630200D063020004740400407C0500F7
:106300001458002014580020BC740400BC7404000D
:10631000BC740400BC740400BC740400BC740400AD
:10632000BC740400BC7404003D7C0500D47C0500F2
:10633000A8580020A8580020A858002038B10120F3
:1063400038B1012038B1012038B1012038D1012005
:10635000816302000D2C03001048804710484FF065
:106360000701884385460F4880470F48016841F47C
:1063700070010160BFF34F8FBFF36F8FFFF740BF16
:106380000A480B490B4A884207D0521A05D00378B5
:1063900001300B700131013AF9D17047CD63020031
:1063A00000000420F5BE020088ED00E0A87404009F
:1063B0000058002014580020FEE7FEE7FEE7FEE745
:1063C000FEE7FEE7FEE7FEE7FEE7FEE7704700BFF9
:1063D00086B003900291019201238DF817309DF849
:1063E0001730214A039B13601F4A029B53601E4AC9
:1063F000019B9360039B44F20102934213D0039BE1
:1064000044F20202934221D1019B174AD360164BFA
:10641000DB681B881A46144B9A61134BDB685B6878
:10642000114AD36112E0019B0F4A13610E4B1B69A5
:106430009B680D4A53610C4B1B691B680A4A9361A8
:10644000094B1B695B68084AD36100BF72B600BF85
:1064500000BF9DF81730DBB2002BFAD162B600BF47
:1064600000BF06B0704700BFA858002000B583B039
:1064700002900091019244F2010071466A4600F0D8
:1064800003F803B000BD00BF00B587B003900291D0
:10649000019272B600BF039B44F20202934217D0EE
:1064A000039B44F20202934218D8039B44F2010278
:1064B000934210D0039B44F2010293420ED8039BF7
:1064C000012B0DD0039B41F2010293420AD005E05B
:1064D000019B059307E0019B049304E000BF02E0E9
:1064E00000BF00E000BF084B1B6803F00103002B56
:1064F00000D000BE019A02990398FFF769FF00BF20
:1065000007B05DF804FB00BFF0ED00E082B0034689
:106510008DF807309DF8073003F01F0205499DF9FB
:1065200007305B09012000FA02F241F8232000BF86
:1065300002B0704700E100E082B003468DF80730FA
:106540009DF8073003F01F0206499DF907305B09EB
:10655000012000FA02F2203341F8232000BF02B0EC
:10656000704700BF00E100E082B003468DF80730BD
:106570009DF8073003F01F0206499DF907305B09BB
:10658000012000FA02F2403341F8232000BF02B09C
:10659000704700BF00E100E082B003468DF807308D
:1065A0009DF8073003F01F0206499DF907305B098B
:1065B000012000FA02F2603341F8232000BF02B04C
:1065C000704700BF00E100E082B0034600918DF803
:1065D00007309DF90730002B0CDA009BDAB20C492A
:1065E0009DF8073003F00F03043B5201D2B20B4475
:1065F0001A7609E0009BDAB206499DF9073052018C
:10660000D2B20B4483F8002300BF02B0704700BF32
:1066100000ED00E000E100E000B585B00190019BD5
:10662000002B0AD0074B43F001030393019B9B010E
:106630000293039B0298984700E000BF05B05DF805
:1066400004FB00BFC074040000B583B00190064A8B
:10665000019BC2F8083507211120FFF7B5FF00BFE5
:1066600003B05DF804FB00BF0010014008B50D4BFE
:106670004FF48032C3F844230A4B4FF48032C3F8FE
:1066800004231120FFF788FF1120FFF73FFF054B80
:1066900001221A602F20FFF7BFFF034B01221A705F
:1066A00000BF08BD00100140165A002008B5112097
:1066B000FFF742FF0E4B4FF48032C3F848230C4BD8
:1066C0004FF48032C3F80823094B01225A602F206F
:1066D000FFF7A2FF064B01229A60064B00221A60C8
:1066E0002F20FFF799FF044B00221A7000BF08BD4E
:1066F00000100140085A0020165A0020024BD3F81F
:1067000004351846704700BF0010014082B0019068
:106710000091019A009BD31A23F07F43184602B0E0
:106720007047000082B00190034A019BC2F84035D7
:1067300000BF02B0704700BF0010014086B001905A
:10674000284B1B68002B03D1264A019B136045E0B0
:10675000019B1A68234B1B681B689A4210D8214B77
:106760001B681968019B1A681E4B1B688A1A1A60FD
:106770001C4B1A68019BDA611A4A019B13602DE0D9
:10678000019B1B680393174B1B680593154B1B68F4
:10679000049309E0049B1B68039AD31A0393049B98
:1067A0000593049BDB690493049B002B04D0049B9A
:1067B0001B68039A9A42EDD8049B002B05D0049BDA
:1067C0001A68039BD21A049B1A60019B039A1A60F1
:1067D000019B049ADA61059B019ADA6100BF06B059
:1067E000704700BF045A002000B587B001902A4BC3
:1067F0001B680393284B1B680593059B049308E0D3
:10680000049A019B9A4208D0049B0593049BDB6980
:106810000493049B002BF3D100E000BF049B002BEA
:1068200001D1002333E0059A049B9A4214D11A4BFC
:106830001B68DB69184A1360174B1B68002B0BD1D0
:10684000164B01229A60164B00221A60154B01224A
:106850001A702F20FFF7E0FE049B1B680293049B35
:10686000DA69059BDA61059BDB690493049B002BC5
:1068700005D0049B1A68029B1A44049B1A60064BBD
:106880001B68039A9A4214BF01230023DBB2184607
:1068900007B05DF804FB00BF045A0020001001405F
:1068A000085A0020175A002008B51120FFF75CFE97
:1068B00000BF08BD08B51420FFF756FE00BF08BD95
:1068C00000B583B00190019B5B69019A9269104603
:1068D000984700BF03B05DF804FB000000B585B029
:1068E0002B4B1B68002B4ED000230193FFF706FFB4
:1068F0000246284B1B6819461046FFF707FF029017
:10690000234B1B6803931DE0039B1B68029A9A426A
:106910001CD3039B1B68029AD31A0293039B1B6828
:10692000019A13440193039B0093039BDB69039338
:10693000009B1B7C002B05D0009B00221A74009842
:10694000FFF7BEFF039B002BDED100E000BF124B20
:106950001A78124B1B789A420CD1104B1B780133DA
:10696000DAB20E4B1A700D4B1B78022B02D10B4B77
:1069700000221A70094B1B781946094A019B42F8FC
:106980002130FFF797FF00BF05B05DF804FB00BFA3
:10699000045A0020085A0020145A0020155A0020DA
:1069A0000C5A002082B00190184B1A78184B1B78B3
:1069B0009A4223D0154B1B780133DAB2134B1A706D
:1069C000124B1B78022B02D1104B00221A700F4B76
:1069D0001B781A460F4B53F82220019B1A60019B2B
:1069E0001A680D4B1B6813440B4A13600A4B1B6853
:1069F00023F07F43084A1360012303E0019B002238
:106A00001A600023184602B0704700BF145A0020D5
:106A1000155A00200C5A0020085A002088B0039014
:106A2000029101920023079338E0204B1B680693E4
:106A3000069B1B68039A9A4206D2069B1A68039B20
:106A4000D21A069B1A602EE0069B1B68039AD31A83
:106A50000393069B1B68079A13440793069B002227
:106A60001A60124B1B680593069BDB690F4A136083
:106A7000069BDB68002B11D0029A079B134423F07E
:106A80007F42069B5A60069BDA68069B9A60019BD0
:106A90001A68069BDA61019B059A1A60034B1B6812
:106AA000002BC2D100BF00BF08B07047045A0020BD
:106AB00000B589B0019000238DF81F30664B1B682C
:106AC0000593AAE0019B002B05D0019B0693069B32
:106AD000DB69019361E0614B1B781A4613465B004A
:106AE0001344DB005D4A1344043304935B4B1B786F
:106AF0000133DAB2594B1A70584B1A78574B9B78BE
:106B00009A4202D1554B00221A70049B5B6806938F
:106B1000049B1B78032B1ED0032B7EDC012B1FD084
:106B2000022B7AD1049B5B681846FFF75DFE034693
:106B3000002B02D001238DF81F30069B00221A740F
:106B40006BE0454B1B680393039B00221A74039B65
:106B5000DB69414A1360404B1B68002BF1D15CE0BC
:106B600000BF069B1B7C002B00D056E0049B9A685C
:106B7000069B5A60049BDA68069B9A60049B1A691C
:106B8000069BDA60049B5A69069B9A61344B1B781A
:106B9000002B02D0069B00225A60069B5A68314B9C
:106BA0001B68D31A23F07F432F4A93420ED8069BCB
:106BB0005B682C4A126811461846FFF7A7FD02468B
:106BC000069B9B681A44069B1A6017E0254B1A68BF
:106BD000069B5B6819461046FFF798FD0290069BDE
:106BE0009B68029A9A4206D2069B9A68029BD21A26
:106BF000069B1A6002E0069B00221A60069B002298
:106C00005A60069B00229A60069B01221A74069B1A
:106C10000022DA610698FFF791FD019B002B7FF4BB
:106C200051AF0E4B1A780D4B5B789A427FF44AAF06
:106C30009DF81F30002B04D1074B1B68059A9A4220
:106C400001D0012300E0002303F00103DBB218466A
:106C500009B05DF804FB00BF045A0020C8580020AA
:106C6000175A0020085A0020FEFF7F0010B588B098
:106C70000190274B1B68002B44D0254B1B681B68D9
:106C80000793FFF73BFD0690224B1B680593059980
:106C90000698FFF73BFD0346033304931E4B1B7816
:106CA00083F00103DBB2002B01D0FFF7DFFC049A75
:106CB000079B934238BF1346059A13440593059BDF
:106CC00023F07F4305930598FFF72CFDFFF716FD92
:106CD000039006990398FFF719FD0346DC1C0699FB
:106CE0000598FFF713FD03469C420DD9FFF706FDFB
:106CF00003461846FFF716FD2F20FFF78DFCFFF720
:106D0000D3FD01E0FFF7D2FC00BF08B010BD00BF0B
:106D1000045A0020085A0020165A002000B587B0F7
:106D20000023019300238DF81730194B1B6804933F
:106D3000184B1B6803936B461846FFF733FE034658
:106D40008DF80B309DF80B30002B08D0009B01AA6A
:106D500004991846FFF762FE01238DF81730019B56
:106D60001846FFF7A5FE0346002B02D001238DF83D
:106D700017309DF81730002B02D00398FFF776FFED
:106D8000054B00221A7000BF07B05DF804FB00BF7E
:106D9000085A0020045A0020175A002082B00346E7
:106DA0008DF80730034A9DF80730537000BF02B0DA
:106DB000704700BFC858002084B00190144B5B7826
:106DC00001338DF80F30124B9B789DF80F209A42BB
:106DD00002D100238DF80F300D4B1B789DF80F204A
:106DE0009A4201D100230FE0019B9DF80F201A70F9
:106DF000074B5B781A4613465B001344DB00044ADA
:106E0000134404330293029B184604B0704700BF3A
:106E1000C858002000B589B00390029101920093F8
:106E20000023079300238DF816300DF11603184642
:106E300000F0BEF90DF117031846FFF7BDFF0690ED
:106E4000069B002B02D10423079318E0069B012226
:106E50001A70069B039A5A60FFF750FC0246069B85
:106E60009A60069B029ADA60069B019A1A61069B59
:106E7000009A5A619DF817301846FFF78FFF9DF86A
:106E80001630184600F0AAF9079B002B01D1FFF736
:106E900011FD079B184609B05DF804FB00B587B0EB
:106EA00001900B468DF803300023059300238DF8E5
:106EB0000E300DF10E03184600F07AF90DF10F03B4
:106EC0001846FFF779FF0490049B002B02D104239E
:106ED00005930BE0049B9DF803201A70049B019A14
:106EE0005A609DF80F301846FFF758FF9DF80E3096
:106EF000184600F073F9059B002B01D1FFF7DAFC6F
:106F0000059B184607B05DF804FB000008B50E4B62
:106F10000022C3F840210C4B0022C3F844210A4B45
:106F20000022C3F84821084B0022C3F84C21064B2D
:106F30000022C3F80021044B0022C3F80421FFF70C
:106F4000CDFC00BF08BD00BF0010014008B5FFF731
:106F5000E5FE00BF08BD000008B5FFF7A7FB134B17
:106F600000221A70114B00225A70104B0D229A7099
:106F70000F4B00221A600F4B00221A700E4B00229A
:106F80001A701420FFF708FB07211420FFF71CFBE1
:106F90001420FFF7BBFA0020FFF756FBFFF7AEFB0C
:106FA0000346064A13600023184608BDC85800204F
:106FB000045A0020145A0020155A0020085A0020B4
:106FC00086B003900B4601928DF80B30134B9B78E3
:106FD000002B01D108231EE0019B002B01D10723C8
:106FE00019E0039B002B01D1072314E0039B1B68CE
:106FF0001B7C002B01D008230DE0039B1B6805932D
:10700000059B00221A74059B9DF80B205A74059B62
:10701000019A5A610023184606B07047C8580020EC
:1070200000B587B0039002910192039B0593144B26
:107030009B78002B01D108231EE0039B002B01D17C
:10704000082319E0029B042B01D8072314E0059BB9
:107050005B69002B01D108230EE0059B5B7C012BB3
:1070600001D1029B00E000230493019B049A029942
:107070000598FFF7CFFE0346184607B05DF804FBFE
:10708000C858002000B585B00190019B03930D4BBB
:107090009B78002B01D1082310E0019B002B03D02B
:1070A000039B5B69002B01D1082307E0039B0022AF
:1070B0001A7402210398FFF7F1FE0346184605B043
:1070C0005DF804FBC858002082B0EFF310830093F2
:1070D000009B019372B600BF019B184602B0704737
:1070E00062B600BF00BF704700B585B00190FFF7E2
:1070F000EBFF0390164B9B68002B1BD1144B012216
:107100009A60144BD3F88020134B1340104A13603D
:10711000104B114AC3F880200E4BD3F884300C4A30
:1071200053600C4B4FF0FF32C3F88420019B0022C8
:107130001A7002E0019B01221A70039B002B01D1FF
:10714000FFF7CEFF0023184605B05DF804FB00BF33
:10715000185A002000E100E0FC06FFBD00B585B034
:1071600003468DF80730104B9B68002B16D09DF816
:107170000730002B12D1FFF7A7FF03900B4A0A4BF1
:107180001B681360094A084B5B685360064B00227A
:107190009A60039B002B01D1FFF7A2FF0023184642
:1071A00005B05DF804FB00BF185A002000E100E0C4
:1071B00000B583B0019000F02BF80346012B03D0FB
:1071C000054943200AF04AFB0198FFF78DFF00BFF5
:1071D00003B05DF804FB00BFC874040000B583B0C1
:1071E00003468DF8073000F013F80346012B03D057
:1071F000064951200AF032FB9DF807301846FFF788
:10720000ADFF00BF03B05DF804FB00BFC87404000D
:1072100084B0EFF305830193019BC3F30803039349
:10722000039B002B0DD1EFF314830093009B02937B
:10723000029B03F00103002B0CBF01230023DBB2F0
:1072400000E00123184604B0704786B00190009119
:10725000019B53E8011F8AB2D8890244988982426F
:1072600028BF121A1889824202BFBFF32F8F002352
:1072700007E0C2EA010243E801200028E9D14FF00B
:1072800001038DF80F30059002910492029A009B41
:107290001A609DF80F30DBB2184606B0704784B014
:1072A0000190019951E8013FC3EA034341E80132EB
:1072B000002AF7D10392029300BF04B0704786B052
:1072C00001900091019B53E8021F1FFAA1F2D88898
:1072D000824202BFBFF32F8F00230DE0D889024402
:1072E0009889824228BF121AC1EA024243E802206A
:1072F0000028E8D14FF001038DF80F30059002917E
:107300000492029A009B1A609DF80F30DBB2184677
:1073100006B0704784B00190019951E8023FC3EA7A
:10732000234341E80232002AF7D10392029300BFBF
:1073300004B0704786B00190019B53E8021FDA88C1
:10734000B1EB314F4FF0000017BF89B242EA024261
:1073500041EA024204E05968B1EB314F08BF012015
:1073600043E802210029E8D18DF80F00059104922D
:107370009DF80F30DBB2184606B0704784B003901A
:10738000029111461A460B46ADF806301346ADF889
:107390000430029B002B01D10E231FE0BDF8063004
:1073A000BDF80420B3FBF2F101FB02F29B1A9BB281
:1073B000002B01D0092311E0039B029A1A60039B62
:1073C00000225A60039B00229A60039BBDF80620AE
:1073D0009A81039BBDF80420DA810023184604B08B
:1073E000704700B585B001900198FFF7A3FF0346F1
:1073F0008DF80F309DF80F30002B01D0002300E0F6
:107400001123184605B05DF804FB00B585B0019066
:107410000091009B19460198FFF717FF0346002BC8
:1074200007D0019B1B68009A128813440393039BA7
:1074300000E00023184605B05DF804FB00B583B0FA
:1074400001900091009B1A88009B5B889A4204D1AE
:107450000198FFF724FF012300E00023184603B042
:107460005DF804FB00B585B001900091009B1946C2
:107470000198FFF724FF0346002B07D0019B1B68F0
:10748000009A528813440393039B00E0002318469C
:1074900005B05DF804FB00B583B001900091009B3E
:1074A0001A88009B5B889A4204D10198FFF732FF4B
:1074B000012300E00023184603B05DF804FB00B58B
:1074C00085B001900091009B5B099B00019A1A44D2
:1074D000009B03F01F03012101FA03F31946104634
:1074E00000F0D8F8039000BF05B05DF804FB00B5CC
:1074F00083B001900091009B5B099B00019A1A44A4
:10750000009B03F01F03012101FA03F31946104603
:1075100000F0A8F80246009B03F01F0322FA03F3D1
:1075200003F00103002B14BF01230023DBB2184634
:1075300003B05DF804FB00B585B001900091009B9D
:107540005B099B00019A1A44009B03F01F03012171
:1075500001FA03F3DB431946104600F0B3F8039039
:1075600000BF05B05DF804FB82B001900091009B64
:107570005B099B00019A13441A68009B03F01F03E8
:1075800022FA03F303F00103002B14BF01230023AD
:10759000DBB2184602B0704700B58BB00190009185
:1075A000002309933BE0099B9B00019A13441B684D
:1075B000DB430693069B93FAA3F30593059BB3FA6B
:1075C00083F3089323E0099B5B01089A1344079314
:1075D000079A009B9A421ED207990198FFF787FFEE
:1075E000034683F00103DBB2002B01D0079B1EE0B2
:1075F000099B9B00019A13441B68DB430493049B83
:1076000093FAA3F30393039BB3FA83F30893089BC2
:107610001F2BD8D900E000BF099B01330993009BC1
:10762000013B5B090133099A9A42BCD3009B18467F
:107630000BB05DF804FB10B487B001900091019B82
:10764000009A53E8004F104643E8000191F0000F04
:10765000F7D1059404900391059B184607B05DF897
:10766000044B704710B487B001900091019B009AC1
:1076700053E8004F44EA020043E8000191F0000F94
:10768000F6D1059404900391059B184607B05DF868
:10769000044B704710B487B001900091019B009A91
:1076A00053E8004F44EA020043E8000191F0000F64
:1076B000F6D1059404900391049B184607B05DF839
:1076C000044B704710B487B001900091019B009A61
:1076D00053E8004F04EA020043E8000191F0000F74
:1076E000F6D1059404900391049B184607B05DF809
:1076F000044B704710B487B001900091019B009A31
:1077000053E8004F04EB020043E8000191F0000F42
:10771000F6D1059404900391059B184607B05DF8D7
:10772000044B704710B487B001900091019B009A00
:1077300053E8004F04EB020043E8000191F0000F12
:10774000F6D1059404900391049B184607B05DF8A8
:10775000044B704710B487B001900091019B009AD0
:1077600053E8004FA4EB020043E8000191F0000F42
:10777000F6D1059404900391049B184607B05DF878
:10778000044B704700B583B0019001210198FFF7C9
:1077900069FF0346184603B05DF804FB82B0034658
:1077A0008DF807309DF8073003F01F0206499DF958
:1077B00007305B09012000FA02F2603341F8232010
:1077C00000BF02B0704700BF00E100E0BFF34F8F81
:1077D00000BF074BDB6803F4E0620549054B134328
:1077E000CB60BFF34F8F00BF00BF00BFFCE700BFFF
:1077F00000ED00E00400FA0500B583B00190019BA4
:10780000002B03D10449C4200AF028F8019B5B68CF
:10781000184603B05DF804FB4875040000B583B05A
:107820000190019B002B03D1064972200AF016F843
:10783000019B00221A60BFF35F8F00BF00BF03B03F
:107840005DF804FB9C75040000B585B00190019BB8
:10785000002B03D10A4985200AF000F80121019884
:10786000FFF7E9FE0390BFF35F8F00BF039B002B80
:107870000CBF01230023DBB2184605B05DF804FB02
:107880009C75040000B583B00190019B002B03D1CF
:107890000A49922009F0E2FF019B1B68012B03D0EB
:1078A0000649932009F0DAFFBFF35F8F00BF019B09
:1078B00000221A6000BF03B05DF804FB9C75040051
:1078C00033DF704700BF184641DF704700BF1846DE
:1078D0004FF080430122C3F80025BFF34F8F00BF54
:1078E00020BF00BFFCE7000000B585B000238DF885
:1078F00003300DF103031846FFF75AFCF1EE103A7E
:107900000193019B0393039B23F09F030293029B2C
:10791000E1EE103A00BFBFF35F8F00BF2620FFF7F4
:107920003DFF9DF803301846FFF758FC039B03F01A
:107930000703002B03D004497D2009F08FFF00BF0F
:1079400005B05DF804FB00BFD475040008B5044B16
:107950001B78002B02D0042000F0AEF800BF08BD59
:107960002C5A002000B583B00190FFF7EFFF00BF55
:1079700003B05DF804FB000000B583B00B4A0121A1
:107980000B48FFF71DFB0190019B002B01D0019BD1
:1079900007E0084B00224FF400411846FFF740FB78
:1079A0000346184603B05DF804FB00BF657902008A
:1079B00060760400385A002008B5074B00221A7080
:1079C0000648FFF72BFF0649064800F0B1F8FFF71D
:1079D000D3FF0346184608BD2C5A0020285A002021
:1079E00054760400305A002000B583B0FFF77CFFC6
:1079F00013F0EEFC0346002B0ED0FFF765FF01905D
:107A0000019B002B0ED0019B022B0BD007494FF49A
:107A1000B07009F023FF05E020BF00BF40BF00BFEA
:107A200020BF00BF00BF03B05DF804FBD4750400A5
:107A300000B583B00FE01D48FFF7DEFE0090009B0D
:107A40001B681B4A1278104698470346002B29D022
:107A5000164800F097F81548FFF7CEFE0346002BB6
:107A6000E9D1134B1B78032B03D0114B1B78022B4E
:107A700002D1FFF7ABFE16E013F0AAFC0346002B81
:107A80000DD0FFF71DFF0190019B002B07D0019B3C
:107A9000022B04D007494FF4D17009F0DFFEFFF745
:107AA00017FF00E000BF03B05DF804FB305A002070
:107AB000245A0020D475040000B583B003468DF825
:107AC00007301748FFF7C0FE034683F00103DBB21F
:107AD000002B21D19DF80730042B0ED0114B1B78C1
:107AE000002B03D00E48FFF7CDFE16E00E4A9DF89E
:107AF000073013700B4B01221A700A4B1B78002BB6
:107B000004D10A4940F2CB1009F0A8FEFFF790FF1C
:107B10000348FFF7B7FE00E000BF03B05DF804FBC9
:107B2000285A00202C5A0020245A0020D475040022
:107B300000B583B001900091019B002B03D1104947
:107B4000502009F08BFE009B002B03D10C495120E3
:107B500009F084FE019B009A1A60019B1B681A6859
:107B6000019B5A60019B5A68019B1B685B689A42A3
:107B700002D1019B00225A6000BF03B05DF804FBF4
:107B80006476040000B583B00190019B002B03D103
:107B90001449632009F062FE019B1B68002B03D18E
:107BA0001049642009F05AFE019B5B68002B14D039
:107BB000019B5B681A46019B1B689B6813441A462D
:107BC000019B5A60019B5A68019B1B685B689A4243
:107BD00004D1019B00225A6000E000BF03B05DF8B1
:107BE00004FB00BF6476040000BF704708B501E0E5
:107BF000FFF7FAFF01F06EFF0346002BF8D100BF3C
:107C000000BF08BD00B58FB00190019B5A78474B6B
:107C10001A70474B1B680D930D9B9B690C93019B3E
:107C20001B78022B4DD0022B6ADC002B02D0012BDB
:107C300028D065E001F064FF03461A680C9B1A60C7
:107C40000C9B4FF400725A60394B1B689B699B6810
:107C5000002B60D000238DF82030019B5B78002B37
:107C600014BF01230023DBB28DF8213000230993D8
:107C70000C9B9B690A930C9B9B680D9A08A9104664
:107C8000984748E02A4B1B689B699B68002B44D0AF
:107C900002238DF81430019B5B78002B14BF012365
:107CA0000023DBB28DF815300C9B0C3306930C9B34
:107CB0009B6907930C9B9B680D9A05A910469847F2
:107CC0002BE01B4B1B689B699B68002B27D0032371
:107CD0008DF80830019B5B78002B14BF0123002333
:107CE000DBB28DF809300C9B0C3303930C9B9B6922
:107CF00004930C9B9B680D9A02A9104698470EE0CE
:107D000003230B930B9B002B0BD00A4A81210B986A
:107D1000FEF7ACFB05E000BF04E000BF02E000BFDF
:107D200000E000BF0FB05DF804FB00BF585A002010
:107D30005C5A0020F876040000B58BB003900291E5
:107D40000192039B002B03D12B498B2009F086FD68
:107D5000039B0893089B9B690793089B1B69B3F5DA
:107D6000007F01D0062343E0244B1B68002B01D089
:107D700011233DE0079B019A9A61079B029A9A6042
:107D80001E4A089B136000230993089B14331C4967
:107D9000184601F0BFFD0990099B002B0DD1029BF5
:107DA000002B0AD1FFF722FF164B1B78DBB2002B0A
:107DB00001D1002300E00D230993099B002B16D06D
:107DC0000E4B00221A60029B002B10D000238DF86E
:107DD000103001238DF8113000230593079B9B6918
:107DE0000693079B9B6804AA114603989847099B32
:107DF00018460BB05DF804FBF87604005C5A0020CE
:107E0000057C0200585A002000B589B00190019B02
:107E1000002B03D11F49C32009F020FD019B0793CC
:107E2000079B9B6906931C4B1B68079A9A4201D0DB
:107E300011232AE001F04EFE0346002B01D011234E
:107E400023E001F01DFE0590059B002B02D1124B93
:107E500000221A60069B9B68002B15D001238DF829
:107E60000830059B002B14BF01230023DBB28DF8E3
:107E7000093000230393069B9B690493069B9B6830
:107E800002AA114601989847059B184609B05DF86B
:107E900004FB00BFF87604005C5A002000B589B0EE
:107EA00001900091019B002B03D13049EF2009F094
:107EB000D5FC009B002B03D12C49F02009F0CEFC0F
:107EC000019B0693069B9B69059300230793284B10
:107ED0001B68069A9A4201D0112343E001F0FAFD93
:107EE0000346002B01D011233CE0059B009A0C3384
:107EF00007CA83E80700009B9868009B1968009BED
:107F00005B689BB21A4601F00DFC0790079B002BA3
:107F10000ED1059B9B68002B0AD1FFF767FE154B1E
:107F20001B78DBB2002B01D1002300E00D23079367
:107F3000059B9B68002B14D0079B002B11D00223BC
:107F40008DF8083001238DF80930059B0C3303931D
:107F5000059B9B690493059B9B6802AA11460198A7
:107F60009847079B184609B05DF804FBF8760400B3
:107F70005C5A0020585A002000B589B00190009149
:107F8000019B002B04D1314940F2211009F066FC1D
:107F9000009B002B04D12D494FF4917009F05EFC39
:107FA000019B0693069B9B69059300230793284B2F
:107FB0001B68069A9A4201D0112343E001F08AFD22
:107FC0000346002B01D011233CE0059B009A0C33A3
:107FD00007CA83E80700009B9868009B1968009B0C
:107FE0005B689BB21A4601F009FC0790079B002BC7
:107FF0000ED1059B9B68002B0AD1FFF7F7FD154BAF
:108000001B78DBB2002B01D1002300E00D23079386
:10801000059B9B68002B14D0079B002B11D00223DB
:108020008DF8083001238DF80930059B0C3303933C
:10803000059B9B690493059B9B6802AA11460198C6
:108040009847079B184609B05DF804FBF8760400D2
:108050005C5A0020585A002088B003900B460192C9
:108060008DF80B30039B07939DF80B30002B04D049
:10807000012B0CD000BF062315E0019B0593059B47
:10808000002B02D0059B00221A7000230BE0019BFD
:10809000002B01D1072306E0019B0693079B1A1DC5
:1080A000069B1A600023184608B0704700B585B0DB
:1080B0000190019B002B04D107494FF4BB7009F0DC
:1080C000CDFB019B0393039B9B690293029B184684
:1080D00005B05DF804FB00BFF876040000B583B07E
:1080E0000190019B1B682F2B04D90B494FF4F370AF
:1080F00009F0B4FB019B1B681F2B02D84FF0A04373
:1081000006E0019B1B6803F01F02019B1A60034BF2
:10811000184603B05DF804FB9C7704000003005090
:1081200000B585B00190084611461A4603468DF801
:1081300003300B468DF8023013468DF8013001AB49
:108140001846FFF7CBFF03909DF803209DF80230FF
:108150005B001A439DF801309B001A439DF81830CC
:108160001B0242EA03019DF81C301B04019A1943CB
:10817000039B02F5E07243F8221000BF05B05DF8E2
:1081800004FB00B585B00390002301930023009306
:108190000023012201210398FFF7C2FF00BF05B0B1
:1081A0005DF804FB00B585B003900B468DF80B30ED
:1081B0009DF80B3000220192002200920022002143
:1081C0000398FFF7ADFF00BF05B05DF804FB00B5F5
:1081D00085B0019001AB1846FFF780FF0390019B2B
:1081E000012202FA03F31946039800F018F800BFC1
:1081F00005B05DF804FB00B585B0019001AB1846F1
:10820000FFF76CFF0390019B012202FA03F319466A
:10821000039800F00EF800BF05B05DF804FB82B0D3
:1082200001900091019B009AC3F8082500BF02B09D
:10823000704782B001900091019B009AC3F80C2511
:1082400000BF02B0704782B001900091009A019B7C
:10825000C3F8242500BF02B0704700B583B0019079
:10826000019B0433184607F01DF900BF03B05DF809
:1082700004FB00B58FB003900291009313468DF874
:10828000073000230D93029B09939DF807300A9352
:10829000009B0B939DF840300C93039B043309A97A
:1082A0000022184607F052FA0D900D9B18460FB0A9
:1082B0005DF804FB00B589B0059003921A460B46A1
:1082C0008DF8133013468DF812300F4B93F8583059
:1082D0001846FFF790FF9DF813209DF81230009389
:1082E000039B05990948FFF7C4FF0790079B069376
:1082F000069B002B04D0064AF0210698FEF7B6F83C
:1083000000BF09B05DF804FB605A00204878040003
:10831000CC77040008B5044B4FF000411846FFF736
:1083200092FF00BF08BD00BF0030024088B001903E
:10833000019B1B789B098DF81F309DF81F30022B85
:1083400006D0022B49DC002B02D0012B30D044E0B8
:10835000019B08331B789B09DBB21A46019B07334C
:108360001B789B001A44019B06331B789B0203F485
:10837000406313440593019B05331B7803F00F03FF
:108380000493019B0A331B78DB09DBB21A46019B7D
:1083900009331B785B0003F0060313440393059B2A
:1083A0005A1C0499039B0B44073B02FA03F316E0A3
:1083B000019B09331B781A46019B08331B781B026B
:1083C0001A44019B07331B781B0403F47C131344EA
:1083D0000693069B01339B0201E000BF0023184671
:1083E00008B0704700B585B0034600918DF807309E
:1083F00013468DF80630594B93F82330002B01D0EB
:108400001123A7E000238DF80F30544B012283F88D
:1084100023209DF90730002B1EDA06238DF80F303C
:108420004E4B022283F823204C4B772283F82820DE
:108430004A4B002283F82920484B002283F82A2047
:10844000464B002283F82B20444B002283F82C203B
:10845000424BFF2283F82D209DF80F309DF8072016
:1084600002F07F02D1B23D4A13440A4683F8282025
:10847000009B1A0E9DF80F300133D1B2374A1344D6
:108480000A4683F82820009B1A0C9DF80F3002330F
:10849000D1B2324A13440A4683F82820009B1A0AB4
:1084A0009DF80F300333D1B22C4A13440A4683F8A7
:1084B00028209DF80F300433009AD1B2274A134484
:1084C0000A4683F828209DF80730402B02D0482B1D
:1084D00004D007E095238DF80E3007E087238DF850
:1084E0000E3003E0FF238DF80E3000BF9DF80F30F3
:1084F00005331A4A13449DF80E2083F828209DF86E
:108500000630022B02D0032B05D009E0134B0522C5
:1085100083F8242009E0114B052283F8242004E08D
:108520000E4B012283F8242000BF9DF90730002B59
:1085300003DB0A4B93F8243000E001238DF80D3063
:108540009DF80D300E33DBB2054A06210548FFF7D2
:10855000B1FE0023184605B05DF804FB605A002008
:10856000985A0020885A002000B589B003900193E2
:108570000B468DF80B301346ADF8083001238DF80B
:108580001F30AA4BDB8BB3F5F67F00F03281B3F5D9
:10859000F67F00F34081B3F5F07F00F00B81B3F577
:1085A000F07F00F3388140F2D912934200F0E3806B
:1085B000B3F5ED7F80F22F81002B05D040F2C7127A
:1085C000934200F09E8026E1BDF80830002B04D1D4
:1085D00097494FF4C87009F041F9944B9B8A002BDE
:1085E00004D1934940F2911009F038F98F4B9A8ADF
:1085F0008E4BDA82E7E08D4B00221A848B4BFF22F0
:1086000083F82820894B00221A83884B032283F8A1
:1086100023207CE0854B1B8C01339AB2834B1A8458
:10862000824B1B8C44F6206293420FD9019B02229D
:108630001A707E4B0022DA830223F3E0039B01339E
:1086400003939DF80B30013B8DF80B309DF80B30F8
:10865000002B03D0039B1B78FF2BEFD09DF80B3032
:10866000002B41D0039B1B78FE2B35D1039B01339C
:1086700003939DF80B30013B8DF80B306B4B0422BC
:1086800083F823209DF80B309BB2BDF8082093425D
:1086900028BF1346ADF81430002306930BE0039A6D
:1086A000069B1A44614BD968069B0B4412781A70DA
:1086B000069B01330693BDF81430069A9A42EED316
:1086C0005A4ABDF814301383584BDA68BDF8143099
:1086D0001344564AD3601AE0019B05221A70534B8B
:1086E0000022DA8302239DE01023524A01215248DE
:1086F000FFF7E0FD00238DF81F304C4B40F2C7120E
:10870000DA839DF81F30002B01D101238AE0474B0B
:1087100093F82330032B3FF47DAF32E0434B1B8BA8
:10872000BDF80820D31AADF81630BDF81630F02B7E
:1087300002D9F023ADF816303C4BDA68BDF816309C
:10874000DBB201213C48FFF7B5FD384BDA68BDF8D4
:1087500016301344354AD360344B1A8BBDF81630AB
:1087600013449AB2314B1A8300238DF81F302F4BDC
:1087700040F2D912DA839DF81F30002B01D101237A
:1087800050E02A4B1B8BBDF808209A42C6D8274BD5
:10879000DB8A013B9AB2254BDA820223254A01216A
:1087A0002548FFF787FD00238DF81F301F4B4FF43E
:1087B000F072DA839DF81F30002B01D1012331E0E4
:1087C00000238DF80B30194BDB8A002B7FF413AF9D
:1087D000164BFF2283F828200223164A012116484F
:1087E000FFF768FD00238DF81F30104B4FF4F67231
:1087F000DA839DF81F30002B01D1012312E00B4BCF
:10880000002283F82320019B00221A70074B0022CC
:10881000DA83022306E000238DF81F30034B002289
:10882000DA830323184609B05DF804FB605A002080
:10883000CC770400985A0020885A002000B593B0E5
:1088400003900B4601928DF80B30039B1B788DF83B
:108850004730039B01331B781A06039B02331B78B6
:108860001B041A43039B03331B781B021343039A15
:10887000043212781343109301238DF84630BE4B17
:108880009B8BB3F51C7F00F3EB82B3F5137F16DCF3
:10889000B3F50E7F00F08C81B3F50E7F00F3E0821C
:1088A000002B00F09380002BC0F2DA8240F22622E7
:1088B000934200F3D582B3F5047F51DAD0E2A3F2FC
:1088C0004D23232B00F2CC8201A252F823F000BFEB
:1088D000718C0200618E0200618E0200618E0200C6
:1088E000618E0200618E0200D78C0200618E020050
:1088F000618E0200618E0200618E0200618E0200B4
:10890000618E0200618E0200618E0200618E0200A3
:10891000618E0200618E0200618E0200618E020093
:10892000538D0200618E0200618E0200618E020092
:10893000618E0200618E0200618E0200618E020073
:10894000618E0200618E0200B78D0200618E02000E
:10895000618E0200618E0200618E0200FD8D0200B8
:10896000A3F50473162B00F27B8201A252F823F0C8
:10897000FD890200618E0200618E0200398A0200C8
:10898000618E0200618E0200618E0200618E020023
:10899000618E0200938A0200618E0200618E0200E5
:1089A000618E0200618E0200618E0200618E020003
:1089B000618E0200618E0200618E0200618E0200F3
:1089C000618E0200618E0200218B020001220021D3
:1089D0004020FFF707FD0F900F9B0E930E9B002B7F
:1089E00005D0664A40F20F210E98FDF73FFD0023A7
:1089F0008DF84630604B4FF404729A839DF84630F0
:108A0000002B01D1012332E2012200214020FFF797
:108A1000E9FC0F900F9B0D930D9B002B05D0574A3F
:108A200040F212210D98FDF721FD00238DF846300C
:108A3000514B40F213229A839DF84630002B01D10E
:108A4000012314E29DF8473023F00303002B07D0E5
:108A5000019B04221A70484B00229A83022306E2EB
:108A600003224FF4D5714820FFF7BCFC0F900F9BF9
:108A70000C930C9B002B05D0404A4FF406710C98C8
:108A8000FDF7F4FC00238DF846303B4B40F21922F1
:108A90009A839DF84630002B01D10123E7E19DF830
:108AA000473003F00403002B13D1334A937A032198
:108AB00061F3020393729DF8473023F00303002B08
:108AC00007D0019B04221A702B4B00229A830223A9
:108AD000CDE1294B00221A84274B9B7A03F0070330
:108AE000DBB2032B02D14FF0804300E000230B9355
:108AF00002220B99E920FFF775FC0F900F9B0A9358
:108B00000A9B002B05D01D4A40F225210A98FDF74B
:108B1000ADFC00238DF84630174B40F226229A8395
:108B20009DF84630002B01D10123A0E19DF847308C
:108B300003F00403002B56D00F4A937A012161F30E
:108B4000020393729DF8473023F004038DF84730F9
:108B5000094B1B8C01339AB2074B1A84064B1B8CB2
:108B6000B3F5FA6F0CD9019B02221A70024B002256
:108B70009A8302237BE100BF605A0020CC77040077
:108B8000022200214120FFF72DFC0F900F9B07933D
:108B9000079B002B05D0A64A40F237210798FDF726
:108BA00065FC00238DF84630A24B4FF40E729A8379
:108BB0009DF84630002B01D1012358E19DF8473044
:108BC00023F00303002B07D0019B04221A70994B5A
:108BD00000229A8302234AE19DF8473003F0010303
:108BE000002BB5D195E09DF8473023F00303002B0F
:108BF00052D0019B04221A708E4B00229A830223CA
:108C000035E18C4B1B8C01339AB28A4B1A84894B09
:108C10001B8CB3F5FA6F07D9019B02221A70854BA2
:108C200000229A83022322E1824B9B7A03F00703FE
:108C3000DBB2032B02D14FF0804300E000230B9303
:108C400002220B99E920FFF7CDFB0F900F9B0893B1
:108C5000089B002B05D0764A4FF413710898FDF756
:108C600005FC00238DF84630724B40F24D229A836A
:108C70009DF84630002B01D10123F8E09DF84730E4
:108C800023F00303002B08D0019B04221A70694BC8
:108C900000229A830223EAE000BF9DF8473003F0E8
:108CA0000103002BADD1022200217A20FFF79AFBAD
:108CB0000F900F9B0993099B002B05D05C4A40F253
:108CC00052210998FDF7D2FB00238DF84630594B0D
:108CD00040F253229A839DF84630002B01D10123A4
:108CE000C5E09DF8473023F00303002B07D0019B1C
:108CF00004221A704F4B00229A830223B7E0109B84
:108D000003F08043002B04D04A4A937A43F00803CF
:108D10009372484B9B7A03F00703DBB2032B2CD0F2
:108D200001224FF400715020FFF75CFB0F900F9B66
:108D30000693069B002B05D03D4A4FF41871069808
:108D4000FDF794FB00238DF846303A4B40F2612248
:108D50009A839DF84630002B01D1012387E09DF8CE
:108D6000473023F00303002B07D0019B04221A7025
:108D7000304B00229A83022379E02E4B2E4ADA6090
:108D80002C4B01229A82012200214920FFF72AFB65
:108D90000F900F9B0593059B002B05D0244A40F2B2
:108DA0006A210598FDF762FB00238DF84630214BC0
:108DB00040F26B229A839DF84630002B01D10123AB
:108DC00055E09DF8473023F00303002B07D0019BAB
:108DD00004221A70174B00229A83022347E0039B58
:108DE000013303939DF80B30013B8DF80B30114B91
:108DF0000022DA830F4B4FF41C729A830DF1130398
:108E00009DF80B1010220398FFF7AEFB0346012BD1
:108E100001D800232BE09DF81330002B0ED09DF8D5
:108E20001320019B1A70034B00229A8302231EE039
:108E3000CC770400605A0020A85A00200E48FFF7A3
:108E400075FA03460D4A53600C4B4FF400721A81B9
:108E5000019B00221A70094B00229A83022306E02C
:108E600000238DF84630054B00229A8303231846D1
:108E700013B05DF804FB00BFA85A0020605A002020
:108E800000B589B003900B4601928DF80B30012399
:108E90008DF81F30404B9B8B40F2A222934261D051
:108EA00040F2A22293426BDC002B03D0B3F5267F65
:108EB00021D065E0039B1B788DF81E309DF81E3095
:108EC00023F00303002B07D0019B04221A70324BBE
:108ED00000229A8302235AE0039B013303939DF8F7
:108EE0000B30013B8DF80B302B4B0022DA832A4BE1
:108EF0004FF426729A830DF113039DF80B104FF473
:108F000000720398FFF730FB0346012B01D80023C2
:108F10003DE09DF81330002B08D09DF81320019BF5
:108F20001A701D4B00229A83022330E01A4B9B8A51
:108F3000012B1DD9012200214C20FFF753FA069086
:108F4000069B0593059B002B05D0144A40F2A121F6
:108F50000598FDF78BFA00238DF81F300E4B40F279
:108F6000A2229A839DF81F30002B01D101230EE02D
:108F7000019B00221A70084B00229A83022306E00C
:108F800000238DF81F30044B00229A8303231846D8
:108F900009B05DF804FB00BF605A0020CC770400E4
:108FA00000B58DB003900B4601928DF80B30012374
:108FB0008DF82F30AC4B9B8BB3F54C7F00F0C78105
:108FC000B3F54C7F00F3EC81B3F5487F00F090815E
:108FD000B3F5487F00F3E48140F20A32934200F097
:108FE0003A8140F20A32934200F3DA81B3F53B7FD3
:108FF00000F0E380B3F53B7F00F3D281B3F5397F16
:1090000000F0B880B3F5397F00F3CA8140F2D32273
:10901000934200F08180B3F5357F80F2C181002B4F
:1090200004D040F2C322934237D0B9E1039B1B78AE
:109030008DF823309DF8233023F00303002B07D055
:10904000019B04221A70884B00229A830223AEE10E
:10905000854B9B7A03F00703DBB2012B35D0824BA3
:109060009B8A012B31D9804B1B690122194659205B
:10907000FFF7B8F90790079B0693069B002B05D0D6
:109080007A4A40F2C2210698FDF7F0F900238DF8E4
:109090002F30754B40F2C3229A839DF82F30002B5E
:1090A00001D1012383E1039B1B788DF823309DF8C8
:1090B000233023F00303002B07D0019B04221A70F6
:1090C000694B00229A83022371E1674B9A8A664BAF
:1090D000DA82EFE0644B00221A83634B042283F8A8
:1090E0002320614BFF2283F828205F4B9B8A012BB2
:1090F00001D9FC2200E0FE225B4B83F829200223E9
:109100005B4A02215B48FFF7D5F800238DF82F302A
:10911000554B40F2D3229A839DF82F30002B2FD14C
:10912000012344E1504B1B8BC3F50073ADF82C3089
:10913000BDF82C30F02B02D9F023ADF82C304A4B7F
:10914000DB68494A128B9818BDF82C30D9B201233C
:10915000474AFFF7AFF8444B1A8BBDF82C30134445
:109160009AB2414B1A8300238DF82F303E4B4FF4B7
:1091700039729A839DF82F30002B02D1012316E11A
:1091800000BF394B1B8BB3F5007FCBD3364BDB686D
:1091900003F50073344AD360334B032283F8232052
:1091A0000323334A01213348FFF784F800238DF865
:1091B0002F302D4B4FF43B729A839DF82F30002BAC
:1091C00001D10123F3E0284B93F83A3003F01F0359
:1091D0008DF817309DF81730052B17D09DF81730F4
:1091E0000B2B03D09DF817300D2B07D1019B0522C7
:1091F0001A701D4B00229A830223D8E0019B04229F
:109200001A70194B00229A830223D0E0164B0022D9
:109210001A8444E0144B1B8C01339AB2124B1A840B
:10922000114B1B8C44F62062934207D9019B02220A
:109230001A700D4B00229A830223B8E010230C4AC7
:1092400001210C48FFF736F800238DF82F30064B2C
:1092500040F20A329A839DF82F30002B01D101236E
:10926000A5E000230A9315E0605A0020CC770400A3
:10927000985A0020885A0020039A0A9B13441B78AE
:10928000002B04D04C4B002283F8232007E00A9BDC
:1092900001330A939DF80B300A9A9A42ECD3464B5D
:1092A00093F82330032BB5D0434BDB8A013B9AB2B2
:1092B000414BDA82404BDB8A002B7FF40BAF3E4BF5
:1092C0009B8A012B64D93C4BFF2283F828203A4B20
:1092D000FD2283F829200323384A02213848FEF76B
:1092E000E9FF00238DF82F30334B4FF448729A83F7
:1092F0009DF82F30002B01D1012358E02E4B002286
:109300001A842D4B032283F823203CE02A4B1B8C2C
:1093100001339AB2284B1A84274B1B8C44F62062E7
:10932000934207D9019B02221A70234B00229A8391
:1093300002233CE01023214A01212148FEF7BAFF15
:1093400000238DF82F301C4B4FF44C729A839DF8FC
:109350002F30002B01D1012329E0002309930DE0D8
:10936000039A099B13441B78002B04D0124B002254
:1093700083F8232007E0099B013309939DF80B3004
:10938000099A9A42ECD30C4B93F82330032BBDD0AF
:10939000019B00221A70084B00229A83022306E0E8
:1093A00000238DF82F30044B00229A8303231846A4
:1093B0000DB05DF804FB00BF605A0020985A0020F1
:1093C000885A002000B58DB001900091019BDB68A8
:1093D0000B93019B1B7C8DF82B30AA4BDB8A002B57
:1093E00005D1A84B93F858301846FEF7F0FEA54B70
:1093F00093F82330022B05D0A24B93F82330012B96
:1094000040F0C0809DF82B30062B04D89E4940F2D6
:10941000573008F023FA9DF82B30063B8DF82B309F
:109420000B9B06330B93019B5B681B784C2B14D171
:109430009DF82B30002B10D09DF82B30013B8DF880
:109440002B300B9B01330B9307E09DF82B30013B36
:109450008DF82B300B9B01330B939DF82B30002B99
:1094600003D00B9B1B78FF2BEFD09DF82B30002BEC
:109470000FD1019B5B681B784C2B08D19DF82B30DA
:1094800001338DF82B300B9B013B0B9301E0002344
:109490000B930B9B002B53D17A4B93F82230DBB20A
:1094A000012B4DD001238DF80D30764B93F82230EF
:1094B000DBB2052B21D0052B23DC022B02DC002B99
:1094C00003DC1EE0042B14D01BE000238DF80C30CD
:1094D0006C4B032283F8222000F0D2FA0990099BFA
:1094E000002B1AD0684A40F283310998FCF7BEFF7E
:1094F00013E001238DF80C3012E002238DF80C30BC
:109500000EE003230893089B002B08D05E4A4FF41B
:1095100063710898FCF7AAFF01E000BF00E000BFFC
:10952000584B93F858301846FEF751FE554B03221E
:1095300083F82220534B1B6803AA10469847E9E0A2
:10954000504B93F82330022B18D14E4B012283F855
:1095500023200B9B1B788DF81F309DF81F3023F0C4
:109560000103002B0AD14948464B93F824300E33AF
:10957000DBB2474A0621FEF79DFECBE0414B0022BD
:1095800083F8232006238DF813303E4B93F82230C6
:10959000DBB2013B042B00F2A98001A252F823F0B8
:1095A000B5950200C3950200ED9602002D960200CB
:1095B00095960200334B022283F82220314B002281
:1095C0009A830DF113029DF82B3019460B98FFF783
:1095D00035F90346012B40F2958000238DF81030B9
:1095E0009DF813308DF81130264B032283F822208A
:1095F000244B93F858301846FEF7E9FD9DF81330D8
:10960000002B0BD000F03CFA0690069B002B05D0F7
:109610001D4A40F2B7310698FCF728FFFEF77AFEA4
:10962000184B1B6804AA104698476BE00DF1130213
:109630009DF82B3019460B98FFF722FC0346012BAF
:1096400062D901238DF810309DF813308DF8113058
:109650000C4B032283F822200A4B00229A82094BEA
:109660000022DA82074B002283F82320054B93F86F
:1096700058301846FEF7ABFD024B1B6804AA104693
:10968000984741E0605A0020CC7704008E5A0020B1
:10969000985A00200DF113029DF82B3019460B98B3
:1096A000FFF77EFC0346012B30D902238DF81030E2
:1096B0009DF813308DF81130184B032283F82220C7
:1096C000164B002283F82320144B00229A82134B5E
:1096D0000022DA82114B93F858301846FEF777FDD6
:1096E0000E4B1B6804AA104698470FE0032305930E
:1096F000059B002B0CD00A4A4FF476710598FCF7B5
:10970000B5FE05E000BF04E000BF02E000BF00E0DE
:1097100000BF00BF0DB05DF804FB00BF605A002021
:10972000CC77040000B589B0039002911346ADF8E0
:109730000630039B002B04D12E4940F2E23008F0A2
:109740008DF82D4B93F82230DBB2002B01D108238A
:109750004CE0294B93F82230DBB2032B01D01123CC
:1097600044E0BDF80630002B01D107233EE0224B38
:10977000042283F82220204B9B7A03F00803DBB2FB
:10978000002B04D1029B5B021B4A136102E01A4AC0
:10979000029B1361184A039BD360174ABDF8063039
:1097A0009382154ABDF80630D382134B00229A8368
:1097B000BDF80630012B01D9522300E051238DF86A
:1097C0001F300D4B19699DF81F3001221846FEF716
:1097D00009FE0690069B0593059B002B05D0054AC4
:1097E00040F202410598FCF741FE0023184609B0FB
:1097F0005DF804FBCC770400605A002000B589B006
:10980000039002911346ADF80630039B002B04D160
:109810003E4940F20A4008F021F83D4B93F82230CF
:10982000DBB2002B01D108236BE0394B93F82230D7
:10983000DBB2032B01D0112363E0BDF80630002B0F
:1098400001D107235DE0324B052283F82220304B03
:109850009B7A03F00803DBB2002B04D1029B5B026E
:109860002B4A136102E02A4A029B1361284A039B98
:10987000D360274ABDF806309382254ABDF80630EA
:10988000D382234B00229A83BDF80630012B14D1DA
:109890001F4B1B69012219465820FEF7A3FD0790B4
:1098A000079B0593059B002B05D0184A40F22D41DC
:1098B0000598FCF7DBFD002323E0154B9B7A03F0B2
:1098C0000703DBB2012B08D1114B1B69012219469A
:1098D0005920FEF787FD079007E0BDF8063001220A
:1098E0001946D720FEF77EFD0790079B0693069B3F
:1098F000002B05D0054A40F23C410698FCF7B6FD26
:109900000023184609B05DF804FB00BFCC770400C3
:10991000605A002000B58DB003900291524B93F82D
:109920002230DBB2002B01D0082398E0029B002BF1
:109930000FD0039BDB78FF2B0BD0039B5B78FF2BB7
:1099400007D0039B1B78FF2B03D0039B9B78FF2B37
:1099500001D1072383E0039BDB78002B0BD0039B13
:109960005B78002B07D0039B1B78002B03D0039B55
:109970009B78002B04D13D4940F2514007F06EFF27
:10998000039BDA78384B83F85820374B93F85830DC
:109990001846FEF7F6FB344B93F858301846FEF79E
:1099A00016FC039B9B788DF81430039B1B788DF875
:1099B0001530039B5B788DF81630FF238DF8173038
:1099C00003238DF81830FF238DF819304FF0806392
:1099D000079300238DF8203000238DF8213005A94E
:1099E0000023234A234805F0AFFF0B900B9B0A93FB
:1099F0000A9B002B05D01D4A40F265410A98FCF7EE
:109A000035FD194A029B1360174B012283F822206F
:109A1000154A937A6FF302039372134A937A6FF3A2
:109A2000C3039372104B002283F823200E4BFF22B6
:109A300083F828200A2300930F4B01220F490D4879
:109A4000FEF717FC0B900B9B0993099B002B05D08D
:109A5000064A40F271410998FCF708FD00231846B8
:109A60000DB05DF804FB00BF605A0020CC77040005
:109A7000C593020048780400985A0020885A0020B4
:109A800008B5124B93F82230DBB2002B01D108232A
:109A90001AE00E4B93F82230DBB2032B01D01123D6
:109AA00012E00B48FEF7D9FB084B93F85830002121
:109AB0001846FEF777FB054B002283F82320034B63
:109AC000002283F822200023184608BD605A002097
:109AD00048780400094B93F82230DBB2032B07D0FF
:109AE000064B93F82230DBB2002B01D0012300E0BB
:109AF000002303F00103DBB218467047605A0020D0
:109B0000054B93F82230DBB2022B01D9034B00E066
:109B100000231846704700BF605A0020645A002096
:109B200082B00190019B03F00303002B0CBF0123C3
:109B30000023DBB2184602B07047000000B585B0C4
:109B40000190002303930EE00B4A039B52F823304D
:109B5000002B05D0084A039B52F823300198984700
:109B6000039B01330393039B032BEDD900BF00BF7D
:109B700005B05DF804FB00BFCC5A002082B0019014
:109B80000091019B1B78013B052B61D801A252F883
:109B900023F000BFAD9B0200B59B0200DB9B0200DF
:109BA0000D9C02002D9C0200499C0200009B00229B
:109BB0001A704EE0009B01221A70019B1A89009BCB
:109BC0009A81019B9A88009BDA81019BDA68009B4D
:109BD0009A60009B00221A743BE0009B02221A70DC
:109BE000019B1A89009B9A81019B9A88009BDA81CC
:109BF000019BDA68009B9A60019B9B7D062B0CBF42
:109C000001230023DAB2009B1A7422E0009B032296
:109C10001A70019BDA88009B9A81019B1A89009B2C
:109C2000DA81019BDA68009B9A6012E0009B0422B3
:109C30001A70019BDA88009B9A81009B0022DA81CE
:109C4000009B00229A6004E0009B05221A7000E04D
:109C500000BF00BF02B0704784B001900091019B2B
:109C60000393039A009B9A4206D2039B1B68B3F1AD
:109C7000FF3F01D0012300E0002303F00103DBB22A
:109C8000184604B0704782B00190019B5B88033393
:109C90009B00019A1344184602B0704700B583B088
:109CA000019000910198FFF7EEFF0246009B93425E
:109CB00001D202230CE0019B9B884FF6FF72934276
:109CC00003D0019B1B88002B01D1012300E000235E
:109CD000184603B05DF804FB00B583B00190019B0A
:109CE000002B13D00D4BDB681A46019B93420DD31A
:109CF0000A4B1B691A46019B934207D80198FFF74C
:109D00000FFF0346002B01D0012300E0002303F0E6
:109D10000103DBB2184603B05DF804FB00580020D5
:109D200082B00190019B002B04D0019B1B680B4A61
:109D3000934201D003230DE0019B04331B68084AC2
:109D4000934204D0074A934203D1012302E0002347
:109D500000E00323184602B0704700BFDEC0ADDE4E
:109D6000FE011EF1FF011EF184B001900023039358
:109D70000CE0039B9B00019A13441B68B3F1FF3F67
:109D800001D0002307E0039B01330393039BB3F54A
:109D9000806FEED30123184604B0704782B00346AB
:109DA0000A46ADF806301346ADF80430BDF806207B
:109DB000134913469B0013449B000B4408331A8835
:109DC000BDF804301344ADF80430BDF806200C494A
:109DD00013469B0013449B000B440A331A88BDF8BA
:109DE00004301344ADF80430BDF8043040F2FF32C3
:109DF000934294BF01230023DBB2184602B07047A0
:109E00007C5B002084B0019000910A23039300231F
:109E1000ADF80A3027E0BDF80A20174913469B0029
:109E200013449B000B4404331B68009A9A4215D9D3
:109E3000BDF80A20104913469B0013449B000B44B5
:109E400004331B6803F58053009A9A4206D200231C
:109E50000393019BBDF80A201A8008E0BDF80A3080
:109E60000133ADF80A30BDF80A30022BD3D9039B79
:109E7000184604B0704700BF7C5B002000B589B075
:109E8000039002910192039B03F580530693039B79
:109E900008330393029B02221A80039B079332E04C
:109EA00006990798FFF7FAFE03468DF817309DF8DC
:109EB0001730002B0AD1079B9A68184B1B689A42EF
:109EC00013D9079B9B68154A13600EE0019B002B7A
:109ED00002D0019B01221A709DF81730022B04D189
:109EE000029B4FF480621A8014E0029B1A88079B41
:109EF0005B8813449BB203339AB2029B1A80079883
:109F0000FFF7C1FE079006990798FFF7A5FE0346E5
:109F1000002BC5D109B05DF804FB00BFDC5A00205E
:109F200082B001900091009B9B7D022B09D9019B7F
:109F30001A89009BDB8813449BB203339AB2019BBE
:109F40001A81019B5A89009BDB88D31A9BB2033B81
:109F50009AB2019B5A8100BF02B0704700B583B02E
:109F6000074B1B681946002300930823054A06483F
:109F700001F0DBFE0346184603B05DF804FB00BFAA
:109F8000B85B0020CC7804000058002000B585B0F4
:109F900003900399002300930823044A044801F026
:109FA000C4FE0346184605B05DF804FBD4780400EF
:109FB0000058002000B585B003460091ADF806308A
:109FC00000238DF80F30BDF806300333ADF80A30AA
:109FD000BDF80A3040F2FD32934201D909234AE02C
:109FE0000023ADF80C303BE0BDF80C2024491346AB
:109FF0009B0013449B000B441B78002B2BD1BDF816
:10A000000A20BDF80C3011461846FFF7C7FE03467C
:10A01000002B20D001238DF80F30009BBDF80C20C1
:10A020001A80BDF80C20164913469B0013449B0070
:10A030000B440A331988BDF80C20BDF80A300B44D4
:10A0400098B20F4913469B0013449B000B440A33FC
:10A0500002461A8008E0BDF80C300133ADF80C3030
:10A06000BDF80C30022BBFD99DF80F30002B01D06A
:10A07000002300E00723184605B05DF804FB00BF8D
:10A080007C5B002082B003460A46ADF806301346DA
:10A09000ADF80430BDF804200D4913469B0013446D
:10A0A0009B000B440A331A88BDF80630D31A9BB2C2
:10A0B000BDF80420033B98B2054913469B001344A6
:10A0C0009B000B440A3302461A8000BF02B070475F
:10A0D0007C5B002008B501210248FDF723FB034605
:10A0E000184608BDDC5A002000B585B00346009133
:10A0F000ADF80630BDF80620244913469B001344F2
:10A100009B000B4404331B6803F580530293009BB0
:10A110001B680393039B002B04D00398FFF7B3FD48
:10A12000039026E0BDF80620184913469B0013440F
:10A130009B000B4404331B680833039319E0029916
:10A140000398FFF7ABFD0346022B10D0022B10DC67
:10A15000002B02D0012B05D00BE0009B039A1A6064
:10A1600001230EE00398FFF78EFD039001E000232A
:10A1700007E002990398FFF76FFD0346002BDED13D
:10A180000023184605B05DF804FB00BF7C5B00208F
:10A1900000B585B001900091019B5B681846FFF700
:10A1A0009BFD0346002B19D0019B1A89244B1B8968
:10A1B0009A4213D1019B1A68019B5B689B689A4283
:10A1C0000CD1019B5B6819460098FFF71BFE034604
:10A1D000002B0CBF01230023DBB22CE0009B0022EC
:10A1E0001A8023E00023029310E0029B0393039B59
:10A1F0009A68019B1B689A4208D1029A019B5A6097
:10A200000F4B1A89019B1A81012314E0009B1B88C4
:10A2100002AA11461846FFF767FF0346002BE4D158
:10A22000009B1B8801339AB2009B1A80009B1B88FD
:10A23000022BD7D90023184605B05DF804FB00BFF8
:10A24000C05B002000B587B003900291019200939B
:10A25000304B1B78DBB283F00103DBB2002B01D063
:10A26000022353E0019B002B02D0009B002B48D11E
:10A2700005234BE0009B9B881946274A0B469B0011
:10A280000B449B0013441B78002B33D124E0009B2C
:10A290001B680593039B002B06D0059B9A88039BA4
:10A2A0001B889A4200D017E0029B002B06D0059B2A
:10A2B0001A88029B1B889A4200D00DE0059B9A6881
:10A2C000019B1A60009B1A68019B5A60134B1A8904
:10A2D000019B1A81002319E0009B9B88009A11467C
:10A2E0001846FFF701FF0346002BD0D1009B002248
:10A2F0001A6000E000BF009B9B8801339AB2009B6C
:10A300009A80009B9B88022BB4D90A23184607B079
:10A310005DF804FBBC5A00207C5B0020C05B002081
:10A3200000B585B00190084B01991846FDF76DF80E
:10A3300003901C22002103981CF056FB039B184637
:10A3400005B05DF804FB00BF6C5B002000B583B076
:10A350000190044B01991846FDF770F800BF03B057
:10A360005DF804FB6C5B002000B583B00190054BE9
:10A3700001991846FDF776F80346184603B05DF8D4
:10A3800004FB00BF6C5B002000B583B00190044B60
:10A3900001991846FDF77FF800BF03B05DF804FB94
:10A3A0006C5B002008B50A4B1B68002B04D10949DF
:10A3B00040F27A2007F052FA01210548FDF7CAF968
:10A3C0000346002B14BF01230023DBB2184608BD4F
:10A3D000C45A00205878040000B587B000230593C4
:10A3E0000023ADF812300423ADF8103000238DF8AF
:10A3F0000F300023ADF80C30F3E0BDF80C301A0339
:10A40000804BDB68134402930298FFF789FC0346F4
:10A410008DF807309DF80730032B08D0032B00F38D
:10A42000DA80002B65D0012B00F09880D3E00298F1
:10A43000FFF79AFC0346002B3BD0734B1B68002BA5
:10A4400029D0BDF81220714913469B0013449B008C
:10A450000B4402221A70BDF812206C4913469B006F
:10A4600013449B000B440433029A1A60BDF8122077
:10A47000664913469B0013449B000B440833022299
:10A480001A80634ABDF812305380BDF81230013390
:10A49000ADF8123008E05C4A029B13605A4B02226E
:10A4A0009A8001238DF80F30059B43F0010305933B
:10A4B00092E0BDF81030013BADF81030BDF812202D
:10A4C000524913469B0013449B000B440433029AE9
:10A4D0001A60BDF812204D4913469B0013449B009F
:10A4E0000B4403221A70BDF812300133ADF812305C
:10A4F00072E0BDF81220454913469B0013449B00AF
:10A500000B4400221A70BDF81220404913469B00EC
:10A5100013449B000B440433029A1A60BDF81220C6
:10A5200013469B0013449B000833384A9918BDF822
:10A53000122013469B0013449B001033334A1344EC
:10A540001A460298FFF79AFC059B43F00203059315
:10A55000BDF812300133ADF812303DE09DF80F30F8
:10A56000002B25D0BDF81220284913469B00134428
:10A570009B000B4402221A70BDF81220224B19686E
:10A58000224813469B0013449B0003440433196084
:10A59000BDF812201D4913469B0013449B000B4439
:10A5A000083302221A80BDF812300133ADF81230A0
:10A5B000154A029B1360002216490298FFF75EFCC1
:10A5C000114B9B88022B01D1042300E00823059A3C
:10A5D0001343059300E000BFBDF80C300133ADF824
:10A5E0000C30BDF80C30032B7FF607AFBDF81030F0
:10A5F000012B01D800230593059BDBB2184607B059
:10A600005DF804FB00580020B85B00207C5B002054
:10A61000C05B0020BC5B002000B587B003900291B6
:10A62000039B02229A750299039B1A1D0023009333
:10A630000423074801F079FB0590059B002B01D10D
:10A64000002300E00E23184607B05DF804FB00BFAE
:10A650000058002000B587B003900291039B1B694E
:10A66000002B01D0032200E00122039B9A75029B7C
:10A6700008331946039B03F10C02002300930423C3
:10A68000064801F052FB0590059B002B01D10023E9
:10A6900000E00E23184607B05DF804FB00580020C8
:10A6A00000B587B003900291039B1B78032B01D167
:10A6B000052200E00622039B9A75029B043319468B
:10A6C000039B03F10802002300930423064801F0D2
:10A6D0002CFB0590059B002B01D1002300E00E23ED
:10A6E000184607B05DF804FB0058002000B587B09D
:10A6F00003900B46ADF80A3003990023009304231E
:10A700000C4A0D4801F011FB0590059B002B01D070
:10A710000E230BE0BDF80A20084913469B001344A2
:10A720009B000B44103301221A700023184607B017
:10A730005DF804FBDC780400005800207C5B0020FE
:10A7400000B589B0019002AB00221A605A609A608D
:10A75000019BDB6802930DF1160202AB114618460D
:10A76000FFF716FD0346002B12D0039B0693069BB2
:10A770009A88019BDA80069B1A88019B1A81039BA9
:10A78000BDF8162011461846FFF7B0FF079001E00C
:10A790000A230793079B184609B05DF804FB0000E5
:10A7A00000B587B00190019B981D02AA0D4B0021B6
:10A7B000FFF748FD0590059B002B08D1039B094A34
:10A7C000928811461846FFF791FF059004E0082291
:10A7D000002104481CF008F9059B184607B05DF8F5
:10A7E00004FB00BFD05B002000B587B0039002914E
:10A7F000039B01229A75029B0C331846039B1A692E
:10A80000039BDB889B00002100910146064801F074
:10A810008CFA0590059B002B01D1002300E00E234C
:10A82000184607B05DF804FB0058002082B0184BB2
:10A830001B8901339AB2164B1A81154B00225A809C
:10A84000134B00225A730023ADF8063018E0BDF810
:10A850000620104913469B0013449B000B441A78B2
:10A86000BDF80630002A0CBF01220022D1B2084AEE
:10A8700013440A469A72BDF806300133ADF806302B
:10A88000BDF80630022BE2D900BF00BF02B070470E
:10A89000C05B00207C5B002084B0019000238DF819
:10A8A0000F300023ADF80C3031E0BDF80C301C4AFD
:10A8B00013449B7A002B25D0BDF80C30184A134462
:10A8C00000229A72BDF80C20164913469B001344CF
:10A8D0009B000B440C331B68002B13D1BDF80C20DC
:10A8E000104913469B0013449B000B4410331B7804
:10A8F000002B07D0019BBDF80C201A8001238DF896
:10A900000F3008E0BDF80C300133ADF80C30BDF865
:10A910000C30022BC9D99DF80F30184604B070478F
:10A92000C05B00207C5B002008B5084B05221A7034
:10A93000074B02229A80064B1B681946002301220E
:10A94000044801F043FA0346184608BDC05B0020E6
:10A95000B85B00200058002000B583B0164B5B8820
:10A96000ADF80230BDF80220144913469B00134491
:10A970009B000B440C331B68002B14D10E4B04229C
:10A980001A70BDF802200D4913469B0013449B002A
:10A990000B4404331B68194600230122084801F0C8
:10A9A00015FA019002E0FFF7BFFF0190019B1846E6
:10A9B00003B05DF804FB00BFC05B00207C5B00209F
:10A9C0000058002000B587B0104B5B680593104B12
:10A9D0001A680F4B9B889B0013440493059B5B886C
:10A9E0000333ADF80E30094B03221A700499074B5C
:10A9F0005A68BDF80E309B0000200090054801F019
:10AA000094F90346184607B05DF804FBC05B0020CC
:10AA1000B85B00200058002000B583B00A4B5B886B
:10AA20000A491846FFF760FB0346002B03D0FFF7E7
:10AA3000C9FF019002E0FFF78FFF0190019B1846CC
:10AA400003B05DF804FB00BFC05B0020C45B0020C6
:10AA500008B50A4B06221A70084B5B881946084A4B
:10AA60000B469B000B449B00134404331B681846A1
:10AA7000FFF78CFA0346184608BD00BFC05B0020F4
:10AA80007C5B002008B5054B07221A70034B00229F
:10AA90005A60FFF763FA0346184608BDC05B002002
:10AAA00008B50D48FFF7F8FE034683F00103DBB25B
:10AAB000002B0BD0094B00221A70084B00225A8041
:10AAC000064B00225A6041F61D5302E0FFF7A4FF37
:10AAD0000346184608BD00BFC25B0020C05B0020D3
:10AAE00082B0094B5B680193019B5B880333ADF82F
:10AAF0000230064B9A88BDF8023013449AB2034BD9
:10AB00009A8000BF02B07047C05B0020B85B002095
:10AB100082B0184B1B680193174B5B881946174A84
:10AB20000B469B000B449B00134404331B68114AE3
:10AB30001360114B5B881946104A0B469B000B446F
:10AB40009B0013440433019A1A600B4B5B8819462F
:10AB5000084B9888094A0B469B000B449B00134402
:10AB6000083302461A80034B02229A8000BF02B0CB
:10AB7000704700BFB85B0020C05B00207C5B0020FA
:10AB800008B51A4B1B78072B2CD801A252F823F0DA
:10AB9000B1AB0200E5AB0200E5AB0200BDAB0200C9
:10ABA000C9AB0200D5AB0200D5AB0200DDAB0200A1
:10ABB000FFF73CFE0D4B01221A7014E0FFF790FFE7
:10ABC0000A4B02221A700EE0FFF7A2FF074B062283
:10ABD0001A7008E0054B07221A7004E0034B0122AB
:10ABE0001A7000E000BF00BF08BD00BFC05B0020BE
:10ABF00000B587B0019000910F230593019B002BB6
:10AC000004D0624B00225A600123BBE0009B1B79F9
:10AC1000032B00F2AB8001A252F823F02DAC02000E
:10AC20003BAC0200C9AC0200E9AC0200009B01226F
:10AC30001A71FFF793F905909BE000238DF813300C
:10AC40000023ADF810302BE0BDF81020504913461A
:10AC50009B0013449B000B441B78022B1BD1BDF8B7
:10AC600010204B4913469B0013449B000B440022C9
:10AC70001A7001238DF81330BDF810204449134693
:10AC80009B0013449B000B4404331B681846FFF7DA
:10AC90007DF9059008E0BDF810300133ADF81030B3
:10ACA000BDF81030022BCFD99DF8133083F001038B
:10ACB000DBB2002B5CD0354B01221A70334B0022E3
:10ACC0005A6041F61D535DE0009B00221A71314B22
:10ACD00002229A802F4B1B681946002301222E481E
:10ACE00001F074F8059044E0009B00221A71294B92
:10ACF0001B681846FFF74AF90590284B5B88ADF8AA
:10AD00000E30244B1B680293BDF80E2020491346D9
:10AD10009B0013449B000B4404331B681D4A1360C3
:10AD2000BDF80E201A4913469B0013449B000B44A8
:10AD30000433029A1A60BDF80E20164B9888144905
:10AD400013469B0013449B000B44083302461A80B1
:10AD5000104B02229A80BDF80E200D4913469B002D
:10AD600013449B000B4400221A7002E000BF00E075
:10AD700000BF059B002B04D0044B00225A600E2319
:10AD800000E00023184607B05DF804FBBC5A002021
:10AD90007C5B0020B85B002000580020C05B0020D6
:10ADA00000B587B001900091009B9B8A1A4613461C
:10ADB0009B0013449B003A4A13440493019B002BCD
:10ADC00005D000990498FFF7ABF8012363E0049BDA
:10ADD0005A68049B1B899B0013440393009B9B7D33
:10ADE000062B4DD801A252F823F000BF2FAE02006F
:10ADF00053AE02003BAE020047AE020009AE0200B5
:10AE00005FAE020079AE0200264B00225A60009B22
:10AE10009B69244A136024492248FFF7B9F9034685
:10AE200083F00103DBB2002B01D00A2333E0039946
:10AE30000098FFF7F1FB059025E003990098FFF7D4
:10AE400009FC05901FE003990098FFF7CDFC0590E1
:10AE500019E003990098FFF723FC059013E0009B8D
:10AE600006229A750F4B5B680F4A128811461846E6
:10AE7000FFF73CFC059006E041F61D53059302E008
:10AE80000F23059300BF059B002B03D00099049866
:10AE9000FFF746F8059B184607B05DF804FB00BFB6
:10AEA0007C5B0020D85B0020E45B002000B585B00F
:10AEB00001900091019B002B01D0012326E0009B13
:10AEC0001B79022B19D0022B1BDC002B02D0012B8B
:10AED00008D016E0009B02221A710098FFF730FCA0
:10AEE000039012E00098FFF75BFC0390039B0A2B92
:10AEF0000AD141F61D53039306E041F61D53039317
:10AF000003E00F23039300E000BF039B184605B046
:10AF10005DF804FB00B585B00190019B002B01D0CA
:10AF200001233BE01F4B5B7B002B03D01D4B00221A
:10AF30005A7301E0FFF724FE1A4B1B78013B062BE6
:10AF400028D801A252F823F065AF02006DAF0200CD
:10AF500075AF02007DAF020095AF020085AF020021
:10AF60008DAF0200FFF79CFD039016E0FFF754FD44
:10AF7000039012E0FFF726FD03900EE0FFF7ECFCD4
:10AF800003900AE0FFF764FD039006E0FFF77AFD07
:10AF9000039002E00F23039300BF039B184605B004
:10AFA0005DF804FBC05B002000B589B001903F4B09
:10AFB0001B68002B05D13E48FFF7D6F903463B4AF4
:10AFC00013603A4B1B68002B04D13A4940F282507F
:10AFD00006F044FC354B1B681B78013B052B2CD835
:10AFE00001A252F823F000BF01B0020011B002002C
:10AFF00011B0020021B0020021B0020031B0020005
:10B000002A4B1B6819460198FFF7F2FD019017E0E3
:10B01000264B1B6819460198FFF7C2FE01900FE00E
:10B02000224B1B6819460198FFF740FF019007E08B
:10B030000198FFF76FFF019002E00F23019300BF1B
:10B04000019B002B2BD003AB00221A605A609A6040
:10B05000DA601A61019B41F61D52934201D0019BB7
:10B0600000E000230493114B1B6803AA1146184605
:10B07000FEF784FD03AB1846FEF760FD0B4B002284
:10B080001A60002301930A48FFF77EF9FFF78AF957
:10B09000034683F00103DBB2002B02D187E700BF38
:10B0A00000E000BF00BF09B05DF804FBE85B0020D2
:10B0B000EC5B00205878040008B501210548FCF736
:10B0C00019FB0346002B02D10020FFF76DFF00BFE4
:10B0D00008BD00BFC45A002000B583B00190019B99
:10B0E0005B681846FFF760FF00BF03B05DF804FB24
:10B0F00000B58BB00390029101928DF803300023CC
:10B10000ADF824300023ADF82630514B1B78DBB26C
:10B1100083F00103DBB2002B01D0022393E0029BFA
:10B12000002B01D105238EE0029B1B884FF6FF7296
:10B13000934203D0029B5B88002B01D1042382E061
:10B14000029B5B681846FEF7EBFC034683F00103A5
:10B15000DBB2002B01D0032375E0019B002B11D142
:10B16000029B9B68ADF826300DF11A02BDF826301F
:10B1700011461846FEF71EFF0890089B002B09D0C9
:10B18000089B60E0019B1B88ADF81A30019B5B882F
:10B19000ADF8263005AB1846FFF7C2F80790079BBD
:10B1A000002B09D1BDF81A20BDF8263011461846EB
:10B1B000FEF768FF082346E0079B9DF803201A70FE
:10B1C000079B00229A75BDF81A20079B9A82029B62
:10B1D0005A68079B1A61FEF77DFF0246079BDA60FB
:10B1E000029B1A88079B1A81029B5A88079B9A80A8
:10B1F000079BBDF82620DA809DF80330032B06D18B
:10B20000079B04229A75039B1A68079B9A61079B08
:10B21000BDF824205A8105AB1846FFF797F8039B29
:10B22000002B0DD0039B00225A60079BDA68039B1A
:10B230001A60039B00229A72064B1A89039B1A819B
:10B24000FFF73AFF002318460BB05DF804FB00BF80
:10B25000BC5A0020C05B002000B585B001900C4BAB
:10B260001B68042B02D10C2303930BE0084B1B68D3
:10B270000849019A41F8232001210548FCF752FAB8
:10B2800000230393039B184605B05DF804FB00BF41
:10B29000C85A0020CC5A002084B040F6F8731B68CE
:10B2A000B3F1FF3F02D10F4B1B6802E040F6F87389
:10B2B0001B6803934FF080531B6902934FF0805338
:10B2C0005B690193039BB3F1FF3F04D1019B029A99
:10B2D00002FB03F300E0039B0093009B184604B0BD
:10B2E000704700BF1410001000B583B04FF48043C6
:10B2F0000193FFF7D1FF0346054A1361044B1A6916
:10B30000019BD31A024AD36000BF03B05DF804FB6F
:10B310000058002008B5FFF7E7FF00220349044862
:10B3200000F0E6FC0346184608BD00BFEC780400B8
:10B330000058002008B504481C238C220349FCF760
:10B340001DF800BF08BD00BF6C5B0020E05A002064
:10B3500000B58BB002AB00221A605A609A60DA60C6
:10B360001A61414B1B78DBB2002B05D002AB1846AB
:10B37000FEF7E4FB002373E03C48FCF703FA0346C6
:10B38000002B01D000236BE0FFF7C4FF0990099B5D
:10B39000002B01D0099B63E0FFF7CCFFFFF71CF8FF
:10B3A00003468DF823309DF82330062B07D0062B5B
:10B3B00011DC002B01D0022B0DD10B2350E02A4BC6
:10B3C00001221A70284B00225A6002AB1846FEF781
:10B3D000B5FB002344E000BF01AB1846FEF7A0FF19
:10B3E0000790079B002B01D1082339E0079B01221E
:10B3F0001A709DF82330013B0A2B29D801A252F87C
:10B4000023F000BF31B4020051B4020031B4020095
:10B4100051B4020049B4020051B4020049B4020020
:10B4200051B4020039B4020041B4020039B4020040
:10B43000079B00221A710CE0079B03221A7108E097
:10B44000079B02221A7104E0079B01221A7100E097
:10B4500000BF01AB1846FEF779FFFFF72DFE002372
:10B4600018460BB05DF804FBBC5A0020C05A0020FF
:10B4700000B585B001900091019B002B02D0009B8C
:10B48000002B01D1052329E00DF10A03194601988B
:10B49000FEF77EFE0346002B1FD0019B5B680393E3
:10B4A000BDF80A301A4613469B0013449B0008332C
:10B4B0000C4A1344043301211846FCF733F9009B6E
:10B4C000039A1A60019B5B6803F10C02009B5A60AF
:10B4D000019B01229A72002300E00A23184605B05E
:10B4E0005DF804FB7C5B002000B585B00190019BFA
:10B4F000002B01D1052339E00DF10A03194601980B
:10B50000FEF746FE0346002B2DD0BDF80A30194643
:10B51000184A0B469B000B449B0013440C331B68DA
:10B52000002B1DD0019B9B7A002B19D0BDF80A304F
:10B530001A46104913469B0013449B000B440C33DE
:10B540001B68591E0B4813469B0013449B00034481
:10B550000C331960019B00229A720023039304E0CC
:10B560000623039301E00A230393039B184605B0C7
:10B570005DF804FB7C5B002000B583B00190009176
:10B580000223002200990198FFF7B2FD03461846F6
:10B5900003B05DF804FB00B583B001900091019BFE
:10B5A000002B01D1052306E0032300220099019816
:10B5B000FFF79EFD0346184603B05DF804FB00004C
:10B5C00000B585B00346ADF80630184B1B78DBB2EA
:10B5D00083F00103DBB2002B01D0022322E0BDF88F
:10B5E00006304FF6FF72934201D104231AE002ABFA
:10B5F0001846FEF795FE0390039B002B01D108230C
:10B6000010E0039B05221A70039B01221A71039B11
:10B61000BDF80620DA8002AB1846FEF797FEFFF76A
:10B620004BFD0023184605B05DF804FBBC5A002012
:10B6300000B583B0144B1B78DBB283F00103DBB29F
:10B64000002B01D002231AE06B461846FEF768FE75
:10B650000190019B002B01D1082310E0019B0622E1
:10B660001A706B461846FEF771FE084B1B78002BCC
:10B6700002D0064B01225A73FFF71EFD0023184625
:10B6800003B05DF804FB00BFBC5A0020C05B002083
:10B6900000B585B0029201930346ADF80E300B461B
:10B6A000ADF80C3003A90DF10E00019B029AFEF7D4
:10B6B000C9FD0346184605B05DF804FB00B585B02A
:10B6C000034602910192ADF80E300DF10E01019B7F
:10B6D000029A0020FEF7B6FD0346184605B05DF855
:10B6E00004FB00B585B0034602910192ADF80E301F
:10B6F0000DF10E00019B029A0021FEF7A3FD034607
:10B70000184605B05DF804FB82B001900091019BE2
:10B71000002B02D0009B002B01D1052304E0019BEC
:10B720001A68009B1A600023184602B0704729DF90
:10B73000704700BF184628DF704700BF184600B5A5
:10B7400089B001900091019B1B689B68002B35D04C
:10B7500002AB00221A605A609A60DA601A615A617C
:10B76000009B0393019B9B680793019B1B79002B14
:10B7700002D0012B0DD01AE001238DF80830019B77
:10B780001B690493019BDB680593019B5B6906932E
:10B790000DE002238DF80830019BDB684FF48052E6
:10B7A00002FB03F30493019B5B69069300BF019BBB
:10B7B0001B689B6802AA1046984700E000BF09B0CA
:10B7C0005DF804FB00B587B00190019B5A69019BAD
:10B7D0009B69D31AB3F5805F28BF4FF4805305935C
:10B7E0000422059BB3FBF2F3012B38BF0123059321
:10B7F000019B1A69019B9B6913440493019BDB68BD
:10B800001A46019B9B6913440393059A0399049874
:10B81000FFF78DFF0346184607B05DF804FB00B53F
:10B8200083B00190019BDA68019B1B6913441846A1
:10B83000FFF781FF0346184603B05DF804FB0000E4
:10B8400008B5034B03491846FBF725FE00BF08BDAA
:10B850007C5C0020A45C002008B5084B0849184611
:10B86000FBF700FE0346074A1360064B1B68002BDC
:10B8700014BF01230023DBB2184608BD7C5C002006
:10B88000A45C0020A05C002000B583B02A4B1B7A8A
:10B89000002B0BD1FFF7E0FF034683F00103DBB27F
:10B8A000002B03D0244B00225A6042E0224B02229C
:10B8B0001A72224B1B681B79002B02D0012B07D078
:10B8C0000DE01E4B1B681846FFF77CFF019009E056
:10B8D0001A4B1B681846FFF7A2FF019002E00323F2
:10B8E000019300BF019B002B03D0019B112B0CD0B7
:10B8F0000FE0114B1B7C83F00103DBB2002B17D050
:10B900000021022000F060F912E00B4B01221A72B4
:10B910000FE00A4B1B6803211846FFF710FF064B88
:10B9200000221A72044B00225A60FFF789FF00E0E0
:10B9300000BF03B05DF804FB8C5C0020A05C00201D
:10B9400008B50848FBF71EFF0346002B08D1064B3D
:10B950005B7C83F00103DBB2002B01D0FFF794FF87
:10B9600000BF08BD905C00208C5C002084B001907A
:10B970001B4B0022DA60019B1B79002B02D0012BAC
:10B9800019D028E0019B5A69019B9B69D31AB3F532
:10B99000805F28BF4FF480530393019B9A69039BF8
:10B9A0001A44019B9A61019B9A69019B5B699A42C7
:10B9B0000ED1012310E0019B1B695A1C019B1A61E7
:10B9C000019B1A69019B5B699A4203D1012303E041
:10B9D00000BF00E000BF0023184604B0704700BF5E
:10B9E0008C5C002082B00190084BDB680133074A71
:10B9F000D360064BDB68082B04D9044B0022DA60C5
:10BA0000012300E00023184602B070478C5C002040
:10BA100000B583B001900091019B0C4A5A600C481C
:10BA2000FBF7B0FE0346002B0BD10FF0D1FC034611
:10BA30001A46074B1A7407481C238C220649FBF749
:10BA40009DFC0023184603B05DF804FBE078040079
:10BA50008C5C00207C5C0020F05B002000B583B093
:10BA6000019000911422002105481AF0BDFF054BFA
:10BA70001846FBF7B6FC0023184603B05DF804FB3C
:10BA80008C5C00207C5C002000B587B003900291A4
:10BA900001920093174A04AB19461046FBF7B5FC18
:10BAA0000590059B002B01D104231FE01C220021DF
:10BAB00005981AF099FF059B00221A71059B039ABD
:10BAC0001A60059B089A9A60059B029A1A61059B69
:10BAD000019ADA60059B009A5A61064A04AB19463E
