:020000040000FA
:100FF80000100F0000E00F000000000000000000DB
:02000004000FEB
:1010000000000420B5120F00DD120F00DF120F00E8
:10101000E1120F00E3120F00E5120F0000000000C4
:10102000000000000000000000000000153F0F005D
:10103000E9120F0000000000EB120F00ED120F008C
:10104000EF120F00EF120F00EF120F00EF120F0060
:10105000EF120F00EF120F00EF120F00EF120F0050
:10106000EF120F00EF120F00EF120F00EF120F0040
:10107000EF120F00EF120F00EF120F00EF120F0030
:101080004D4D0F00EF120F00EF120F00EF120F0087
:10109000EF120F00EF120F00ED360F00EF120F00EE
:1010A000EF120F00EF120F00EF120F00EF120F0000
:1010B000EF120F00EF120F00000000000000000010
:1010C000EF120F00EF120F00EF120F00EF120F00E0
:1010D000E1460F00EF120F00EF120F00EF120F00AA
:1010E000EF120F00EF120F001D950F00000000001F
:1010F00000000000EF120F0000000000EF120F00D0
:1011000000000000000000000000000000000000DF
:1011100000000000000000000000000000000000CF
:1011200000000000000000000000000000000000BF
:1011300000000000000000000000000000000000AF
:10114000000000000000000000000000000000009F
:10115000000000000000000000000000000000008F
:10116000000000000000000000000000000000007F
:10117000000000000000000000000000000000006F
:10118000000000000000000000000000000000005F
:10119000000000000000000000000000000000004F
:1011A000000000000000000000000000000000003F
:1011B000000000000000000000000000000000002F
:1011C000000000000000000000000000000000001F
:1011D000000000000000000000000000000000000F
:1011E00000000000000000000000000000000000FF
:1011F00000000000000000000000000000000000EF
:1012000010B5054C237833B9044B13B10448AFF340
:1012100000800123237010BD7458002000000000DE
:101220006CC70F0008B5034B1BB103490348AFF36C
:10123000008008BD00000000785800206CC70F0037
:10124000154B002B08BF134B9D46A3F5803A002198
:101250008B460F461348144A121A08F0C5F90F4B73
:10126000002B00D098470E4B002B00D09847002051
:10127000002104000D000D48002802D00C48AFF3F7
:10128000008008F071F92000290002F097FD08F0B5
:1012900057F900BF00000800000004200000000013
:1012A0000000000074580020A8B0002000000000DA
:1012B000000000000649074A074B9B1A03DD043B68
:1012C000C858D050FBDC01F07FFEFFF7B9FF0000EB
:1012D0006CC80F00B857002074580020FEE7FEE7E6
:1012E000FEE7FEE7FEE7FEE7FEE7FEE7FEE7FEE7D6
:1012F0007047000007B5044B0093044A402300F0F8
:1013000032F803B05DF804FB11130F009158002070
:101310002DE9F84388461446B2B10F4B0F4E032512
:10132000002743F00109224608EB0701002002F0E4
:101330007FFE0744241A48B933782BB14FF47A4022
:10134000C847013D02D13570BDE8F88301233370F1
:10135000002CE8D1F8E700BF40960F00905800201D
:10136000704702F099BEF0B595B01D461646084686
:101370000C4601F074FD1A9B0D93CDE9086500251C
:101380002B46082205A920460A958DF82C500C956D
:1013900001F08CFD079B0293069B03939DF814308C
:1013A0008DF8115003F00302012A1DD1BDF814205D
:1013B000059DC3F3C203C2F383168DF81030B2004B
:1013C00008230EA9204601F071FDC5F3952508AB51
:1013D0000093324602AB0EA9284600F01FFC2046BF
:1013E00001F041FD15B0F0BD022AF8D1BDF816504C
:1013F000C3F3C203C5F389158DF810300827082DF3
:101400002E4628BF08263B4632460EA9204601F04C
:101410004DFDAD1B08AB02AA31460EA8374400F0C3
:1014200061FC002DEBD1DAE708B5FFF79AFF07481A
:10143000042100F051FB002803DA0549412000F0A7
:10144000E3FD044B01225A7108BD00BF24C80F0000
:1014500054960F00B8570020037813F0040216D0FA
:1014600003F00303012B03D0022B09D001207047A6
:101470000A6800880232C0F3831002440A60F5E76C
:101480000B684288023303EB92130B60EEE71046C1
:10149000704700002DE9F04F89B000230446861CF8
:1014A0000DF10F000F4615468DF80F3000F040FD8E
:1014B000494801683960D0E90132484F134401338B
:1014C0005B1A8246A7F10409A7F10808B3421CD3AE
:1014D0000020002D7BD004F00F039B0143F0050397
:1014E00063F30F00DAF80020DAF808301340033312
:1014F00016444AF823009DF80F00CAF8006000F077
:1015000047FD012009B0BDE8F08F0121384600F009
:101510006DFE484600F085FE404600F082FEDAF897
:101520000400DAF808B0049000EA0B0003300AEB7C
:10153000800004A9FFF790FF049B0246F8B90BEA6C
:1015400003010AEB810103F1020CC8680590013325
:1015500003EA0B0B0AEB8B0B00F003000128DBF80E
:101560000C10CDF810C02AD002280BD01C490192D3
:101570004FF4BF7000F048FD019A93460CE00BEA6F
:101580000300D3E7BDF81630C3F3891303334FEAE2
:10159000114B0CEB93030493404600F045FE10B151
:1015A000049BCAF804305946384600F01FFEDAE9B9
:1015B00001231344DAF8002001339B1A86E7BDF8B3
:1015C0001430C3F383134FEA114B6344E3E7A405DC
:1015D00044F0060086E700BFA4590020C06900203F
:1015E000AB960F000D4B0E4840F2FF3241F218014E
:1015F00010B59A6000225A5041F21401C3E900224A
:101600005A5003F581531A7001F0E2FB044610B9F9
:10161000044801F05FFC204610BD00BFA459002023
:10162000FCC70F0000970F0030B50A4C71B10A4A91
:101630000A49121BD20800239A4201D1002030BD72
:1016400031F82350854202D00133F5E7034654F8C0
:101650003300F4E78CC70F00FCC70F006058002070
:10166000094B013903EBC000032909D8DFE801F079
:101670000A020406042070470079704740797047D9
:1016800000207047022070478CC70F00034BD3E93E
:101690000030C31A58425841704700BFA459002077
:1016A0002DE9F04387B0FFF7F1FF0646002840F030
:1016B0000381824D41F21803E850BFF34F8F6B68EE
:1016C000AC680293234003337D4F05EB830002A9EE
:1016D000FFF7C2FE029B10B13A68002A61D004EA0B
:1016E0000302991C013305EB8202234005EB8303BF
:1016F000D268DB68049302F00303022B0392029189
:1017000067D1BDF80E306F48C3F38917502FB84624
:1017100028BF4FF0500868F38F1308F10801ADF8A7
:101720000E3001F06DFB0646002800F0AF8001F09E
:1017300096FB0023082203A9304601F0A3FB02997F
:1017400024EA01020132B8EB820F4FEA820339D951
:101750005FFA88F893B32140DCB2A8EB04080331A8
:101760005FFA88F9A046584C05EB810108234246F0
:10177000304601F087FB34B108F108034A462146A0
:10178000304601F07FFB029B033703EB970702977C
:1017900041F21803EB58002B4FD141F21003EC58E3
:1017A0005EE02A689A4204D86A60304607B0BDE815
:1017B000F0832340033305EB830088E742491C464E
:1017C0009946D3E70C40E11C0823424605EB810112
:1017D000D6E7012B5AD1BDF80C303A48C3F3831138
:1017E000062928BF062161F3891302318900ADF86B
:1017F0000C3001F005FB0646002847D001F02FFB16
:101800000023082203A9304601F03CFB0027BDF865
:101810000C20C2F38312BB00974203F10803B7D236
:1018200002994A1C21400331029205EB81010422F6
:10183000304601F027FB0137E9E7304601F013FBA2
:10184000FFF724FF80F00100C6B2AEE7E3685B79E2
:1018500023B1236831461B6820469847E3681C681B
:10186000002CF3D1304601F0FEFA0DF107008DF89F
:10187000074000F05DFB41F21803EB580BB9029BE7
:101880006B609DF8070000F083FBD9E741F210037D
:10189000EC5854B90D4B0E480E49C01AC00800044C
:1018A00040F0020000F076F8CAE7236820469B6803
:1018B0009847E3681C68ECE7002676E7A459002007
:1018C000BC690020FCC70F00B05900208CC70F0076
:1018D0008CC70F00EA960F002DE9F74F274E0446FC
:1018E0000F46914601A901221846D6F808A098464D
:1018F000FFF7D0FD78B3019D0023A81C434503EBFF
:10190000000132D11E48002100F035FC80F3100B9D
:101910001C4B1D4A4FEA14499B1AB9EBD30F04D351
:101920001A4940F2A31000F06FFB6B1C03EA0A0394
:10193000E40006EB830304F0380449EA0B4005EAAF
:101940000A0544F00104D860033544EA881343EAE9
:10195000872346F825300E4B1B781BB1FFF7A0FEFE
:101960000028FBD103B0BDE8F08F0AEA010106EBC5
:10197000810159F82320CA600133BFE7A459002030
:10198000C0690020FCC70F008CC70F00AB960F008A
:10199000C469002000231A46FFF79EBF07B5012344
:1019A000019201AAFFF798FF03B05DF804FB07B5A9
:1019B000CDE9002302236A46FFF78EFF03B05DF8EE
:1019C00004FB1FB5CDE90123069B039301AA032362
:1019D000FFF782FF05B05DF804FB1FB5CDE90023DA
:1019E000069B0293079B03936A460423FFF774FF49
:1019F00005B05DF804FB7FB5CDE90123089B039397
:101A0000099B04930A9B059301AA0523FFF764FF32
:101A100007B05DF804FB00002DE9F3472B4D0446A9
:101A2000D01C8946164601A900228008AF68FFF73E
:101A300031FDA8B3DDF80480AB6808F10200019025
:101A4000013338401B1AB6EB830F00F103004FEA55
:101A5000830A05EB80002DD83246494607F0B6FDD3
:101A60001B48002100F087FB80F3100008F1010300
:101A70003B40220C05EB830307EA080742EA0040DB
:101A80000337D860E40055F8273004F0380444F0F8
:101A9000020444EA865203F47C131A4345F82720D3
:101AA0000C4B1B781BB1FFF7FBFD0028FBD102B0EC
:101AB000BDE8F0875246494607F088FDA6EB0A02CA
:101AC00009EB0A0105F10C00C8E700BFA45900208A
:101AD000C0690020C469002030B5134A41F21001EA
:101AE000034654580020214649B9DC68207141F270
:101AF000100415594DB91351DB68196030BDC96820
:101B00000D79854209D00968EEE7ED68D9682D683E
:101B10000D601259D2681360F0E701300A28E2D153
:101B20004FF0FF30EAE700BFA459002038B541F27A
:101B30001002094B9C5803F58152012313701D4676
:101B400004B938BDE3685D71236820465B68984737
:101B5000E3681C68F4E700BFA459002007B50346FA
:101B60000846197A052911D05B7A2BB1094A0A492E
:101B7000019000F005FC01980849019000F000FC7C
:101B8000019803B05DF804EB00F0E8BB002AF8D040
:101B9000F2E700BF0C970F00A1C20F002E970F00B5
:101BA00030B5C38885B004460D4633B1144A00925F
:101BB0001449154A284600F0E3FB217A05291DD077
:101BC000637A4BB1A088FFF74BFD104B104953F8D7
:101BD0002020284600F0D4FB227A0E4BA08853F830
:101BE000222003920021FFF71FFD039A0A490346B2
:101BF000284605B0BDE8304000F0C2BB05B030BD9E
:101C00000C970F0019970F0011970F009C970F006A
:101C1000A1C20F00C0970F0031970F002DE9F043CC
:101C200085B01F460C9D002395F80C902B7306463B
:101C30000C46904629463846FFF7B2FFB8F1060F2A
:101C400009D8DFE808F00412181F28334000314695
:101C5000284600F095FB002229463846FFF77EFF14
:101C600085F80C9005B0BDE8F0832268314628461F
:101C700000F086FBEFE7D4E900233146284600F068
:101C80007FFBE8E7A36800933146D4E900232846A8
:101C900000F076FBDFE7E3680193A3680093314629
:101CA000D4E90023284600F06BFBD4E723690293B4
:101CB000E3680193A36800933146D4E900232846E2
:101CC00000F05EFBC7E76369039323690293E3684F
:101CD0000193A36800933146D4E90023284600F01D
:101CE0004FFBB8E708292DE9F84F80460E46174606
:101CF0001C463BD8002593F80C901D7319461046DE
:101D0000FFF74EFFDFF88CA0DFF88CB0AE422FD982
:101D100018F805205946204600F032FB0135082D01
:101D2000F4D11949194DDFF874A0204600F028FBC2
:101D30004FF0000B5E4522D918F80B207E2A1CD8E4
:101D4000134BD15C11F0970F08BF2E22514620464D
:101D500000F016FB0BF1010BBBF1080FEAD10122D9
:101D600021463846FFF7FAFE84F80C90BDE8F88F5C
:101D70005146204600F004FBD0E72E22E6E7294634
:101D8000204600F0FDFAE5E745970F0043970F0066
:101D900065C60F0041970F003B970F0047970F0054
:101DA0004B1C30B5DB00044612F003009BB20DD192
:101DB000074D2A601A44074B1A60074B1870074BEF
:101DC0001870074B1C80074B198030BD0720FCE7BB
:101DD000686A0020646A0020606A0020706A00203F
:101DE0006C6A00206E6A00202DE9F3472B4F3B8878
:101DF0008B4206460D4690464BD300240DF107005A
:101E00008DF8074000F094F8254B26481A78264BA9
:101E1000008893F800C084455FFA8CF138BF4C1CF1
:101E2000D2B238BFE4B2A2422DD01C781A78D1B217
:101E3000904286BF0131C9B2002119709DF8070098
:101E400000F0A6F84FF6FF739C4224D0DFF86090B4
:101E5000D9F800204FEAC40A42F8348002EBC403E8
:101E6000A6B19DB1114B38881B682A4604FB00308F
:101E7000314607F0ABFBD9F80030534400209D8079
:101E800002B0BDE8F0874FF6FF74D7E700209880D6
:101E9000F6E70920F4E70420F2E700BF6C6A0020AF
:101EA000706A00206E6A0020606A0020646A002068
:101EB000686A0020F8B5114C114D264622782B781F
:101EC0009A4200D1F8BD0F480F4A2378126807885C
:101ED0000E4802EBC301006852F83320898803FBE7
:101EE000070090470A4922780988D3B2914286BFF9
:101EF0000133DBB200233370E0E700BF706A0020DB
:101F0000606A00206C6A0020686A0020646A002011
:101F10006E6A0020EFF30583C3F308032BB9EFF3D8
:101F20001480C04300F0010070470120704700009A
:101F300070B50446FFF7EEFF012803D01049432097
:101F400000F062F8EFF3108672B60E4A9068012333
:101F500098B993600C4B0D4DD3F880102940116057
:101F6000C3F88050D3F8841051604FF0FF32C3F8AB
:101F70008420207006B962B670BD2370FAE700BFF6
:101F8000D4970F00A0AC002000E100E0FC06FFBDEC
:101F900010B50446FFF7BEFF012803D009495120C0
:101FA00000F032F8084B9A685AB154B9EFF3108137
:101FB00072B6064A18681060586850609C6001B993
:101FC00062B610BDD4970F00A0AC002000E100E085
:101FD00030B53AB11368DB430A4D0144814204D164
:101FE000D84330BD4FF0FF33F6E710F8012B5340D4
:101FF000082213F0010418BF2C46013A84EA530367
:10200000F7D1EBE72083B8ED07B5ADF800000191FB
:102010006A46002144F2020001F07CFE03B05DF844
:1020200004FB10B561B1B2FBF3F403FB1424A4B2BA
:1020300044B9C0E9001484608281C381204610BD88
:102040000E20FCE70920FAE782B050E8022FC18891
:10205000B2EB324F4FF0000317BF92B241EA014199
:1020600042EA014104E04268B2EB324F08BF01236B
:1020700040E80212002AE8D18DF807309DF80730B9
:10208000002B0CBF1120002002B0704737B550E87C
:10209000013F9DB2C48925448489A54228BF2D1BD8
:1020A0000489A54202BFBFF32F8F002207E0C5EAD3
:1020B000030540E80154002CE9D14FF001028DF8EE
:1020C00003200193019B9DF803200B6002F0FF03A6
:1020D00022B10B880068184403B030BD1846FBE7F6
:1020E0000A884B889A4209D150E8012FC2EA02427D
:1020F00040E80123002BF7D10120704700207047F2
:1021000037B550E8023F1FFAA3F5C488A54202BFC5
:10211000BFF32F8F00220DE0C48925448489A54296
:1021200028BF2D1BC3EA054540E80254002CE8D126
:102130004FF001028DF803200193019B9DF80320CD
:102140000B6002F0FF0322B14B880068184403B013
:1021500030BD1846FBE70A884B889A4209D150E8FF
:10216000022FC2EA224240E80223002BF7D10120CD
:1021700070470020704710B5034653E8000F0A4629
:1021800043E8002494F0000FF7D110BD10B50346CA
:1021900053E8000F40EA010243E8002494F0000FE6
:1021A000F6D110BD10B5034653E8002F42EA0100F6
:1021B00043E8000494F0000FF6D110BD10B50346BB
:1021C00053E8000F00EA010243E8002494F0000FF6
:1021D000F6D110BD10B5034653E8002F02EA010006
:1021E00043E8000494F0000FF6D110BD10B503468B
:1021F00053E8002F02EB010043E8000494F0000FC5
:10220000F6D110BD10B5034653E8002FA2EB010034
:1022100043E8000494F0000FF6D110BD0121FFF750
:10222000B5BF0121FFF7BEBF0021FFF7C7BF0021E7
:10223000FFF7D0BF10B50446002834D003681BB99F
:102240001A49FF20FFF7E0FE636823B917494FF4EE
:102250008070FFF7D9FEA36823B9144940F201103A
:10226000FFF7D2FEE36823B910494FF48170FFF7FE
:10227000CBFE238A23B90D4940F20310FFF7C4FEB9
:10228000D4E9012321689B1ADBB20A60013BDBB26F
:10229000FF2B226802D10020107110BD1168481C6C
:1022A00010600B70F2E70E20F7E700BF1A980F00DE
:1022B00037B5044620B914494FF49270FFF7A4FED5
:1022C00000250DF107008DF80750FFF731FE226859
:1022D000616813688B4210D9591E116013F8015CB4
:1022E000228AE36802FB05352268A36811685B1A3D
:1022F0001179DBB2994238BF13719DF80700FFF7DF
:1023000047FE284603B030BD1A980F0037B50C467B
:10231000054620B9104940F24710FFF775FE24B971
:102320000D494FF4A470FFF76FFE00230DF1070075
:102330008DF80730FFF7FCFD2A681368591C1160FF
:10234000E968641A298AB4FBF1F41C709DF807004F
:10235000FFF71EFE03B030BD1A980F0010B50446FB
:1023600018B906493120FFF74FFEA2682AB1636908
:102370002168206998470023A36010BD52980F0080
:102380000EB433B5059D044618B911494220FFF734
:102390003BFE63691BB90E494320FFF735FE2368F6
:1023A0001BB90B494420FFF72FFE63681BB908498E
:1023B0004520FFF729FE35B106AB01AA2946204684
:1023C000019300F079F802B0BDE8304003B07047E7
:1023D00052980F000A2938B504460D4602D10D2146
:1023E000FFF7F8FFA3682268591CA160D554D4E90F
:1023F00001329A4204D32046BDE83840FFF7AEBF11
:1024000038BD00002DE9F84F9846DDE90A4315462E
:1024100082460F460A464FF00109AA420FD2C14533
:1024200038BFC14613F0010B01D16CB9002401265D
:10243000B8F1010F1BD908F1FF386E43F8E709F135
:102440000109B2FBF5F2E8E79B070ED5B8F1000FE2
:102450000CBF30262026A145E9D2013C314650462A
:10246000FFF7B8FF002CF6D1E0E72026F3E7B7FB33
:10247000F6F39D42E1D9DFF83C80B7FBF6F3504616
:1024800018F8031006FB1377FFF7A4FF3346AB429F
:10249000B6FBF5F6F1D2BBF1000F02D00CB1A145AD
:1024A00001D3BDE8F88F20215046013CFFF792FF91
:1024B000F4E700BFB5980F002DE9F74F884617469F
:1024C000054620B9B1494FF4A270FFF79DFD6B6935
:1024D00023B9AE494FF4A370FFF796FD2B6823B9DB
:1024E000AA4940F24710FFF78FFD6B6823B9A7494F
:1024F0004FF4A470FFF788FDB8F1000F00F042819F
:1025000018F8011B49B92B7B002B00F03B812846B2
:1025100003B0BDE8F04FFFF721BF252940F0B78099
:10252000002698F800302D2B424608F1010823D0F0
:10253000302B24D02B2B25D000242A2B02F1010193
:1025400023D13B681A1D3A601B680A461C44137865
:102550002E2B26D101324FF0000A104610F8011B35
:10256000A1F1300CBCF1090F1DD80A2303FB0A139B
:10257000A3F1300A0246F0E746F00106D1E746F043
:102580000206CEE746F00406CBE711F8013CA3F1C2
:1025900030000928DBD80A2202FB0434303C0A460A
:1025A000CBE74FF0000A12F8011B01F0FB0068288E
:1025B0009046F8D0782909D86F290CD8632962D0C1
:1025C00022D8252963D0582900F0888098F8003057
:1025D000002B95D197E770390829F7D801A353F854
:1025E00021F000BF5F270F00CD250F00CD250F0084
:1025F000ED260F00CD250F00CB260F00CD250F00B7
:10260000CD250F00DD260F00642901D06929DDD119
:102610003A68111D3960D2F8009089EAE972A2EB9C
:10262000E9724FF0010B092A35DCD34538BFD34698
:102630002CB1B9F1000F01DB720700D5013CB307E3
:1026400002D5BAF1000F03D0F00701D44CBB00242F
:10265000B9F1000F2DDAC9F100092D212846FFF745
:10266000B9FE06F00302022A04D1BAF1000F01D12B
:102670001CBB0024CDE9004653460A2249462846A1
:10268000FFF7C0FEA2E73B681A1D3A60197828469A
:10269000FFF7A0FE9AE70A230BF1010BB2FBF3F25E
:1026A000C1E7A345D4D220212846013CFFF792FE82
:1026B000CCE77107D5D52B21D0E7A345DAD230215D
:1026C0002846013CFFF786FED2E73968CDE900468F
:1026D0000A1D3A6053460A220968D0E739680A1D84
:1026E0003A60CDE9004653461022F5E73B681A1DD3
:1026F0003A6016F00106D3F8009028D1B9F1000F26
:1027000003D0484606F080FF0646B44200D904BB19
:1027100009F1FF3919F8011F00293FF457AF284686
:10272000FFF758FEF6E728460136FFF753FE19F883
:1027300006100029F7D1A642BFF448AF002C3FF4A1
:1027400045AF20212846013CFFF744FEF3E7002671
:10275000EDE720212846013CFFF73CFED5E73B682A
:102760001A1D3A60302128461C68FFF733FE782195
:102770002846FFF72FFE00220823CDE9003221462C
:1027800010227CE703B0BDE8F08F00BF80980F00F7
:1027900070B50D461646044618B908495520FFF78E
:1027A00033FC1DB905495620FFF72EFC25602B6828
:1027B00031462046BDE87040184700BFC5980F005D
:1027C0002DE9F041DDF818800E4617461D460446F7
:1027D00018B922498820FFF717FC1FB91F49892023
:1027E000FFF712FC23681BB91C498A20FFF70CFC79
:1027F00045BB1A498B20FFF707FCB20703D01749E6
:102800009120FFF701FCBB0703D014499220FFF78A
:10281000FBFBE3689E4204D322696B1E3344934260
:1028200003D90E499320FFF7EFFB2368CDF81880FA
:10283000D3F80CE03A462B4631462046F446BDE834
:10284000F041604763685A68B5FBF2F302FB13532B
:10285000002BD2D001498E20CDE700BFC5980F00D4
:102860002DE9F0410D4616461F46044618B9194990
:102870009E20FFF7C9FB23681BB916499F20FFF76D
:10288000C3FB1EB91349A020FFF7BEFB63681B689A
:10289000013B2B4203D00F49A320FFF7B5FBE368B0
:1028A0009D4207D363681B686A1E03FB06232269E7
:1028B000934203D90749A520FFF7A6FB2368D3F865
:1028C00010E032463B4629462046F446BDE8F0413A
:1028D000604700BFC5980F0070B550B90E4D0F4C42
:1028E0000026641B1423B4FBF3F4B44208D1002087
:1028F00010E00368002BF1D0BDE87040DB69184799
:102900002B6813B901361435EFE7DB692846984781
:102910000028F7D070BD00BF605800207458002018
:10292000014B43600020704710990F000846704724
:1029300000207047024B1868003818BF012070470C
:10294000746A002008B50248FFF771FC002008BD3A
:10295000746A002008B510461A4606F037FE0020BB
:1029600008BD00002DE9F043814687B014480E46AB
:1029700015469846FFF752FC0446F0B90746BD429B
:1029800015D10F48FFF753FCD9F808305BB102228C
:102990008DF800200022CDE90126CDE90325CDF8F0
:1029A000148068469847204607B0BDE8F08306EBE0
:1029B000073000F0F3FF0137E1E71124F3E700BF30
:1029C000746A00202DE9F041804686B011480F4618
:1029D00016461D46FFF722FC0446C8B9AA08314630
:1029E000384600F0F3FF0B48FFF721FCD8F8083019
:1029F00053B101228DF800200C9A0592CDE90147D0
:102A0000CDE9036568469847204606B0BDE8F081E9
:102A10001124F9E7746A002029DF704728DF704726
:102A200070B50668B36886B004460D4673B11422CB
:102A30000021684606F0D8FDA36805932379019527
:102A400033B1012B0ED0B3686846984706B070BD0D
:102A500001238DF8003023690293E36803936369CF
:102A60000493F0E702238DF80030E3681B03029320
:102A7000F5E708467047002070470000024B187ABF
:102A8000003818BF01207047646C0020034B187A8F
:102A90000122B0FA80F05A7440097047646C00203B
:102AA00008B510461A4606F091FD002008BD00004A
:102AB00008B514220021044806F096FD0348FFF7EC
:102AC000C3FA002008BD00BF646C0020546C0020D5
:102AD00010B5094C094B43602046FFF79FFB48B9EE
:102AE00000F0EAFD064920741C2306484FF4EE72FC
:102AF000FFF797FA002010BD646C00203C990F008E
:102B0000786A0020546C002070B5234C234E237A41
:102B100025463BB922492348FFF7F2FA306008B94D
:102B2000606070BD022334682B72237973B1012B6E
:102B300022D020460321FFF773FF00232B726B6026
:102B4000BDE8704016491748FFF705BBD4E90523D7
:102B5000D21A142AD4E9031028BF14229208012A99
:102B600038BF012219441844FFF756FF50B111280D
:102B7000DFD101232B72D4E7D4E903031844FFF714
:102B80004DFFF3E72B7C002BCBD10146BDE8704015
:102B9000022000F009B800BF646C00207C6C0020AB
:102BA000786C0020546C002038B5831E012B43D86C
:102BB000224C237A002B3FD0022B09D103282ED0A0
:102BC0001F4B00221B68E2601A793AB1012A20D01B
:102BD000637C6BBBBDE83840FFF796BFD3E90512B5
:102BE0008D1A142D94BF521914329A619142EFD16B
:102BF00002284FF0000308BF19462372104B18BF7C
:102C00000D211868FFF70CFF0E490F48FFF7A3FAD4
:102C1000DEE71A6901321A615B699A42E7E7E36805
:102C20000133082B01D8E360D2E70023E360DFE73C
:102C3000BDE8384000F030BD38BD00BF646C0020F6
:102C40007C6C0020786C0020546C002000F0FD03A8
:102C5000012B08D1044B00225A74421E50425041AD
:102C60001874FFF751BF7047646C002010B5064C14
:102C7000201DFFF7D3FA28B9637C1BB9BDE81040CB
:102C8000FFF742BF10BD00BF646C00202DE9F34187
:102C900080460D460F4801A916461F46FFF7F6F974
:102CA0000446A8B11C22002106F09EFC2D0B012336
:102CB000237101A90748C4F80080A760E560666138
:102CC000FFF70EFAFFF7D2FF002002B0BDE8F08157
:102CD0000420FAE7546C00202DE9F743814688462A
:102CE000104801A917461E46FFF7D0F90446B0B1B7
:102CF0001C22002106F078FC00250A9BA36001A994
:102D0000C4E9037807482571C4F800906661FFF7AD
:102D1000E7F9FFF7ABFF284603B0BDE8F0830420D6
:102D2000FAE700BF546C00202DE9F74F99469DF853
:102D30003030009388469346064618B92349B6209A
:102D4000FFF762F9F18872794A43043A4A4505D897
:102D50001E490192C420FFF757F9019ADBF8007071
:102D6000B6F806A007EB0901914209F1040488BFF7
:102D7000A2EB0907B4FBFAF5CBF800700AFB154487
:102D800045B9AAEB040BBB4528BFBB462FB903B01E
:102D9000BDE8F08F3668013DF2E7009B043408EB94
:102DA000050034445A466BB12146A7EB0B0706F0E9
:102DB0000DFCBA455D443668D3464FF0000428BF89
:102DC000BB46E3E701462046EFE700BF68990F00E6
:102DD000FFF730BAF8B546790146721E0546002362
:102DE00093422D6803D30024A64202D8F8BD0133D4
:102DF000F6E70F682846FFF789FA01343946F3E70A
:102E00002DE9F843CD1C068A0746FFF751FA043E28
:102E100035440446B5FBF6F5F0B14FF48073EDB2DE
:102E20008380C680013D076081464FF00008A845B9
:102E300012D23846FFF73CFA064648B163790133AF
:102E4000637108F10108C9F8000007608146EEE7E8
:102E50002046FFF7BFFF34462046BDE8F883012136
:102E60000430FFF7C3B910B5012104460430FFF761
:102E7000C9F910F0FF0F04D12046BDE81040FFF75C
:102E8000A9BF10BD1FB5144603920022009203AAE9
:102E9000FFF74AFF039BA34203D00349F620FFF745
:102EA000B3F804B010BD00BF68990F001FB51446F9
:102EB00003920122009203AAFFF736FF039BA3426D
:102EC00004D003494FF48070FFF79EF804B010BDA2
:102ED00068990F008268002393608268136182689A
:102EE00053618268D3608268536082681360704760
:102EF00038B50D46044618B908495020FFF784F844
:102F00001DB906495120FFF77FF825602B686360E3
:102F10006A68934204BF0023636038BDA0990F0024
:102F200010B5044618B90B496320FFF76DF8236804
:102F30001BB908496420FFF767F8636843B122684A
:102F400091680B4463605268934204BF002363603E
:102F500010BD00BFA0990F0010B50D49A1F59472E6
:102F6000914201D800200FE08C1AE30F03EBE40339
:102F70005B1002EBC30452F83330834205D802D20F
:102F800004F10802ECE7606810BD2146E8E700BFE5
:102F9000E89E0F0008B5FFF7DFFF024B002808BFCF
:102FA000184608BDAB9D0F00054B1B68082B01BFE1
:102FB000044B1868B0FA80F0400918BF0020704731
:102FC000300100103401001008B54FF0804300229A
:102FD000C3F80C21C3F81021C3F838254FF08052F4
:102FE00003F54043D2F80414C3F82015D2F80814AE
:102FF000C3F82415D2F80C14C3F82815D2F810140D
:10300000C3F82C15D2F81414C3F83015D2F81814DC
:10301000C3F83415D2F81C14C3F84015D2F82014A4
:10302000C3F84415D2F82414C3F84815D2F828146C
:10303000C3F84C15D2F82C14C3F85015D2F830143C
:10304000C3F85415D2F83414C3F86015D2F8381404
:10305000C3F86415D2F83C14C3F86815D2F84014CC
:10306000C3F86C15D2F84424C3F87025FFF79CFF11
:1030700010B1384B384A1A60FFF796FF18B1374B3A
:10308000FB22C3F81825FFF78FFF48B13449354BB1
:103090000A681B6822F00F0203F00F0313430B6052
:1030A000FFF782FF18B1304B4FF400721A604FF0F7
:1030B0008043D3F80024D20744BF6FF00102C3F865
:1030C00000242A4AD2F8883043F47003C2F88830CA
:1030D000BFF34F8FBFF36F8F4FF01023D3F8002251
:1030E000002A03DBD3F80432002B2FDA204B012215
:1030F000C3F80425D3F80024002AFBD04FF0102297
:103100001221C2F80012D3F80024002AFBD04FF09D
:1031100010231222C3F80422154B1A46D3F80014C8
:103120000029FBD00021C3F80415D2F80034002B8D
:10313000FBD0BFF34F8F0D490E4BCA6802F4E0621B
:103140001343CB60BFF34F8F00BFFDE70A4B0B4A21
:103150001A6008BD8C5600404881030000F0004012
:10316000E40E0040580200104096024000ED00E0DE
:1031700000E001400400FA05C05700200090D00391
:1031800038B52022044608300D4606F01FFA2022EA
:10319000A91804F1280006F019FA002038BD000033
:1031A0002DE9F3411B4D98461B4B036004460E4628
:1031B000284601211746FEF7DEFFBFF35F8F30BBC5
:1031C00000F0F6F83B46089ACDF8008006F10801B9
:1031D000204605F051F8044600F0F8F82B68012B62
:1031E00003D00E499320FEF70FFFBFF35F8F00233C
:1031F0002B6044B10A4948F2165248F242538C42BD
:1032000014BF14461C46204602B0BDE8F08148F2C7
:103210000454F8E7ACAC0020DD55AABBF49E0F00C7
:103220008408F0000E4B984214D00AD8B8B10D496A
:1032300048F2165248F20153884214BF104618460D
:103240007047094B984208D0084948F2165248F294
:103250000353F1E748F20350704748F202507047B9
:103260000102F0000002F0000202F0000F02F00084
:1032700008B5083005F06AF8BDE80840FFF7D2BF8E
:1032800010B5064C2268012A03D005499320FEF7A9
:10329000BBFEBFF35F8F0023236010BDACAC0020EA
:1032A000F49E0F0013681F2B73B505460E46144697
:1032B0001AD901210F48FEF75EFFBFF35F8FB0B947
:1032C00000F076F8314605F1080005F0B1F80190FC
:1032D00000F07CF8FFF7D4FF0198FFF7A3FF08B9CF
:1032E0002023236002B070BD48F21450FAE748F280
:1032F0000450F7E7ACAC00202DE9F04105460E463E
:10330000184801211446FEF736FFBFF35F8F20BB3C
:1033100000F04EF8DFF850800835B4F5805F27469E
:1033200028BF4FF4805731463A46404606F04EF9E2
:103330003A464146284605F023F8E41B3E4450B97E
:10334000002CEAD100F042F8FFF79AFF2046BDE8D2
:10335000F041FFF767BF0446F4E748F20450BDE8C8
:10336000F08100BFACAC0020806C0020024B00203C
:10337000C3F80005704700BF00A0025038B50A4BE3
:1033800000251D60BFF35F8F084C0123C4F8003592
:1033900005F07EF8C4F8005520B1052848F2035026
:1033A00018BF032038BD00BFACAC002000A0025005
:1033B000044B0122C3F80025034B4FF480625A608E
:1033C000704700BF00A0025000E100E0044B002263
:1033D000C3F80025034B4FF48062C3F88420704784
:1033E00000A0025000E100E010B503682F2B044656
:1033F00004D907494FF4F370FEF706FE23681F2B2C
:1034000083BF03F01F03034823604FF0A04010BDAB
:10341000409F0F0000030050032813B5044603D952
:1034200008494120FEF7F0FD074B01A81B5D019301
:10343000FFF7DAFF019A01239340C0F80C3502B080
:1034400010BD00BF6B9F0F00999F0F00032813B59D
:10345000044603D908494720FEF7D6FD074B01A8CB
:103460001B5D0193FFF7C0FF019A01239340C0F851
:10347000083502B010BD00BF6B9F0F00999F0F0071
:1034800008B50020FFF7E2FF0120FFF7DFFF022071
:10349000FFF7DCFFBDE808400320FFF7D7BF0000BF
:1034A000F7B5C207044612D5134E0025032716F8B8
:1034B000013B019301A8FFF797FF019B013503F53D
:1034C000E073042D40F82370F1D1FFF7D9FFA30773
:1034D00010D50A4D00240C2615F8013B019301A8D4
:1034E000FFF782FF019B013403F5E073042C40F8E1
:1034F0002360F1D103B0F0BD999F0F00959F0F009D
:1035000010DF704711DF704713B50446094968465C
:10351000FFF7EEFC019808B902B010BDD0E9002118
:103520002046904718B16846FFF7FAFCF2E71120F1
:10353000F2E700BFAC9F0F0013B504460749684689
:10354000FFF7D6FC019B0BB902B010BD2046D3E9B2
:10355000002190476846FFF7E3FCF3E7C49F0F00A4
:10356000064B9A6822B11A6822F480021A607047EA
:10357000034B4FF48002C3F880207047A0AC0020BA
:1035800000E100E00B4991F816335A09EC2313418E
:10359000DB0706D5084B9A683AB94FF480030B60F5
:1035A000704742F2020000F0CBBB1A6842F480027E
:1035B0001A60704700E100E0A0AC0020F7B5194F99
:1035C0003C7864BB184E012520463570FFF79CFF00
:1035D000112821D02046FFF7AFFF144B8DF8034090
:1035E000186801900DF10300FEF7A2FC104901A834
:1035F000FFF786FF0446B0FA80F0400938709DF866
:103600000300FEF7C5FC3CB90A4B34701C70FFF791
:10361000B9FF2846FFF790FF204603B0F0BD08240D
:10362000FAE700BF817C0020807C0020A59F0F006E
:10363000153D0F00827C0020F7B5154F3B781BB37A
:10364000144E01203070FFF75FFF11284FF0000586
:103650001CD00220FFF770FF0DF107008DF8075016
:10366000FEF766FCFFF74EFF04469DF807003D702D
:10367000FEF78EFC2CB93470FFF772FF0320FFF7C2
:103680005BFF204603B0F0BD0824FAE72C46F8E7BC
:10369000817C0020807C0020054B1B7833B1054BDA
:1036A0001B780BB1FFF7C8BFFFF788BF0820704732
:1036B000807C0020817C0020014B1878704700BF7F
:1036C000817C002007B508496846FFF711FC019B83
:1036D00013B903B05DF804FBD3E9002090476846B6
:1036E000FFF71EFCF3E700BFB89F0F00FFF7EABF2C
:1036F00060DF704769DF704761DF704730B5114D9B
:10370000ADF5017D4FF4FA740DF1020103A8ADF897
:103710000240FFF7F1FF70B9294601A8FFF7E8FB67
:10372000029B002BF0D003A8D3E90021904701A809
:10373000FFF7F6FBF4E7052801D000F001FB0DF5DB
:10374000017D30BDC4A10F00024B1B780BB1FFF708
:10375000D5BF7047837C002018B1034B0360002065
:1037600070470E20704700BFB857002030B505469F
:1037700085B00C46002900F0B5805B4B0B600C2235
:10378000002101A805F030FF01238DF806302268E2
:103790008DF80450062301A92020ADF80830FFF76A
:1037A000A9FF60B1FFF7F6FB504B51490246514863
:1037B0001B1ADB081B0443F00100FEF7EFF80C2294
:1037C000002101A805F010FF01238DF805302268C3
:1037D000002301A94020ADF80630FFF78BFF60B150
:1037E000FFF7D8FB414B4449024642481B1ADB080D
:1037F0001B0443F00100FEF7D1F80C22002101A8C0
:1038000005F0F2FEF72322688DF8045001A9232069
:10381000ADF80630FFF76EFF60B1FFF7BBFB334B2F
:103820003649024633481B1ADB081B0443F00100EB
:10383000FEF7B4F80C22002101A805F0D5FE012006
:1038400022688DF8040001A9FFF754FF60B1FFF76B
:10385000A1FB264B2A49024626481B1ADB081B04FB
:1038600043F00100FEF79AF80C22002101A805F0B0
:10387000BBFE4FF4B0632268019301A9A120FFF7BA
:1038800039FF60B1FFF786FB184B1E490246194805
:103890001B1ADB081B0443F00100FEF77FF80C2223
:1038A000002101A805F0A0FE9DF8043022686FF306
:1038B000000301A9A0208DF80430FFF71BFF034689
:1038C00068B1FFF767FB094B0F49024609481B1A0D
:1038D000DB081B0443F00100FEF760F800231846E4
:1038E00005B030BD0E23FAE7B8570020ECC70F0033
:1038F000D09F0F008CC70F0016A00F0062A00F0012
:10390000A9A00F00F5A00F0046A10F0010B5FFF70A
:10391000EFFE044620B9094B01221A70204610BD63
:10392000FFF738FB064B0749024607481B1ADB081E
:103930001B0443F00100FEF731F8EFE7837C002021
:10394000ECC70F0099A10F008CC70F004BDF704729
:103950001FB50D4C01A8FFF7F9FF70B9214602A869
:10396000FFF7C6FA039B002BF4D00198D3E900219E
:10397000904702A8FFF7D4FAF4E7052801D000F039
:10398000DFF904B010BD00BFDCA10F00024AD2F87D
:103990000034002BFBD0704700E001400A4908B515
:1039A0000223C1F80435BFF36F8FBFF34F8FC1F807
:1039B0000805FFF7EBFF0023C1F80435BFF36F8F55
:1039C000BFF34F8F08BD00BF00E001400E4B10B5A4
:1039D0000124C3F80445BFF36F8FBFF34F8F01EB92
:1039E0008204401AA14208D1074B0022C3F80425E3
:1039F000BFF36F8FBFF34F8F10BD431851F8042BE7
:103A00001A60FFF7C3FFEDE700E0014028B139B1CC
:103A10000023C1E900301846704748F21050704743
:103A200048F21350704738B1006848F2405388425A
:103A300014BF18460020704748F21050704730B14C
:103A400048F21153914214BF18460020704748F2C3
:103A50001050704770B506460C461D46FFF7D6FF5E
:103A600050B9B3794AB1AB420AD111462046FFF7AB
:103A700087FB08B9044B236070BD48F21050FBE788
:103A800048F21150F8E700BF7052464D2DE9F0435F
:103A900083B00D4602AF04461149D7F8208028466E
:103AA00016469946FFF7BFFF98B96B68796A5A794D
:103AB00040465200FFF7C3FF58B976B10CB9AAB01F
:103AC00002ACCDF800804B46324629462046FFF72F
:103AD00067FB0437BD46BDE8F08348F21050F8E7B5
:103AE0007052464D10B5044638B149B141600B687B
:103AF000984708B9044B236010BD48F20150FBE71A
:103B000048F21050F8E700BF6E524648F0B4134632
:103B100048B10768094EB7420AD161B12AB143687A
:103B2000F0BC5B68184748F201531846F0BC704778
:103B300048F20253F9E748F21053F6E76E5246484E
:103B4000F0B460B107680C4EB7420CD171B1436854
:103B50001568DC68A5420CD3F0BC9B68184748F296
:103B60000150F0BC704748F20250FAE748F2135097
:103B7000F7E748F21450F4E76E524648F7B50446AA
:103B8000DDE9086715460193FFF7ACFF68B9019AB4
:103B900029462046FFF7BAFF38B93A463146204653
:103BA00003B0BDE8F040FFF7CBBF03B0F0BD0000AD
:103BB000F8B50A4F0A4C0B4DE41B0121E4082970AB
:103BC0000026A64203D102232B700020F8BD57F82F
:103BD000363098470028F9D10136F2E770C70F0058
:103BE00078C70F00847C002038B50D46044618B90C
:103BF00008493320FEF708FA691E21442046814215
:103C000000D238BD03780A7800F8012B01F8013999
:103C1000F5E700BFE8A10F0070B50D461446064653
:103C200018B90A494520FEF7EFF91DB907494620A2
:103C3000FEF7EAF9621E3244013DB24200D270BD85
:103C400015F8013F02F80139F7E700BFE8A10F00BE
:103C500070B5164604460D46FFF7DEFF3246A91939
:103C6000A019BDE87040FFF7D7BF38B50D46044630
:103C7000FFF7BAFF29466019BDE83840FFF7B4BF27
:103C800008B507281BD8DFE800F004121A1A1A0436
:103C90001A040120FFF704FC0020FFF7BDFB012000
:103CA000FFF7BAFBBDE808400220FFF7CFBB0120B9
:103CB000FFF7CCFBBDE808400220FFF7ADBB08BD15
:103CC00008B5FDF733FFFDF7EBFC0028FBD10D4DE8
:103CD000642445F001054FF47A40A847013CFAD12D
:103CE000094B1B68DB0700D500BEBFF34F8F0749A8
:103CF000074BCA6802F4E0621343CB60BFF34F8FF7
:103D000000BFFDE7E0A20F00F0ED00E000ED00E0F5
:103D10000400FA0507B50B46064C07490092641AE1
:103D2000E40824040246054944F00100FDF749FE79
:103D3000FFF7C6FF8CC70F008CC70F0068A20F00EB
:103D400008B50246054B064806491B1ADB081B044A
:103D500043F00100FDF722FEFFF7B2FF8CC70F0012
:103D60008CC70F009FA20F0040F6F873114A1B6822
:103D700093421CD040F6FC734FF47E2119600E4B29
:103D80000121C3F80415D3F800140029FBD040F634
:103D9000F8710A6040F6FC724FF47E211160002237
:103DA000C3F80425044AD2F80034002BFBD00020CD
:103DB000704700BF00100F0000E0014038B5FFF76A
:103DC000D3FF002210464FF4805100F045FB02461D
:103DD00008B1FFF7B5FF1348C0F57E2100F03CFBAA
:103DE00001460028F5D11048104CFDF7FBFBFDF70C
:103DF0001BFB0F4B0F49E41AE408240444F00304AE
:103E00002046FDF7C7FD0C4800F0DAF9054600280A
:103E1000DFD100F0E3FA20460849FDF7BBFD284654
:103E200038BD00BF00100F001D480F008CC70F00E9
:103E30008CC70F00BAA20F00813C0F00C6A20F0072
:103E400038B1054B0360054B43600123037200202A
:103E500070470E20704700BF873E0F00613E0F0085
:103E600069B10B78022B0CD1022804D0032814BFAF
:103E700008201120704703230B70002070470E208C
:103E800070470820704710B50C4681B10B78012BA4
:103E900006D00ED9033B012B94BF0820112010BD82
:103EA00003F02CF80028FAD102232370F7E70E2044
:103EB000F5E70820F3E7000070B5144B144A0C2115
:103EC000D21AB2FBF1F2816911F8025C044635B9ED
:103ED00000690021914205D1012323600EE04FF0DB
:103EE000FF30F6E71E68AE420CD1461C07D19D6834
:103EF000D4E90001D4E90223A847206070BD5E68C0
:103F00008642F4D001310C33E4E700BF80C70F00D4
:103F10008CC70F001EF0040F0CBFEFF30880EFF307
:103F20000980FFF7C9BF00BF0369C1688B429DBF0D
:103F30008268D21802F1FF3203F1FF3394BF501AA6
:103F4000581A70472DE9F843D0E902940546A9EBC9
:103F500004084068904520440F46144404D905F0F5
:103F600035FBEC60BDE8F8834246A4EB090405F09C
:103F70002DFB6868224607EB0801F0E72DE9F843BE
:103F8000C5680646894617464FF000083469B3688D
:103F90007068A54228BFE418013C621B5C1BBC4250
:103FA00028BF3C46944228BF14464946284422462E
:103FB00005F00CFBB3682544AB4208BF00253F1B4E
:103FC000A044A144F560E1D14046BDE8F88300007B
:103FD00010B5114C114AA2610223C4E90433104BFD
:103FE000E361A2644FF480530E4A0F492362E264F6
:103FF00000231022E01DA3626362E362A365636590
:10400000E365226505F0F8FA0849204605F0F4FA60
:104010002023A37110BD00BFB0AC0020E6A20F00AA
:10402000957C0020857C0020EFA20F00F3A20F00FA
:10403000F8B5184C182300FB033503FB004025445A
:10404000C46A012C0F4616460FD0022C1AD0F4B9C0
:104050002846FFF769FF864205D83246394628468A
:10406000FFF770FF34462046F8BD2846FFF75CFF97
:104070008642344628BF0446224639462846FFF782
:1040800061FFF0E72846BDE8F840FFF777BF00245E
:10409000E9E700BFB0AC0020FFF79ABF41DF7047EF
:1040A000014B01221A707047B890002008B50948EA
:1040B000094B0A49C01AC008000440F00400FDF78B
:1040C00069FC074B074800221A70BDE8084002F05F
:1040D00031BE00BF8CC70F008CC70F00FAA20F00C3
:1040E000B890002051410F0008B50748074B084918
:1040F000C01AC008000440F00300FDF74BFCBDE807
:104100000840FFF7D3BF00BF8CC70F008CC70F005C
:1041100010A30F00042810B5044607D8022808D9B8
:1041200009494FF4701000F039FB02E0831F012BA6
:1041300006D9064B1B6833B12046BDE8104018472E
:10414000FFF7B4FFF5E710BDE9400F00BC90002079
:1041500008B5FDF7EBFCFDF7A3FA0028FBD10B4DEA
:10416000642445F001054FF47A40A847013CFAD198
:10417000BFF34F8F0649074BCA6802F4E06213434E
:10418000CB60BFF34F8F00BFFDE700BFC0A40F009F
:1041900000ED00E00400FA0508B50648064B0749A3
:1041A000C01AC008000440F00400FDF7F3FB002033
:1041B00008BD00BF8CC70F008CC70F0024A30F00E1
:1041C000F8B56D4B6D4C6E49E41AE408240444F0D4
:1041D000040705463846FDF7DDFB6A4B6A4A1D6059
:1041E0004FF0A0430020C3F8642702F0B9FD002877
:1041F00040F0BD8000F084FC012800F0B18002286E
:1042000000F0B780002840F0B2804FF08043D3F830
:10421000005415F4803546D04FF48032C3F80024A2
:1042200005465A4E336A012B50D0594944F00300D9
:10423000FDF7B0FB57493846FDF7ACFB4FF470145F
:1042400000F096FD544A20211820FDF7A9FD08B181
:10425000FFF776FD514B1A6802F0F802B02A06D13A
:104260001A68D20742BF1A6802F04E021A60FFF7BE
:1042700093FF00287BD12046494900F08FFA494836
:1042800001F092FA002872D147493846FDF782FBC7
:1042900000F0B4FDFDF70EFEFDF702FA0028F7D19D
:1042A000FFF7FCFEF4E7D3F8202502F0F802A82A75
:1042B0000AD1D3F82025D00706D5D3F8202502F05F
:1042C0005602C3F82025ACE70125AAE743F2040310
:1042D0001A68364B9A420FD1726B1DB996F860324C
:1042E000012B09D032484FF4805103F02FFC18B94C
:1042F000304944F002009BE702F0DEFEB26901465D
:104300001DB996F8A132012B05D02B4803F01EFCF5
:1043100008B92A49EDE72A493846FDF73BFB4FF03B
:10432000A043D3F81035990101D4264983E71B4BEC
:104330001B6813F0B10F01D023497CE702F016FE91
:10434000A8B9224D2870224802F0F4FC2B7823B93A
:1043500020494FF4FE70FDF757FE00F03FF801E0F2
:10436000FFF7A4FE1C4944F00100FDF713FB0320F6
:10437000F8BD4FF4A02463E78CC70F008CC70F0073
:104380003EA30F00BC9000200C00030028AD0020CD
:1043900055A30F00F3A30F00988C00201C050040CC
:1043A000E9400F0015410F0062A40F00DBE5B15199
:1043B00088AF002083A30F00C9AF0020BEA30F0069
:1043C000E6A30F0016A40F0035A40F00B89000203C
:1043D000A1400F0072A40F0056A40F0037B5184B70
:1043E000184C194D1949E41AE408240444F0040057
:1043F0004FF480520190FDF7D1FAD5F8802014498E
:104400000198FDF7CBFA4FF0FF33C5F88030C5F8BF
:104410008031C5F88430C5F8843102F0EFF820B15E
:104420000C4944F00100FDF7B5FAFDF739F9002811
:10443000FBD14FF4805003B0BDE8304000F048B8E5
:104440008CC70F008CC70F0000E100E0C6A40F006E
:10445000FCA40F0026A50F00F0B50646C1F30B0023
:1044600078BBB6F57F2F2CD8174CDFF860C02368D7
:10447000002A14BF062702270246072B05D902B1DE
:1044800023600420F0BD0122F7E71D0105F1804201
:1044900002F5F0326544C2F80068C2F80418C5F8A5
:1044A0000878D2F800E8764503F10103EBD1D2F8A1
:1044B00004289142E7D1D5F808289742E3D1236038
:1044C000E0E70720DEE700BFC090002000E00140E9
:1044D00030B504462C4889B00022C0F57F21FFF793
:1044E000BBFF50B1294A2A4B2A499B1ADB081B04FF
:1044F000024643F00100FDF751FA02F0DDFD264BC4
:104500009969002201441046FFF7A6FF50B11F4AE7
:104510001F4B22499B1ADB081B04024643F0010093
:10452000FDF73CFAEFF305810023D4E9002083F383
:10453000148883F3108883F3118883F31388C1F3FD
:10454000080139B982F308884FF0FF339E460047CF
:1045500009B030BDA2F120044FF0FF35CDE90033A2
:10456000CDE90233CDE90550049320224FF080734A
:1045700069462046079305F029F884F30888AE467B
:104580006FF006031847E3E700100F008CC70F0019
:104590008CC70F005BA50F0028AD002092A50F006F
:1045A00073B5274B064627481B1ADB081B040C462D
:1045B0003246254943F00400FDF7F0F9B4F1807F5D
:1045C00039D322498F20FDF71FFD6FF07F41A142B3
:1045D00028BF21461E4B641AD3F80455631E942B42
:1045E00096BF9634746074600D44347B25F07F452B
:1045F00098BF963D032C03D914497720FDF704FD9D
:10460000134E04F5A8734FF4F86046F82350114B8D
:1046100043F001039847104BA200134400221A6094
:104620001B680193019B4FF4803303FA04F4C6F82E
:10463000044302B070BD952CC7D804499020C2E74E
:104640008CC70F008CC70F00C6A50F00DCA50F009C
:104650000040024050A60F004041024018490A782D
:1046600084B0002A29D14FF08043A020D3F8183419
:10467000DB035EBF134B01221A60134A0023136051
:1046800012680392039A114A136012680292029A06
:104690000F4A136012680192019A0E4A82F82403AD
:1046A000102050600C4A0D48C2F808350123036001
:1046B00002201360C2F804030B7004B0704700BFFF
:1046C000C8900020080000400041024040410240E4
:1046D0004441024000E100E0004002400840024046
:1046E0002DE9F743234B1A6842B123490A68013286
:1046F0000A6000221A601B680093009B1F4D204B2C
:10470000204C214EDFF88C80DFF88C901F4FED1A83
:10471000ED082D0445F004053368CBB10023336068
:1047200033680193224641462846019BFDF736F93E
:10473000227B17494FF480339340C9F8083322464F
:104740002846FDF72BF9616851B12046FFF728FF95
:104750000436BE4204F11004DED103B0BDE8F0839C
:10476000A16811B12046FFF71BFF2368002BEFD093
:104770009847EDE704410240C49000208CC70F0029
:104780008CC70F00C45700204041024048410240FE
:1047900039A60F0027A60F0000400240F8B5114BC4
:1047A000114E0446114837681B1ADB081B043A46B1
:1047B00043F004000D460E49FDF7F0F83A7B4FF444
:1047C000803393400B4AC2F808334CB13668FFF788
:1047D00045FF356021463046BDE8F840FFF7E0BEB2
:1047E000F8BD00BF8CC70F00E45700208CC70F0036
:1047F00027A60F000040024070B5074B1D680E460B
:10480000A8600446FFF72AFF2E6021462846BDE82F
:104810007040FFF7C5BE00BFE8570020034A044BB5
:104820001068D3F8043503EB00607047C490002093
:1048300000400240014B01221A707047C9900020CD
:104840002DE9F341214BDA6A5F6A9D6CAC2A1FD1D6
:104850005B6B1D44FF1A1E4B1E4E1F4A1F490097DB
:10486000F61AF608360446F004082B464046FDF7D3
:10487000A8F819483A46294604F09AFE044668B951
:1048800017494046FDF786F8204602B0BDE8F081A2
:10489000002DE0D102F026FC0546DCE711493B463D
:1048A0002A464046FDF783F8FCF7FAFE0028FBD1C4
:1048B00000F0A4FA3946284601F082FE044600289A
:1048C000E2D0094946F00100DCE700BF28AD002036
:1048D0008CC70F008CC70F0000100F0056A60F00EA
:1048E0008BA60F00C2A60F00EFA60F002DE9F04F18
:1048F0003C4B16463C4A9B1A87B0DB081B0481429E
:1049000005460F46049343F0040B08D13749584637
:10491000FDF740F80024204607B0BDE8F08F03D231
:1049200033494F20FDF770FBC5F30B031BB1304932
:104930005120FDF769FB7B1BB3F5805F4FEA133411
:1049400003D22B495420FDF75FFB00F011FA082C2D
:1049500028BF082406F6FF7923034FEA1939039488
:1049600005930EB93446D6E7039B4B453ABFDDF8B5
:104970000CA0DDF81480CA464FF0000251462846CC
:1049800028BFB04601F0D6FD04460028C3D119491E
:10499000CDF800802B463A465846FDF712F808F14C
:1049A0000302234622F003023946284601F084FD23
:1049B00004460028AFD1104A136B4344136302F03E
:1049C000BFF9A9EB0A09A6EB08064544474404468B
:1049D0000028C6D0049B094943F00100FCF7DAFF28
:1049E00099E700BF8CC70F008CC70F0009A70F0005
:1049F00018A70F0066A70F0028AD002087A70F009B
:104A00002DE9F74302F07EFB344C354BDFF8EC9098
:104A10003449D9F84850D9F83080D9F83460E41ACC
:104A2000E4082404074644F004000190FCF7B2FFB8
:104A300042F204030198EA5803F1A34303F5471334
:104A400003F2D7539A4209D0274944F00100FCF7FA
:104A5000A1FF0325284603B0BDE8F083D9F8303024
:104A6000B3421D4404D12149FCF794FF0025F1E72E
:104A7000D3B94FF440521278142A81BF43F2140282
:104A80001B491268B2FBF1F205F5005198BF1A46B6
:104A90000978142981BF42F21403E958144BB1FB81
:104AA000F3F31449FCF783FFA6EB080202F6FF724A
:104AB00022F47F62294622F00F0207EB0800FFF77D
:104AC00015FF054628B10C4944F00100FCF762FFD0
:104AD000C0E703B0BDE8F04302F032B98CC70F0065
:104AE0008CC70F00C0A70F00E5A70F0019A80F0083
:104AF00040420F002BA80F0054A80F0028AD002043
:104B00002DE9F047624B634D634E6449ED1AED08A1
:104B10002D0445F004073846FCF73CFFF36AAA2B46
:104B200000F09A800CD8012B22D0A52B00F08880B1
:104B300045F003005A49FCF72DFF0020BDE8F0873F
:104B4000AC2BF5D157493846FCF724FF5649384677
:104B5000FCF720FFFFF754FF0446002800F0868092
:104B6000524945F00100FCF715FF4FF0010823E022
:104B70004F493846FCF70EFFD6F82490D6F848A0E7
:104B800002F09AFA346B4B4900EB04083846FCF704
:104B900001FF316B5144884514BFA9EB0402002288
:104BA0004046FFF7A3FE044670B1434945F00100BB
:104BB000FCF7F0FE4FF00008F36A4049224645F04A
:104BC0000100FCF7F4FE13E002F076FA22464946B3
:104BD000FDF7FEF9B26A904280462AD1384938463C
:104BE000FCF7D8FE0123C6E90783C6F81890A04653
:104BF0003448DFF8F49002F053FA0023324889F881
:104C0000003002F09DF899F80030044623B92F498E
:104C10004FF4D170FDF7F8F98CBBB8F1000F35D027
:104C2000336A012B32D138462949FCF7B3FE022002
:104C300084E70346274945F00100FCF7B8FED6E7B4
:104C400025493846FCF7A6FEFFF7DAFE4FF00108CB
:104C50000446002CCCD0AFE720493846FCF79AFE3A
:104C6000FFF7EEFD4FF000080446F2E7FFF7E8FD1E
:104C7000044608B11A4974E74FF00108B8E745F057
:104C800001001849FCF786FE032057E7012055E78D
:104C90008CC70F008CC70F0028AD00206DA80F0037
:104CA00079A90F0022A90F0030A90F004DA90F000C
:104CB0008EA80F0098A80F0054A80F0092A90F000B
:104CC000B3A80F004CAD002035480F0018A70F0007
:104CD000C4A90F00C8A80F0010A90F0019A90F0040
:104CE00063A90F0020AA0F00C99000200A4AD2F839
:104CF00000347BB109480023D2F80815D940C90710
:104D000048BF03F5C07103F1010348BF42F8210019
:104D1000072BF1D1704700BF000001403546526EAD
:104D200008B50748074B0849C01AC008000440F0FE
:104D30000300FCF72FFEBDE80840FFF7D7BF00BF18
:104D40009CC70F008CC70F003AAA0F0007B5074B8E
:104D500000221A601B680193019BFCF7E7FEFCF739
:104D60009FFC0028FBD103B05DF804FB000101406B
:104D700037B5194D2B784BBB18481949194B401AB8
:104D8000C008D3F80024000440F0030002B3D3F8B5
:104D90000445154901902246FCF700FE40F61652E4
:104DA0009442B8BF1446A4F54864FFF79FFF22461B
:104DB0000E490198FCF7F2FD0D492046FFF71CFD56
:104DC0000C4B4FF480321A6001232B7003B030BDBE
:104DD0000949FCF7DFFDF7E7CA9000209CC70F00E8
:104DE0008CC70F000000014048AA0F0061AA0F0005
:104DF000214D0F0000E100E093AA0F00034BD3F810
:104E000000340BB1FFF772BF704700BF00000140D4
:104E10000023C0E90232C0E900118B881A44026104
:104E2000B1F906301A4442610888003818BF0120E1
:104E3000704710B5426811880346002939D002F145
:104E400010014160148A2CB9C2680168FFF7E0FFC5
:104E5000204610BD9078118900F03004302C1BD111
:104E6000947C04F03004302C1DD190881969091A03
:104E700019610021907810F0300F02BF986801305E
:104E80009860908A0844196901441961B2F91620A2
:104E9000114459610120DCE700F0F004202C02D11C
:104EA00050894143E6E700F0C000802808BF042194
:104EB000E0E70846CDE770B5466804460D466368EE
:104EC0001A88AA4204D19B7803F00F03082B07D15C
:104ED0002046FFF7AEFF6368B342F0D1002070BDFB
:104EE0000120FCE743681A44426011B101399A423B
:104EF00001D10120704713F8010B01F8010FF6E70B
:104F00002DE9F34183680446884623B900263046DC
:104F100002B0BDE8F081036801220DF10701984756
:104F200006460028F2D0A3689DF80750013BA36015
:104F30009DF90730002B1ADA05F07F050727A368D3
:104F4000002BE3D0236801220DF10701204698478A
:104F50000028DBD0A3689DF80720013BA36002F086
:104F60007F03BB401D43130607F1070702D4C8F8AF
:104F70000050CCE7232FE2D1C8E770B542689278A1
:104F800002F00F01082986B003461FD103691C688F
:104F900000260CB906B070BD236826739D68626850
:104FA00029466846FFF734FF6368049304F10C0355
:104FB0000593AB7803F0C003802B08BF231D684620
:104FC00008BF0493FFF7D9FFA468E2E712F0C0011D
:104FD00020D102F0300010280ED15A6911705A68A1
:104FE00018699378D46803F00F03072B09D10146A1
:104FF000204600F017F8CDE79006F0D55B691980E0
:10500000C8E71289214614B104F0E0FAC2E704F0BF
:10501000EBFABFE78029BDD100690021920601604B
:10502000B8D5EBE77FB50A4601466846FFF7F0FEC4
:1050300030B16846FFF7A1FF6846FFF7FAFEF7E7D1
:1050400007B05DF804FB000030B5044685B0154696
:10505000A9B90268114B9A4211D0102D06D82A46E0
:1050600069462046FFF7F0FF05B030BD10226946C3
:105070002046FFF7E9FF0028F6D0103DEDE7A368D2
:10508000AB4201D20020EFE723682A46204698472A
:105090000028F7D0A268521BA260E5E7E54E0F009A
:1050A000F7B50E4601A907461546FFF729FFA8B137
:1050B000019A0123D3184FF0000404D2B17801F013
:1050C000C001802901D1204608E031899942FAD3F4
:1050D00029463846FFF7B8FF019BEC5403B0F0BDFA
:1050E00073B50D4601A906461446FFF709FF98B1AE
:1050F000019AB2F5803F11D2AB7803F0C003802B48
:1051000002F102010AD02B898B4207D32146304697
:1051100021F8022BFFF798FF02B070BD0020FBE7DB
:1051200010B5034C82600022C0E90041C26010BD8E
:10513000E54E0F002DE9F341002604460F46B04628
:105140003546A3682BB3236801220DF107012046E1
:105150009847F0B1A3689DF807C0013B0CF07F02AF
:10516000C5F12001A360A5F1200302FA03F322FA9E
:1051700001F10B43AA401CF0800F46EA020643EA05
:10518000080805F1070502D1C7E9006802E0462DCD
:10519000D7D1002002B0BDE8F08173B50C46694656
:1051A0001646FFF7C7FF68B12389082B0CD1DDE94C
:1051B0000045C6E90045DDE90023AB4206BFA24237
:1051C0000120002002B070BD042B04D1009B33608D
:1051D0001C460025EFE7022B4FF0000004D1009B96
:1051E00033809CB20546E6E7012BEBD1009B337080
:1051F00003F0FF04F6E737B50D4669461446FFF79E
:1052000099FF30B12A89082ADDE9003103D1C4E9C8
:10521000003103B030BD042A18464FEAE37108D1CB
:1052200023601A460B468B4206BF824201200020B3
:10523000EFE7022A04D11BB223801AB2D317F2E798
:10524000012A03D15BB223705AB2F7E70020E0E7EE
:10525000F7B51F4600233B700D460B70136001A984
:1052600004461646FFF74CFE30B9A36813B9012374
:105270003B70002003B0F0BD019C002CF7D0E30888
:1052800004F0070433602C70F4E713B504460529D5
:105290001FD8DFE801F0030F151E1E1C012201A913
:1052A0002046FFF7D1FE18B19DF90430002BF5DB45
:1052B00002B010BD082200212046FFF7C5FEF7E727
:1052C00001A9FFF71DFE0028F2D0019AF3E704229E
:1052D000F1E70020ECE773B50D4601A90446FFF79E
:1052E0000FFE064618B90026304602B070BD94E89D
:1052F0000F0085E80F0001998A42F4D3A960A368E2
:105300005B1AA360F0E700002DE9F0435768BB7813
:1053100013F0C00489B006468C46154603D0402CD5
:105320006AD000240CE003F00F025F4903F0300361
:10533000202B51F8228026D006D8CBB1102B1CD0C0
:10534000204609B0BDE8F083302BF9D16B6939886C
:105350001980072A0AD16B6828691A89214604F046
:1053600043F96B682969D868FFF75CFE2A6940E059
:105370002A693946C0470446E2E76B6901221A7080
:105380002A696968F6E7BCF1020FD5F8149024D1B8
:10539000042A22D804A9FFF79EFF04460028C0D0A3
:1053A000069B2BB16968B9F800304A899A4205D842
:1053B000059B7360069B002BC2D0B2E708892A695F
:1053C00003FB002204A8C04728B1B9F8003001331C
:1053D000A9F80030E4E70446EAE7B9F800307A8932
:1053E0009A429ED92A693989581CA9F8000003FB02
:1053F000012269683046BDE7D2F81080474657F869
:10540000043B13B9FFF741FFB5E7022914D104A902
:10541000FFF761FF002884D0D8F8003069683A4669
:1054200004A89847044600283FF47BAF069B002B56
:10543000F2D1059B736083E7012925D005292BD084
:1054400000297FF46EAF0C460DF1040901340B2CDA
:105450003FF467AF012249463046FFF7F5FD0028CB
:105460003FF45FAF19F9013B002BEFDB0F4B0493C7
:1054700001ABCDE9053400230793D8F80030696803
:105480003A4604A8984776E7082201A9FFF7DCFD11
:1054900008240028EAD144E704220DEB0201FFF7BB
:1054A000D3FD0424F5E700BFBCAA0F00E54E0F00B2
:1054B0002DE9F04F91B00446002604A8CDE902661C
:1054C000FFF7A6FCA3683BBBDDE9053404A89D7883
:1054D000FFF7AFFC0028F7D115F0300F03D1059B83
:1054E0001B8803B10134002C00F0A980630900225D
:1054F00002A9934240F09C8010AA02EB830304F0BF
:105500001F0453F8383CC4F120044FF0FF30E04052
:10551000C31A584258410DE00DF1030301AA0DF1E1
:1055200002012046FFF794FE38B99DF80330002BA6
:10553000CAD1002011B0BDE8F08F019904A8FFF78F
:10554000BAFC002850D1019BB3427DD3059D059A3A
:10555000937803F00F03082B7FD004A8FFF769FCB2
:10556000059B9D42F3D14FF0FF36019FB7426BD3AD
:10557000089B9DF802A0D4F808801D684FF001092F
:10558000A368002D5DD098459CD12B68D3F800B05E
:10559000BBF1000F08D053463A4629462046D8476B
:1055A0000028C6D0AD68EBE7D3F808B0BBF80030F0
:1055B0009F42F7D16A6859460AA8FFF729FC6B6831
:1055C0000E9305F10C030F939BF8023003F0C00318
:1055D000802B04BF2B1D0E930AAA85F80C90514610
:1055E0002046FFF791FEDBE7059B9B7813F0300F19
:1055F0000FD1069A3F2A0CD8510910AB03EB810159
:1056000002F01F020123934051F8382C134341F854
:10561000383CE5682DB19DF80220019904AB204685
:10562000A8479DF8021004AA2046FFF76DFE10E07F
:1056300051F8225001357FF47DAF013259E7012046
:1056400078E798457FF43EAF9DF802102046FFF7BB
:105650001CFE00287FF436AF6BE7168885E737B568
:105660000C460546114620460192FFF7DBFC019AE5
:105670002146284603B0BDE83040FFF719BF70B59A
:1056800086B0CE6801920C4602A90546FFF723FEBC
:1056900068B1E06858B1A378019A03F03003202B79
:1056A000314602A805D1FFF7DAFF039B6B6006B015
:1056B00070BDFFF7FDFEF8E7D3B50C466946FFF76E
:1056C00039FD80B1DDE9001300274A0801F0010629
:1056D00042EAC37256EA07014FEA53031CBFD243A2
:1056E000DB43C4E9002302B0D0BD37B50D4669469F
:1056F0001446FFF7E1FF68B12B89082B0CD1DDE9D7
:105700000001C4E90001DDE900238B4206BF8242AB
:105710000120002003B030BD042B03D1009820608D
:10572000C117F0E7022B04D1BDF90000208000B2C0
:10573000F6E7012B04D19DF90000207040B2EFE79D
:105740000020E7E713B504220C460DEB0201FFF73A
:105750007BFC08B1019B236002B010BD1146FFF72E
:10576000F1BF13B508220C466946FFF76DFC18B16E
:10577000DDE90023C4E9002302B010BD1146FFF7A4
:10578000F0BF0000062810B5044602D1002001F049
:105790004DFC044B1B681BB12046BDE81040184768
:1057A00010BD00BFCC90002038B5104B104C1860D5
:1057B000104B1149E41AE408240444F00300FCF7F8
:1057C000E9F80020FFF7DEFF0C4801F0F7FB054683
:1057D00020B9BDE83840094801F0CAB90246084975
:1057E00044F00100FCF7DAF8284638BDCC900020E0
:1057F0008CC70F008CC70F0094AC0F0085570F00AB
:10580000A7AC0F006CDF70476DDF704772DF704729
:1058100073DF704774DF704775DF704776DF70475E
:105820007ADF70477CDF70477DDF70477FDF70472E
:1058300086DF70478FDF704790DF7047A8DF7047C3
:10584000AADF7047ADDF7047AEDF7047B0DF70474B
:10585000B1DF7047B5DF704762DF704766DF7047C2
:1058600013DF70477FB50023CDF80B308DF80F3074
:105870000A4BADF806109B89ADF8083001238DF86E
:105880000A300DF10603CDE90430054B02A9188852
:10589000FFF7DAFF07B05DF804FB00BF3AA1002074
:1058A000EE57002010B5094B0949044609481B1A58
:1058B000DB081B04224643F00400FCF76FF8214686
:1058C0000548BDE81040FCF721BD00BFA4C70F008C
:1058D000D1AC0F008CC70F0010C80F0070B5182294
:1058E0008CB00DEB0200002103F07EFE282308930C
:1058F0002348244B2449254CC01AC0080004012524
:1059000040F004008DF818508DF82D50FCF742F847
:105910001623ADF806300023CDE9033305930223A7
:1059200009260622237023715923A2706371032272
:10593000FE230DF10601A0190294ADF80C6065700C
:10594000E270A371FFF770FFB8B9BDF80630267298
:105950005A19E271BDF80C200D4C134402A906AA95
:105960002046ADF80C30FFF751FF30B92078FFF733
:1059700051FF20782946FFF74BFF0CB070BD00BFE8
:10598000A4C70F008CC70F00E3AC0F004EA100208E
:10599000EC5700202DE9F0410388242B8EB00446FB
:1059A00052D813B90EB0BDE8F081013B232BF9D8D2
:1059B00001A252F823F000BF1F5D0F00A5590F0090
:1059C000A5590F00A5590F00A5590F00A5590F00A3
:1059D000A5590F00A5590F00A5590F00A5590F0093
:1059E000A5590F00A5590F00A5590F00A5590F0083
:1059F000A5590F00795A0F00BB5A0F00515C0F00D8
:105A0000FD5B0F00B95E0F00A5590F00A5590F00EF
:105A1000A5590F00A5590F00A5590F00DB5E0F0017
:105A2000A5590F00A5590F00A5590F00A5590F0042
:105A30008D5C0F00A5590F00E75C0F00C95C0F00DB
:105A4000BF5B0F00E35B0F00503B9AB2062AA9D858
:105A5000062BA7D801A252F823F000BFE55A0F0089
:105A60009D5D0F00DB5E0F00A5590F00A5590F00CB
:105A7000675B0F000B5D0F00AC4BAD4DAD49ED1AF0
:105A8000ED082D0445F00400FBF784FFAA4BA28823
:105A90001A80AA4A12681C460AB101209047A849F8
:105AA0002088FFF7B9FE024600283FF47BAFA549E6
:105AB00045F00100FBF772FF74E79F4B4FF6FF7252
:105AC0001A80A14B1B685A0704D4FFF707FF08B1DF
:105AD000FEF736F9994B1B68002B3FF463AF0220A9
:105AE00098475FE7994FE288BB889A427FF45AAFA4
:105AF00097488F4DFCF7DCFB8C4BED1AED082D041D
:105B0000064628B9934945F00200FBF743FF49E7F1
:105B1000F4230093238A9049024645F00400FBF7E2
:105B200050FF228A04F11201304603F04FFD182283
:105B3000002108A803F058FD08238DF82030874B7A
:105B40000A93874B0997CDE90B3608A8238AADF84D
:105B5000343000F0EDFF00283FF424AF7C4831469C
:105B6000FCF7D4FB1EE7E288F62A24D8D31E9B0755
:105B700023D0D31F9BB2013B594201F0030103F034
:105B8000030302F1FF3458BF4B42E31A9CB2674B48
:105B900067487449C01AC0080004234640F0040056
:105BA000FBF705FF644B21461888FFF753FE0028DA
:105BB0003FF4F8AE85E0F724E9E71446E7E75B4BEE
:105BC0005B486949C01AC008000440F00400FBF7B4
:105BD000E1FE0022A08808A9CDE90822FFF72CFEEB
:105BE000E5E7524B524862896049C01AC008000478
:105BF000E38940F00400FBF7DAFED3E64B4B4C4C54
:105C00005B494D4DE41AE408240444F004042046A2
:105C1000FBF7C0FE0023ADF822300223ADF82030A0
:105C2000288806AB08AA42F605210993FFF70AFE69
:105C300008B1FEF785F8BDF818204E492046FBF75D
:105C4000ADFE002328881A468521FFF7EFFDAEE759
:105C5000364B37484849C01AC008000440F00400D9
:105C60000390FBF797FE628944490398FBF796FE81
:105C7000228943490398FBF791FEA2894149039881
:105C8000FBF78CFEE2894049039813E7274B284D28
:105C90003E49ED1AED082D0445F00400FBF77AFEAD
:105CA000254B04F108011888FFF7B6FD04460028CB
:105CB0003FF478AE0246364945F00100FBF76EFE30
:105CC0002046FEF73DF86DE6184B19483149C01AD9
:105CD000C008237A00930004637AA27A40F004009B
:105CE000FBF76FFE5EE6114B11482B49C01AC00846
:105CF000000440F00400FBF74DFE0023A088ADF83F
:105D0000203008A9FFF796FD51E7A379002B7FF417
:105D100049AE094B13211888FFF780FD47E7064B72
:105D200000211888FFF79AFD41E700BF8CC70F00DC
:105D3000A4C70F00F2AC0F00EE57002074A10020A2
:105D400016B20F00FCAC0F0070A100203AA1002099
:105D500010C80F002AAD0F0049AD0F00DD5F0F0026
:105D6000A5580F0069AD0F00AFAD0F00E0AD0F00FB
:105D70001EAE0F0046AE0F0069AE0F0090AE0F00D2
:105D8000A6AE0F00BCAE0F00CEAE0F00E3AE0F000C
:105D900012AF0F0047AF0F0081AF0F00A379002BA8
:105DA0003FF400AE022B7FF4FDAD554920898A896E
:105DB00090420E467FF4F6ADA27B012A7FF4F2AD4D
:105DC00000220120CDE908228DF82600208A4D4DC1
:105DD000ADF82800608AADF82A0004F114000B9099
:105DE000ADF81A20098A28888DF8203005AF06AA58
:105DF000ADF818300797FFF725FDA84660B938467B
:105E000002F04CF940B940F2FD132888ADF8243077
:105E100008A9FFF71BFDC5E5002308A9B8F8000095
:105E2000ADF82430FFF712FD014600287FF4BAAD2B
:105E3000182208A803F0D8FB237D334A8DF82030C0
:105E4000022B09960A9224D0062B10D0012B10D1D8
:105E50002E4B1A882E4B1A80637DD4F816200C9393
:105E6000012B0D9205D12B4801F0E0F801E0637D94
:105E70000C9308A800F05CFE00283FF493AD264A7E
:105E8000264B27499B1ADB081B04024643F00100FE
:105E900010E6214B21482349C01AC008000440F0F5
:105EA0000400FBF777FDA27D637D43EA0223174AD6
:105EB0001380174A1380DCE7174B18481A49C01A99
:105EC000C008000440F00400FBF764FD0023A08834
:105ED0001A461946FFF7ACFC69E60023A0881A466B
:105EE0001946FFF7B5FC08B1FDF72AFF0B480A4B2E
:105EF0000E49C01AC008000440F0040005E600BFC7
:105F00003AA10020EE570020DD5F0F0078A10020AD
:105F10007AA1002078C70F008CC70F00A4C70F001C
:105F2000BCAF0F00AAAF0F00F0AF0F0016B00F000C
:105F300070B5204E346814F0010432D01E4B9842E4
:105F400036D01E4B1E4D1F4C1F49ED1AED082D0477
:105F500045F004052846FBF71DFD22884FF6FF7328
:105F60009A4220D019492846FBF714FD336820884F
:105F700043F0040313213360FFF750FC044680B95B
:105F8000134EC82446F001064FF47A40B047013C56
:105F9000FAD1FDF751FB044618B90E492846FBF724
:105FA000F9FC204670BD0C4B1878FFF733FCF0E786
:105FB0000024F6E770A1002078C70F008CC70F00FF
:105FC000A4C70F00EE57002038B00F0055B00F00E7
:105FD00010B20F0064B00F00EC57002030B50D4632
:105FE00087B0044620B9464940F28710FCF70CF808
:105FF00025B943494FF4C470FCF706F800210D227F
:1060000002A8019103F0F0FA2378082B0BD13D4A46
:106010003D4913880988013B9BB2138031B32BBBE8
:10602000032311802370637822788DF80520602186
:10603000012B8DF804108DF8063019D033493448FF
:10604000401AC0080004334940F00200FBF7AFFCDF
:1060500063780B2B12D100F0A9FA8DF8070000200D
:1060600000F09EFA042101A8FFF7FCFB07B030BD49
:10607000062A05D0082A29D0032A27D00321F2E7CF
:10608000E1688DF80710D4E90123080A8DF80800AB
:10609000080C090E8DF80A10110A8DF80B208DF8E6
:1060A0000C10110C120E8DF80E201A0A8DF80F30FC
:1060B0008DF810201A0C1B0E8DF80D108DF80900AC
:1060C0008DF811208DF812300F21CCE7D4E901238F
:1060D000110A8DF807208DF80810110C120E8DF89A
:1060E0000A201A0A8DF80B308DF80C201A0C1B0EA2
:1060F0008DF809108DF80D208DF80E300B21B2E7C8
:106100007DB00F007AA1002078A100208CC70F007D
:10611000A4C70F00C2B00F002DE9F043054695B0AB
:1061200020B9464940F24F40FBF76EFF444B4FF613
:10613000FF721A8001204FF659632A4602A98DF892
:106140000A00ADF80830FFF779FB0446002871D14A
:106150003C4B04AA03F11007164618685968144608
:1061600003C40833BB422246F7D1A91C3046FFF7CF
:1061700073FB044600285DD101461C220DA803F0E4
:1061800033FA9DF83430ADF8044043F004038DF841
:1061900034300223ADF80C30AB788DF80E3004F0BB
:1061A000F80343F003038DF80630F423CDE90A44E5
:1061B000ADF82C302B4601AE33F8040B0C944FF0A5
:1061C000110903AF08AA0DA9CDE908768DF805904D
:1061D000FFF736FBA046044660BB01461C220DA813
:1061E00003F002FA9DF83430ADF8044023F01803B0
:1061F00043F018038DF834300123ADF80C30AB7840
:106200008DF80E301723CDE90A44ADF82C302B461B
:1062100008F0E80833F80C0B0C9448F0130808AAAF
:106220000DA9CDE908768DF805908DF80680FFF769
:1062300007FB0446204615B0BDE8F0837DB00F0093
:10624000EE570020F9B10F00F0B5524E336813F04D
:10625000010485B0074640F09B804F4B4F4D50499D
:10626000ED1AED082D0445F004052846FBF792FBD6
:106270004C4B4D481F60FBF7DDFF029400F0B1F975
:106280000446002873D1494A49492846FBF786FB52
:106290004648FFF7E5FA0446002868D145492846F4
:1062A000FBF778FBFDF78AF9044600285FD102A8C6
:1062B000FDF752FA0446002859D13F492846FBF71A
:1062C00069FB02A90120FDF751FA044600284ED1CE
:1062D0003A492846FBF75EFB02A8FDF717FB044688
:1062E000002844D100F032FE002843D0344800F0AA
:1062F00021FE336843F002033360112302A88DF8B6
:106300000430FFF781FA044688BB9DF8093002A8E3
:1063100001338DF80930FFF775FA044638BB33684E
:106320009B072CD5264C2749A3692846221DFBF73D
:106330003EFBA069211D82B201A8FFF773FA044653
:10634000A8B92148FFF76CFA044680B91F48FFF747
:10635000E3FE044658B9FFF7C1FA044638B933687A
:106360001B4943F0010328463360FBF713FB20462B
:1063700005B0F0BD17492846FBF70CFBBDE71649F1
:106380002846FBF707FB154803F03EF91349D2E70F
:106390000024ECE770A100208CC70F00A4C70F00F9
:1063A000F1B00F0074A1002010C80F0000100F0002
:1063B00010B10F0030B10F0045B10F005CB10F00FC
:1063C000D09000208EB10F0016B20F003AA100202D
:1063D000CEB10F0074B10F00AFB10F00E9B00F00E4
:1063E00030B51A490B6885B004460BB1013B0B6010
:1063F0001748184A63682578121AD208120442F026
:1064000004008BB90B68144A14490093012D08BF8E
:106410000A46A3681249FBF7D4FA63699BB1E068A6
:1064200005B0BDE8304018470A680292226901921F
:10643000A2680A490092084A012D08BF0A46094984
:10644000FBF7D9FAE9E705B030BD00BF7CA1002019
:106450008CC70F00ACC70F0024B20F001EB20F0094
:106460002AB20F0050B20F0008B502460B4B0C4881
:106470001B1ADB081B0443F004004AB10949FBF76F
:1064800089FA09490948BDE808400022FCF780B9AB
:106490000749FBF77FFA0749F4E700BFACC70F00D5
:1064A0008CC70F008CB20F0048990F006058002075
:1064B000B2B20F001C990F002DE9F7439846174C14
:1064C000174BDFF86C90E41AE408D9F80030240484
:1064D000CDE9002305460B460E46174611490246F4
:1064E00044F00400FBF779FA29460F48CDF8008004
:1064F0003B463246FCF764F9054640B9D9F800300E
:106500000133C9F80030284603B0BDE8F0830246E5
:10651000064944F00200FBF741FAF4E7ACC70F006C
:106520008CC70F00DAB20F00605800201DB30F00B7
:106530007CA100202DE9F341134B144C144FE41AB5
:10654000E4083B680093240405460B460E4690463B
:106550001049024644F00400FBF733FA29460E487E
:1065600043463246FCF77CF9054630B93B680133B7
:106570003B60284602B0BDE8F0810246074944F07E
:106580000200FBF70BFAF4E78CC70F00ACC70F0053
:106590007CA100204AB30F006058002087B30F0091
:1065A000014B18700B20704780A10020024B002285
:1065B00018781A70704700BF80A1002018DF70475C
:1065C00030B585B0054610220C466846002103F020
:1065D0000BF8A408684601950294FFF7EFFF05B099
:1065E00030BD1FB50023CDE9013303936846022374
:1065F0000093FFF7E3FF05B05DF804FB4FF0005395
:106600004FF480521A60002070470000084B094880
:106610000949C01A10B5C008000440F00400FBF797
:10662000B9F9064BBDE810401B680620184700BFAB
:106630008CC70F00B4C70F00C2B30F008CA100209D
:106640000A2803D90B38C0B2FFF7AABF7047000071
:1066500070B5054686B00020FCF73EF9014690B1C2
:10666000244A18212846FBF7BFFB50B1224A234B8E
:1066700023499B1ADB081B04024643F00100FBF789
:106680008DF906B070BD1822684602F0ADFF0423F4
:106690001A4C8DF80030184B1A4EE41A1A4B1A6D2A
:1066A0003368E40824049A4244F004041AD11749D8
:1066B0002046FBF76FF9164B3168186801F030FC83
:1066C0008DF80100FFF7BCFFD5E901138DF801003B
:1066D000684698470F4800F033FB9DF801200E49AB
:1066E0002046CCE701238DF801306846D5E9011337
:1066F0009847F2E751660F008CC70F00B4C70F0030
:10670000F6B30F0084A1002028AD00201FB40F00B5
:1067100088A100200D660F004EB40F002DE9F04156
:10672000836888B0044623B9984940F2CF20FBF72C
:106730006BFC1822002102A802F056FF0123944EA0
:106740008DF80930934B22788DF80820F61AF60858
:106750003604531E46F004050B2B00F2C881DFE817
:1067600013F02C000C002C002C00C6012C00C601DC
:106770002C00C601C601C601110087492846FBF757
:1067800009F907E028468549FBF704F9844B0720FF
:106790001B6898479DF8092082492846FBF7FEF8B8
:1067A000D4E9011302A898479DF80930012B00F0A5
:1067B00088817B4B05201B6882E1062A7A4F01D035
:1067C000012A01D122693A703A78012A09D0022AB5
:1067D00074D0764946F00100FBF7DCF800233B70EB
:1067E000C9E0072B64D8DFE803F004631443635B5C
:1067F000631E6F492846FBF7CDF8694B03201B68E1
:106800009847606901F07CF8FFF71AFF8DF80900DE
:10681000C0E768492846FBF7BDF8674BDA6B1B6C8D
:1068200003920493B6E7236923B9584940F2131041
:10683000FBF7EAFBA38A23B954494FF48A70FBF7AC
:10684000E3FB5E492846FBF7A5F8A18A206901F021
:106850006FF8FFF7F5FE584B8DF80900DA6B1B6CEB
:106860000493E3680392002B94D02069984791E742
:1068700053492846FBF78EF85249534801F0D6F8A1
:10688000FFF7DEFE01288DF8090083D1002000F01B
:1068900057FA08B94D4971E70A238DF8093079E7AD
:1068A0004B492846FBF776F84FF400730593B4E79D
:1068B00036494FF4BC70FBF7A7FB6BE7072B00F2E0
:1068C0001281DFE813F008001001D200E10010018E
:1068D0000101100197003F492846FBF75BF801F0E2
:1068E00057F830B93C4946F00100FBF753F808234C
:1068F000D3E7626932B9394946F00100FBF74AF83B
:106900000323CAE7C2F30B0343B12B4B2D495B6D45
:10691000096813448B4201D03149EDE7B2F5805F3D
:1069200006D9304946F00100FBF734F80423B4E7F8
:10693000214F24497B6D0968D018884206D90091FF
:1069400046F001002849FBF73CF8D0E77A64FA6C7E
:10695000BA643B651C4A3B636169106801F6FF71CC
:106960000022090B1844FFF7E5FD30B11F4946F03E
:106970000100FBF70FF805238FE7BB6C00933B6D1D
:106980007A6C1B492846FBF71CF803E776B40F0026
:10699000B4C70F008CC70F00BFB40F00E3B40F00E3
:1069A0008CA100204EB40F00F05700207BB80F00E0
:1069B000FBB40F0025B50F0028AD002049B50F002E
:1069C00072B50F0084A1002088A100209DB50F00A2
:1069D000C2B50F00ECB50F0013B60F0048B60F009C
:1069E00061B60F0082B60F00A6B60F0017B70F00F2
:1069F0002EB70F0041492846FAF7CCFF00F0C8FF38
:106A000000283FF474AF3E4FA18AD7E914329B1A95
:106A10007A6C0B44934201D93A496DE73A4A3B6B91
:106A20001268206903EB020807F14802FBF7D0FA6D
:106A3000E368064623B935494FF4F870FBF7E4FAEA
:106A4000E368A28A21694046FFF736FD08B1E36892
:106A50000BE7A28A3B6B049613443B63A38A3A6D0F
:106A6000BE6413443B65039394E6254E28492846AB
:106A7000FAF790FFB36C326D26492846FAF797FF74
:106A8000B36C0493336DEEE728462349FAF782FF8F
:106A90001B48D0E91473426CFB1A934205D01F497E
:106AA00046F00100FAF783FF21E7836CC3640021FD
:106AB000416447652046FFF7CBFD194B1B68042056
